{
	"Election.sol": {
		"Election": {
			"abi": [
				{
					"inputs": [
						{
							"internalType": "string",
							"name": "_candidateName",
							"type": "string"
						}
					],
					"name": "addCandidate",
					"outputs": [],
					"stateMutability": "nonpayable",
					"type": "function"
				},
				{
					"inputs": [
						{
							"internalType": "address",
							"name": "_voterAddress",
							"type": "address"
						}
					],
					"name": "authorizeVoter",
					"outputs": [],
					"stateMutability": "nonpayable",
					"type": "function"
				},
				{
					"inputs": [
						{
							"internalType": "uint256",
							"name": "",
							"type": "uint256"
						}
					],
					"name": "candidates",
					"outputs": [
						{
							"internalType": "string",
							"name": "name",
							"type": "string"
						},
						{
							"internalType": "uint256",
							"name": "numVotes",
							"type": "uint256"
						}
					],
					"stateMutability": "view",
					"type": "function"
				},
				{
					"inputs": [],
					"name": "electionName",
					"outputs": [
						{
							"internalType": "string",
							"name": "",
							"type": "string"
						}
					],
					"stateMutability": "view",
					"type": "function"
				},
				{
					"inputs": [],
					"name": "getNumCandidates",
					"outputs": [
						{
							"internalType": "uint256",
							"name": "",
							"type": "uint256"
						}
					],
					"stateMutability": "view",
					"type": "function"
				},
				{
					"inputs": [],
					"name": "owner",
					"outputs": [
						{
							"internalType": "address",
							"name": "",
							"type": "address"
						}
					],
					"stateMutability": "view",
					"type": "function"
				},
				{
					"inputs": [
						{
							"internalType": "string",
							"name": "_electionName",
							"type": "string"
						}
					],
					"name": "startElection",
					"outputs": [],
					"stateMutability": "nonpayable",
					"type": "function"
				},
				{
					"inputs": [],
					"name": "totalVotes",
					"outputs": [
						{
							"internalType": "uint256",
							"name": "",
							"type": "uint256"
						}
					],
					"stateMutability": "view",
					"type": "function"
				},
				{
					"inputs": [
						{
							"internalType": "uint256",
							"name": "candidateIndex",
							"type": "uint256"
						}
					],
					"name": "vote",
					"outputs": [],
					"stateMutability": "nonpayable",
					"type": "function"
				},
				{
					"inputs": [
						{
							"internalType": "address",
							"name": "",
							"type": "address"
						}
					],
					"name": "voters",
					"outputs": [
						{
							"internalType": "string",
							"name": "name",
							"type": "string"
						},
						{
							"internalType": "bool",
							"name": "authorised",
							"type": "bool"
						},
						{
							"internalType": "uint256",
							"name": "whom",
							"type": "uint256"
						},
						{
							"internalType": "bool",
							"name": "voted",
							"type": "bool"
						}
					],
					"stateMutability": "view",
					"type": "function"
				}
			],
			"devdoc": {
				"kind": "dev",
				"methods": {},
				"version": 1
			},
			"evm": {
				"assembly": "    /* \"Election.sol\":71:2099  contract Election{... */\n  mstore(0x40, 0x80)\n  callvalue\n  dup1\n  iszero\n  tag_1\n  jumpi\n  0x00\n  dup1\n  revert\ntag_1:\n  pop\n  dataSize(sub_0)\n  dup1\n  dataOffset(sub_0)\n  0x00\n  codecopy\n  0x00\n  return\nstop\n\nsub_0: assembly {\n        /* \"Election.sol\":71:2099  contract Election{... */\n      mstore(0x40, 0x80)\n      callvalue\n      dup1\n      iszero\n      tag_1\n      jumpi\n      0x00\n      dup1\n      revert\n    tag_1:\n      pop\n      jumpi(tag_2, lt(calldatasize, 0x04))\n      shr(0xe0, calldataload(0x00))\n      dup1\n      0x85e8e7a7\n      gt\n      tag_13\n      jumpi\n      dup1\n      0x85e8e7a7\n      eq\n      tag_8\n      jumpi\n      dup1\n      0x8da5cb5b\n      eq\n      tag_9\n      jumpi\n      dup1\n      0xa3ec138d\n      eq\n      tag_10\n      jumpi\n      dup1\n      0xf544bed8\n      eq\n      tag_11\n      jumpi\n      dup1\n      0xfd47b368\n      eq\n      tag_12\n      jumpi\n      jump(tag_2)\n    tag_13:\n      dup1\n      0x0121b93f\n      eq\n      tag_3\n      jumpi\n      dup1\n      0x0d15fd77\n      eq\n      tag_4\n      jumpi\n      dup1\n      0x3477ee2e\n      eq\n      tag_5\n      jumpi\n      dup1\n      0x462e91ec\n      eq\n      tag_6\n      jumpi\n      dup1\n      0x5c06b06e\n      eq\n      tag_7\n      jumpi\n    tag_2:\n      0x00\n      dup1\n      revert\n        /* \"Election.sol\":1873:2096  function vote(uint candidateIndex)  alreadyVoted public{... */\n    tag_3:\n      tag_14\n      0x04\n      dup1\n      calldatasize\n      sub\n      dup2\n      add\n      swap1\n      tag_15\n      swap2\n      swap1\n      tag_16\n      jump\t// in\n    tag_15:\n      tag_17\n      jump\t// in\n    tag_14:\n      stop\n        /* \"Election.sol\":779:801  uint public totalVotes */\n    tag_4:\n      tag_18\n      tag_19\n      jump\t// in\n    tag_18:\n      mload(0x40)\n      tag_20\n      swap2\n      swap1\n      tag_21\n      jump\t// in\n    tag_20:\n      mload(0x40)\n      dup1\n      swap2\n      sub\n      swap1\n      return\n        /* \"Election.sol\":708:737  Candidate[] public candidates */\n    tag_5:\n      tag_22\n      0x04\n      dup1\n      calldatasize\n      sub\n      dup2\n      add\n      swap1\n      tag_23\n      swap2\n      swap1\n      tag_16\n      jump\t// in\n    tag_23:\n      tag_24\n      jump\t// in\n    tag_22:\n      mload(0x40)\n      tag_25\n      swap3\n      swap2\n      swap1\n      tag_26\n      jump\t// in\n    tag_25:\n      mload(0x40)\n      dup1\n      swap2\n      sub\n      swap1\n      return\n        /* \"Election.sol\":1379:1541  function addCandidate(string memory _candidateName) ownerOnly public{... */\n    tag_6:\n      tag_27\n      0x04\n      dup1\n      calldatasize\n      sub\n      dup2\n      add\n      swap1\n      tag_28\n      swap2\n      swap1\n      tag_29\n      jump\t// in\n    tag_28:\n      tag_30\n      jump\t// in\n    tag_27:\n      stop\n        /* \"Election.sol\":1760:1854  function getNumCandidates() public view returns(uint){... */\n    tag_7:\n      tag_31\n      tag_32\n      jump\t// in\n    tag_31:\n      mload(0x40)\n      tag_33\n      swap2\n      swap1\n      tag_21\n      jump\t// in\n    tag_33:\n      mload(0x40)\n      dup1\n      swap2\n      sub\n      swap1\n      return\n        /* \"Election.sol\":602:628  string public electionName */\n    tag_8:\n      tag_34\n      tag_35\n      jump\t// in\n    tag_34:\n      mload(0x40)\n      tag_36\n      swap2\n      swap1\n      tag_37\n      jump\t// in\n    tag_36:\n      mload(0x40)\n      dup1\n      swap2\n      sub\n      swap1\n      return\n        /* \"Election.sol\":548:568  address public owner */\n    tag_9:\n      tag_38\n      tag_39\n      jump\t// in\n    tag_38:\n      mload(0x40)\n      tag_40\n      swap2\n      swap1\n      tag_41\n      jump\t// in\n    tag_40:\n      mload(0x40)\n      dup1\n      swap2\n      sub\n      swap1\n      return\n        /* \"Election.sol\":635:674  mapping(address => Voter) public voters */\n    tag_10:\n      tag_42\n      0x04\n      dup1\n      calldatasize\n      sub\n      dup2\n      add\n      swap1\n      tag_43\n      swap2\n      swap1\n      tag_44\n      jump\t// in\n    tag_43:\n      tag_45\n      jump\t// in\n    tag_42:\n      mload(0x40)\n      tag_46\n      swap5\n      swap4\n      swap3\n      swap2\n      swap1\n      tag_47\n      jump\t// in\n    tag_46:\n      mload(0x40)\n      dup1\n      swap2\n      sub\n      swap1\n      return\n        /* \"Election.sol\":1144:1373  function startElection(string memory _electionName) public {... */\n    tag_11:\n      tag_48\n      0x04\n      dup1\n      calldatasize\n      sub\n      dup2\n      add\n      swap1\n      tag_49\n      swap2\n      swap1\n      tag_29\n      jump\t// in\n    tag_49:\n      tag_50\n      jump\t// in\n    tag_48:\n      stop\n        /* \"Election.sol\":1603:1722  function authorizeVoter(address _voterAddress) ownerOnly public{... */\n    tag_12:\n      tag_51\n      0x04\n      dup1\n      calldatasize\n      sub\n      dup2\n      add\n      swap1\n      tag_52\n      swap2\n      swap1\n      tag_44\n      jump\t// in\n    tag_52:\n      tag_53\n      jump\t// in\n    tag_51:\n      stop\n        /* \"Election.sol\":1873:2096  function vote(uint candidateIndex)  alreadyVoted public{... */\n    tag_17:\n        /* \"Election.sol\":1048:1054  voters */\n      0x02\n        /* \"Election.sol\":1048:1066  voters[msg.sender] */\n      0x00\n        /* \"Election.sol\":1055:1065  msg.sender */\n      caller\n        /* \"Election.sol\":1048:1066  voters[msg.sender] */\n      0xffffffffffffffffffffffffffffffffffffffff\n      and\n      0xffffffffffffffffffffffffffffffffffffffff\n      and\n      dup2\n      mstore\n      0x20\n      add\n      swap1\n      dup2\n      mstore\n      0x20\n      add\n      0x00\n      keccak256\n        /* \"Election.sol\":1048:1072  voters[msg.sender].voted */\n      0x03\n      add\n      0x00\n      swap1\n      sload\n      swap1\n      0x0100\n      exp\n      swap1\n      div\n      0xff\n      and\n        /* \"Election.sol\":1047:1072  !voters[msg.sender].voted */\n      iszero\n        /* \"Election.sol\":1039:1073  require(!voters[msg.sender].voted) */\n      tag_55\n      jumpi\n      0x00\n      dup1\n      revert\n    tag_55:\n        /* \"Election.sol\":1091:1097  voters */\n      0x02\n        /* \"Election.sol\":1091:1109  voters[msg.sender] */\n      0x00\n        /* \"Election.sol\":1098:1108  msg.sender */\n      caller\n        /* \"Election.sol\":1091:1109  voters[msg.sender] */\n      0xffffffffffffffffffffffffffffffffffffffff\n      and\n      0xffffffffffffffffffffffffffffffffffffffff\n      and\n      dup2\n      mstore\n      0x20\n      add\n      swap1\n      dup2\n      mstore\n      0x20\n      add\n      0x00\n      keccak256\n        /* \"Election.sol\":1091:1120  voters[msg.sender].authorised */\n      0x01\n      add\n      0x00\n      swap1\n      sload\n      swap1\n      0x0100\n      exp\n      swap1\n      div\n      0xff\n      and\n        /* \"Election.sol\":1083:1121  require(voters[msg.sender].authorised) */\n      tag_56\n      jumpi\n      0x00\n      dup1\n      revert\n    tag_56:\n        /* \"Election.sol\":1964:1978  candidateIndex */\n      dup1\n        /* \"Election.sol\":1938:1944  voters */\n      0x02\n        /* \"Election.sol\":1938:1956  voters[msg.sender] */\n      0x00\n        /* \"Election.sol\":1945:1955  msg.sender */\n      caller\n        /* \"Election.sol\":1938:1956  voters[msg.sender] */\n      0xffffffffffffffffffffffffffffffffffffffff\n      and\n      0xffffffffffffffffffffffffffffffffffffffff\n      and\n      dup2\n      mstore\n      0x20\n      add\n      swap1\n      dup2\n      mstore\n      0x20\n      add\n      0x00\n      keccak256\n        /* \"Election.sol\":1938:1961  voters[msg.sender].whom */\n      0x02\n      add\n        /* \"Election.sol\":1938:1978  voters[msg.sender].whom = candidateIndex */\n      dup2\n      swap1\n      sstore\n      pop\n        /* \"Election.sol\":2015:2019  true */\n      0x01\n        /* \"Election.sol\":1988:1994  voters */\n      0x02\n        /* \"Election.sol\":1988:2006  voters[msg.sender] */\n      0x00\n        /* \"Election.sol\":1995:2005  msg.sender */\n      caller\n        /* \"Election.sol\":1988:2006  voters[msg.sender] */\n      0xffffffffffffffffffffffffffffffffffffffff\n      and\n      0xffffffffffffffffffffffffffffffffffffffff\n      and\n      dup2\n      mstore\n      0x20\n      add\n      swap1\n      dup2\n      mstore\n      0x20\n      add\n      0x00\n      keccak256\n        /* \"Election.sol\":1988:2012  voters[msg.sender].voted */\n      0x03\n      add\n      0x00\n        /* \"Election.sol\":1988:2019  voters[msg.sender].voted = true */\n      0x0100\n      exp\n      dup2\n      sload\n      dup2\n      0xff\n      mul\n      not\n      and\n      swap1\n      dup4\n      iszero\n      iszero\n      mul\n      or\n      swap1\n      sstore\n      pop\n        /* \"Election.sol\":2029:2039  candidates */\n      0x03\n        /* \"Election.sol\":2040:2054  candidateIndex */\n      dup2\n        /* \"Election.sol\":2029:2055  candidates[candidateIndex] */\n      dup2\n      sload\n      dup2\n      lt\n      tag_58\n      jumpi\n      tag_59\n      tag_60\n      jump\t// in\n    tag_59:\n    tag_58:\n      swap1\n      0x00\n      mstore\n      keccak256(0x00, 0x20)\n      swap1\n      0x02\n      mul\n      add\n        /* \"Election.sol\":2029:2064  candidates[candidateIndex].numVotes */\n      0x01\n      add\n      0x00\n        /* \"Election.sol\":2029:2066  candidates[candidateIndex].numVotes++ */\n      dup2\n      sload\n      dup1\n      swap3\n      swap2\n      swap1\n      tag_62\n      swap1\n      tag_63\n      jump\t// in\n    tag_62:\n      swap2\n      swap1\n      pop\n      sstore\n      pop\n        /* \"Election.sol\":2076:2086  totalVotes */\n      0x04\n      0x00\n        /* \"Election.sol\":2076:2088  totalVotes++ */\n      dup2\n      sload\n      dup1\n      swap3\n      swap2\n      swap1\n      tag_64\n      swap1\n      tag_63\n      jump\t// in\n    tag_64:\n      swap2\n      swap1\n      pop\n      sstore\n      pop\n        /* \"Election.sol\":1873:2096  function vote(uint candidateIndex)  alreadyVoted public{... */\n      pop\n      jump\t// out\n        /* \"Election.sol\":779:801  uint public totalVotes */\n    tag_19:\n      sload(0x04)\n      dup2\n      jump\t// out\n        /* \"Election.sol\":708:737  Candidate[] public candidates */\n    tag_24:\n      0x03\n      dup2\n      dup2\n      sload\n      dup2\n      lt\n      tag_65\n      jumpi\n      0x00\n      dup1\n      revert\n    tag_65:\n      swap1\n      0x00\n      mstore\n      keccak256(0x00, 0x20)\n      swap1\n      0x02\n      mul\n      add\n      0x00\n      swap2\n      pop\n      swap1\n      pop\n      dup1\n      0x00\n      add\n      dup1\n      sload\n      tag_67\n      swap1\n      tag_68\n      jump\t// in\n    tag_67:\n      dup1\n      0x1f\n      add\n      0x20\n      dup1\n      swap2\n      div\n      mul\n      0x20\n      add\n      mload(0x40)\n      swap1\n      dup2\n      add\n      0x40\n      mstore\n      dup1\n      swap3\n      swap2\n      swap1\n      dup2\n      dup2\n      mstore\n      0x20\n      add\n      dup3\n      dup1\n      sload\n      tag_69\n      swap1\n      tag_68\n      jump\t// in\n    tag_69:\n      dup1\n      iszero\n      tag_70\n      jumpi\n      dup1\n      0x1f\n      lt\n      tag_71\n      jumpi\n      0x0100\n      dup1\n      dup4\n      sload\n      div\n      mul\n      dup4\n      mstore\n      swap2\n      0x20\n      add\n      swap2\n      jump(tag_70)\n    tag_71:\n      dup3\n      add\n      swap2\n      swap1\n      0x00\n      mstore\n      keccak256(0x00, 0x20)\n      swap1\n    tag_72:\n      dup2\n      sload\n      dup2\n      mstore\n      swap1\n      0x01\n      add\n      swap1\n      0x20\n      add\n      dup1\n      dup4\n      gt\n      tag_72\n      jumpi\n      dup3\n      swap1\n      sub\n      0x1f\n      and\n      dup3\n      add\n      swap2\n    tag_70:\n      pop\n      pop\n      pop\n      pop\n      pop\n      swap1\n      dup1\n      0x01\n      add\n      sload\n      swap1\n      pop\n      dup3\n      jump\t// out\n        /* \"Election.sol\":1379:1541  function addCandidate(string memory _candidateName) ownerOnly public{... */\n    tag_30:\n        /* \"Election.sol\":919:924  owner */\n      0x00\n      dup1\n      sload\n      swap1\n      0x0100\n      exp\n      swap1\n      div\n      0xffffffffffffffffffffffffffffffffffffffff\n      and\n        /* \"Election.sol\":905:924  msg.sender == owner */\n      0xffffffffffffffffffffffffffffffffffffffff\n      and\n        /* \"Election.sol\":905:915  msg.sender */\n      caller\n        /* \"Election.sol\":905:924  msg.sender == owner */\n      0xffffffffffffffffffffffffffffffffffffffff\n      and\n      eq\n        /* \"Election.sol\":897:925  require(msg.sender == owner) */\n      tag_74\n      jumpi\n      0x00\n      dup1\n      revert\n    tag_74:\n        /* \"Election.sol\":1488:1498  candidates */\n      0x03\n        /* \"Election.sol\":1504:1532  Candidate(_candidateName, 0) */\n      mload(0x40)\n      dup1\n      0x40\n      add\n      0x40\n      mstore\n      dup1\n        /* \"Election.sol\":1514:1528  _candidateName */\n      dup4\n        /* \"Election.sol\":1504:1532  Candidate(_candidateName, 0) */\n      dup2\n      mstore\n      0x20\n      add\n        /* \"Election.sol\":1530:1531  0 */\n      0x00\n        /* \"Election.sol\":1504:1532  Candidate(_candidateName, 0) */\n      dup2\n      mstore\n      pop\n        /* \"Election.sol\":1488:1533  candidates.push(Candidate(_candidateName, 0)) */\n      swap1\n      dup1\n      0x01\n      dup2\n      sload\n      add\n      dup1\n      dup3\n      sstore\n      dup1\n      swap2\n      pop\n      pop\n      0x01\n      swap1\n      sub\n      swap1\n      0x00\n      mstore\n      keccak256(0x00, 0x20)\n      swap1\n      0x02\n      mul\n      add\n      0x00\n      swap1\n      swap2\n      swap1\n      swap2\n      swap1\n      swap2\n      pop\n      0x00\n      dup3\n      add\n      mload\n      dup2\n      0x00\n      add\n      swap1\n      dup1\n      mload\n      swap1\n      0x20\n      add\n      swap1\n      tag_77\n      swap3\n      swap2\n      swap1\n      tag_78\n      jump\t// in\n    tag_77:\n      pop\n      0x20\n      dup3\n      add\n      mload\n      dup2\n      0x01\n      add\n      sstore\n      pop\n      pop\n        /* \"Election.sol\":1379:1541  function addCandidate(string memory _candidateName) ownerOnly public{... */\n      pop\n      jump\t// out\n        /* \"Election.sol\":1760:1854  function getNumCandidates() public view returns(uint){... */\n    tag_32:\n        /* \"Election.sol\":1808:1812  uint */\n      0x00\n        /* \"Election.sol\":1830:1840  candidates */\n      0x03\n        /* \"Election.sol\":1830:1847  candidates.length */\n      dup1\n      sload\n      swap1\n      pop\n        /* \"Election.sol\":1823:1847  return candidates.length */\n      swap1\n      pop\n        /* \"Election.sol\":1760:1854  function getNumCandidates() public view returns(uint){... */\n      swap1\n      jump\t// out\n        /* \"Election.sol\":602:628  string public electionName */\n    tag_35:\n      0x01\n      dup1\n      sload\n      tag_80\n      swap1\n      tag_68\n      jump\t// in\n    tag_80:\n      dup1\n      0x1f\n      add\n      0x20\n      dup1\n      swap2\n      div\n      mul\n      0x20\n      add\n      mload(0x40)\n      swap1\n      dup2\n      add\n      0x40\n      mstore\n      dup1\n      swap3\n      swap2\n      swap1\n      dup2\n      dup2\n      mstore\n      0x20\n      add\n      dup3\n      dup1\n      sload\n      tag_81\n      swap1\n      tag_68\n      jump\t// in\n    tag_81:\n      dup1\n      iszero\n      tag_82\n      jumpi\n      dup1\n      0x1f\n      lt\n      tag_83\n      jumpi\n      0x0100\n      dup1\n      dup4\n      sload\n      div\n      mul\n      dup4\n      mstore\n      swap2\n      0x20\n      add\n      swap2\n      jump(tag_82)\n    tag_83:\n      dup3\n      add\n      swap2\n      swap1\n      0x00\n      mstore\n      keccak256(0x00, 0x20)\n      swap1\n    tag_84:\n      dup2\n      sload\n      dup2\n      mstore\n      swap1\n      0x01\n      add\n      swap1\n      0x20\n      add\n      dup1\n      dup4\n      gt\n      tag_84\n      jumpi\n      dup3\n      swap1\n      sub\n      0x1f\n      and\n      dup3\n      add\n      swap2\n    tag_82:\n      pop\n      pop\n      pop\n      pop\n      pop\n      dup2\n      jump\t// out\n        /* \"Election.sol\":548:568  address public owner */\n    tag_39:\n      0x00\n      dup1\n      sload\n      swap1\n      0x0100\n      exp\n      swap1\n      div\n      0xffffffffffffffffffffffffffffffffffffffff\n      and\n      dup2\n      jump\t// out\n        /* \"Election.sol\":635:674  mapping(address => Voter) public voters */\n    tag_45:\n      mstore(0x20, 0x02)\n      dup1\n      0x00\n      mstore\n      keccak256(0x00, 0x40)\n      0x00\n      swap2\n      pop\n      swap1\n      pop\n      dup1\n      0x00\n      add\n      dup1\n      sload\n      tag_85\n      swap1\n      tag_68\n      jump\t// in\n    tag_85:\n      dup1\n      0x1f\n      add\n      0x20\n      dup1\n      swap2\n      div\n      mul\n      0x20\n      add\n      mload(0x40)\n      swap1\n      dup2\n      add\n      0x40\n      mstore\n      dup1\n      swap3\n      swap2\n      swap1\n      dup2\n      dup2\n      mstore\n      0x20\n      add\n      dup3\n      dup1\n      sload\n      tag_86\n      swap1\n      tag_68\n      jump\t// in\n    tag_86:\n      dup1\n      iszero\n      tag_87\n      jumpi\n      dup1\n      0x1f\n      lt\n      tag_88\n      jumpi\n      0x0100\n      dup1\n      dup4\n      sload\n      div\n      mul\n      dup4\n      mstore\n      swap2\n      0x20\n      add\n      swap2\n      jump(tag_87)\n    tag_88:\n      dup3\n      add\n      swap2\n      swap1\n      0x00\n      mstore\n      keccak256(0x00, 0x20)\n      swap1\n    tag_89:\n      dup2\n      sload\n      dup2\n      mstore\n      swap1\n      0x01\n      add\n      swap1\n      0x20\n      add\n      dup1\n      dup4\n      gt\n      tag_89\n      jumpi\n      dup3\n      swap1\n      sub\n      0x1f\n      and\n      dup3\n      add\n      swap2\n    tag_87:\n      pop\n      pop\n      pop\n      pop\n      pop\n      swap1\n      dup1\n      0x01\n      add\n      0x00\n      swap1\n      sload\n      swap1\n      0x0100\n      exp\n      swap1\n      div\n      0xff\n      and\n      swap1\n      dup1\n      0x02\n      add\n      sload\n      swap1\n      dup1\n      0x03\n      add\n      0x00\n      swap1\n      sload\n      swap1\n      0x0100\n      exp\n      swap1\n      div\n      0xff\n      and\n      swap1\n      pop\n      dup5\n      jump\t// out\n        /* \"Election.sol\":1144:1373  function startElection(string memory _electionName) public {... */\n    tag_50:\n        /* \"Election.sol\":1315:1325  msg.sender */\n      caller\n        /* \"Election.sol\":1307:1312  owner */\n      0x00\n      dup1\n        /* \"Election.sol\":1307:1325  owner = msg.sender */\n      0x0100\n      exp\n      dup2\n      sload\n      dup2\n      0xffffffffffffffffffffffffffffffffffffffff\n      mul\n      not\n      and\n      swap1\n      dup4\n      0xffffffffffffffffffffffffffffffffffffffff\n      and\n      mul\n      or\n      swap1\n      sstore\n      pop\n        /* \"Election.sol\":1351:1364  _electionName */\n      dup1\n        /* \"Election.sol\":1336:1348  electionName */\n      0x01\n        /* \"Election.sol\":1336:1364  electionName = _electionName */\n      swap1\n      dup1\n      mload\n      swap1\n      0x20\n      add\n      swap1\n      tag_91\n      swap3\n      swap2\n      swap1\n      tag_78\n      jump\t// in\n    tag_91:\n      pop\n        /* \"Election.sol\":1144:1373  function startElection(string memory _electionName) public {... */\n      pop\n      jump\t// out\n        /* \"Election.sol\":1603:1722  function authorizeVoter(address _voterAddress) ownerOnly public{... */\n    tag_53:\n        /* \"Election.sol\":919:924  owner */\n      0x00\n      dup1\n      sload\n      swap1\n      0x0100\n      exp\n      swap1\n      div\n      0xffffffffffffffffffffffffffffffffffffffff\n      and\n        /* \"Election.sol\":905:924  msg.sender == owner */\n      0xffffffffffffffffffffffffffffffffffffffff\n      and\n        /* \"Election.sol\":905:915  msg.sender */\n      caller\n        /* \"Election.sol\":905:924  msg.sender == owner */\n      0xffffffffffffffffffffffffffffffffffffffff\n      and\n      eq\n        /* \"Election.sol\":897:925  require(msg.sender == owner) */\n      tag_93\n      jumpi\n      0x00\n      dup1\n      revert\n    tag_93:\n        /* \"Election.sol\":1711:1715  true */\n      0x01\n        /* \"Election.sol\":1676:1682  voters */\n      0x02\n        /* \"Election.sol\":1676:1697  voters[_voterAddress] */\n      0x00\n        /* \"Election.sol\":1683:1696  _voterAddress */\n      dup4\n        /* \"Election.sol\":1676:1697  voters[_voterAddress] */\n      0xffffffffffffffffffffffffffffffffffffffff\n      and\n      0xffffffffffffffffffffffffffffffffffffffff\n      and\n      dup2\n      mstore\n      0x20\n      add\n      swap1\n      dup2\n      mstore\n      0x20\n      add\n      0x00\n      keccak256\n        /* \"Election.sol\":1676:1708  voters[_voterAddress].authorised */\n      0x01\n      add\n      0x00\n        /* \"Election.sol\":1676:1715  voters[_voterAddress].authorised = true */\n      0x0100\n      exp\n      dup2\n      sload\n      dup2\n      0xff\n      mul\n      not\n      and\n      swap1\n      dup4\n      iszero\n      iszero\n      mul\n      or\n      swap1\n      sstore\n      pop\n        /* \"Election.sol\":1603:1722  function authorizeVoter(address _voterAddress) ownerOnly public{... */\n      pop\n      jump\t// out\n    tag_78:\n      dup3\n      dup1\n      sload\n      tag_95\n      swap1\n      tag_68\n      jump\t// in\n    tag_95:\n      swap1\n      0x00\n      mstore\n      keccak256(0x00, 0x20)\n      swap1\n      0x1f\n      add\n      0x20\n      swap1\n      div\n      dup2\n      add\n      swap3\n      dup3\n      tag_97\n      jumpi\n      0x00\n      dup6\n      sstore\n      jump(tag_96)\n    tag_97:\n      dup3\n      0x1f\n      lt\n      tag_98\n      jumpi\n      dup1\n      mload\n      not(0xff)\n      and\n      dup4\n      dup1\n      add\n      or\n      dup6\n      sstore\n      jump(tag_96)\n    tag_98:\n      dup3\n      dup1\n      add\n      0x01\n      add\n      dup6\n      sstore\n      dup3\n      iszero\n      tag_96\n      jumpi\n      swap2\n      dup3\n      add\n    tag_99:\n      dup3\n      dup2\n      gt\n      iszero\n      tag_100\n      jumpi\n      dup3\n      mload\n      dup3\n      sstore\n      swap2\n      0x20\n      add\n      swap2\n      swap1\n      0x01\n      add\n      swap1\n      jump(tag_99)\n    tag_100:\n    tag_96:\n      pop\n      swap1\n      pop\n      tag_101\n      swap2\n      swap1\n      tag_102\n      jump\t// in\n    tag_101:\n      pop\n      swap1\n      jump\t// out\n    tag_102:\n    tag_103:\n      dup1\n      dup3\n      gt\n      iszero\n      tag_104\n      jumpi\n      0x00\n      dup2\n      0x00\n      swap1\n      sstore\n      pop\n      0x01\n      add\n      jump(tag_103)\n    tag_104:\n      pop\n      swap1\n      jump\t// out\n        /* \"#utility.yul\":7:419   */\n    tag_106:\n        /* \"#utility.yul\":85:90   */\n      0x00\n        /* \"#utility.yul\":110:176   */\n      tag_108\n        /* \"#utility.yul\":126:175   */\n      tag_109\n        /* \"#utility.yul\":168:174   */\n      dup5\n        /* \"#utility.yul\":126:175   */\n      tag_110\n      jump\t// in\n    tag_109:\n        /* \"#utility.yul\":110:176   */\n      tag_111\n      jump\t// in\n    tag_108:\n        /* \"#utility.yul\":101:176   */\n      swap1\n      pop\n        /* \"#utility.yul\":199:205   */\n      dup3\n        /* \"#utility.yul\":192:197   */\n      dup2\n        /* \"#utility.yul\":185:206   */\n      mstore\n        /* \"#utility.yul\":237:241   */\n      0x20\n        /* \"#utility.yul\":230:235   */\n      dup2\n        /* \"#utility.yul\":226:242   */\n      add\n        /* \"#utility.yul\":275:278   */\n      dup5\n        /* \"#utility.yul\":266:272   */\n      dup5\n        /* \"#utility.yul\":261:264   */\n      dup5\n        /* \"#utility.yul\":257:273   */\n      add\n        /* \"#utility.yul\":254:279   */\n      gt\n        /* \"#utility.yul\":251:363   */\n      iszero\n      tag_112\n      jumpi\n        /* \"#utility.yul\":282:361   */\n      tag_113\n      tag_114\n      jump\t// in\n    tag_113:\n        /* \"#utility.yul\":251:363   */\n    tag_112:\n        /* \"#utility.yul\":372:413   */\n      tag_115\n        /* \"#utility.yul\":406:412   */\n      dup5\n        /* \"#utility.yul\":401:404   */\n      dup3\n        /* \"#utility.yul\":396:399   */\n      dup6\n        /* \"#utility.yul\":372:413   */\n      tag_116\n      jump\t// in\n    tag_115:\n        /* \"#utility.yul\":91:419   */\n      pop\n        /* \"#utility.yul\":7:419   */\n      swap4\n      swap3\n      pop\n      pop\n      pop\n      jump\t// out\n        /* \"#utility.yul\":425:564   */\n    tag_117:\n        /* \"#utility.yul\":471:476   */\n      0x00\n        /* \"#utility.yul\":509:515   */\n      dup2\n        /* \"#utility.yul\":496:516   */\n      calldataload\n        /* \"#utility.yul\":487:516   */\n      swap1\n      pop\n        /* \"#utility.yul\":525:558   */\n      tag_119\n        /* \"#utility.yul\":552:557   */\n      dup2\n        /* \"#utility.yul\":525:558   */\n      tag_120\n      jump\t// in\n    tag_119:\n        /* \"#utility.yul\":425:564   */\n      swap3\n      swap2\n      pop\n      pop\n      jump\t// out\n        /* \"#utility.yul\":584:924   */\n    tag_121:\n        /* \"#utility.yul\":640:645   */\n      0x00\n        /* \"#utility.yul\":689:692   */\n      dup3\n        /* \"#utility.yul\":682:686   */\n      0x1f\n        /* \"#utility.yul\":674:680   */\n      dup4\n        /* \"#utility.yul\":670:687   */\n      add\n        /* \"#utility.yul\":666:693   */\n      slt\n        /* \"#utility.yul\":656:778   */\n      tag_123\n      jumpi\n        /* \"#utility.yul\":697:776   */\n      tag_124\n      tag_125\n      jump\t// in\n    tag_124:\n        /* \"#utility.yul\":656:778   */\n    tag_123:\n        /* \"#utility.yul\":814:820   */\n      dup2\n        /* \"#utility.yul\":801:821   */\n      calldataload\n        /* \"#utility.yul\":839:918   */\n      tag_126\n        /* \"#utility.yul\":914:917   */\n      dup5\n        /* \"#utility.yul\":906:912   */\n      dup3\n        /* \"#utility.yul\":899:903   */\n      0x20\n        /* \"#utility.yul\":891:897   */\n      dup7\n        /* \"#utility.yul\":887:904   */\n      add\n        /* \"#utility.yul\":839:918   */\n      tag_106\n      jump\t// in\n    tag_126:\n        /* \"#utility.yul\":830:918   */\n      swap2\n      pop\n        /* \"#utility.yul\":646:924   */\n      pop\n        /* \"#utility.yul\":584:924   */\n      swap3\n      swap2\n      pop\n      pop\n      jump\t// out\n        /* \"#utility.yul\":930:1069   */\n    tag_127:\n        /* \"#utility.yul\":976:981   */\n      0x00\n        /* \"#utility.yul\":1014:1020   */\n      dup2\n        /* \"#utility.yul\":1001:1021   */\n      calldataload\n        /* \"#utility.yul\":992:1021   */\n      swap1\n      pop\n        /* \"#utility.yul\":1030:1063   */\n      tag_129\n        /* \"#utility.yul\":1057:1062   */\n      dup2\n        /* \"#utility.yul\":1030:1063   */\n      tag_130\n      jump\t// in\n    tag_129:\n        /* \"#utility.yul\":930:1069   */\n      swap3\n      swap2\n      pop\n      pop\n      jump\t// out\n        /* \"#utility.yul\":1075:1404   */\n    tag_44:\n        /* \"#utility.yul\":1134:1140   */\n      0x00\n        /* \"#utility.yul\":1183:1185   */\n      0x20\n        /* \"#utility.yul\":1171:1180   */\n      dup3\n        /* \"#utility.yul\":1162:1169   */\n      dup5\n        /* \"#utility.yul\":1158:1181   */\n      sub\n        /* \"#utility.yul\":1154:1186   */\n      slt\n        /* \"#utility.yul\":1151:1270   */\n      iszero\n      tag_132\n      jumpi\n        /* \"#utility.yul\":1189:1268   */\n      tag_133\n      tag_134\n      jump\t// in\n    tag_133:\n        /* \"#utility.yul\":1151:1270   */\n    tag_132:\n        /* \"#utility.yul\":1309:1310   */\n      0x00\n        /* \"#utility.yul\":1334:1387   */\n      tag_135\n        /* \"#utility.yul\":1379:1386   */\n      dup5\n        /* \"#utility.yul\":1370:1376   */\n      dup3\n        /* \"#utility.yul\":1359:1368   */\n      dup6\n        /* \"#utility.yul\":1355:1377   */\n      add\n        /* \"#utility.yul\":1334:1387   */\n      tag_117\n      jump\t// in\n    tag_135:\n        /* \"#utility.yul\":1324:1387   */\n      swap2\n      pop\n        /* \"#utility.yul\":1280:1397   */\n      pop\n        /* \"#utility.yul\":1075:1404   */\n      swap3\n      swap2\n      pop\n      pop\n      jump\t// out\n        /* \"#utility.yul\":1410:1919   */\n    tag_29:\n        /* \"#utility.yul\":1479:1485   */\n      0x00\n        /* \"#utility.yul\":1528:1530   */\n      0x20\n        /* \"#utility.yul\":1516:1525   */\n      dup3\n        /* \"#utility.yul\":1507:1514   */\n      dup5\n        /* \"#utility.yul\":1503:1526   */\n      sub\n        /* \"#utility.yul\":1499:1531   */\n      slt\n        /* \"#utility.yul\":1496:1615   */\n      iszero\n      tag_137\n      jumpi\n        /* \"#utility.yul\":1534:1613   */\n      tag_138\n      tag_134\n      jump\t// in\n    tag_138:\n        /* \"#utility.yul\":1496:1615   */\n    tag_137:\n        /* \"#utility.yul\":1682:1683   */\n      0x00\n        /* \"#utility.yul\":1671:1680   */\n      dup3\n        /* \"#utility.yul\":1667:1684   */\n      add\n        /* \"#utility.yul\":1654:1685   */\n      calldataload\n        /* \"#utility.yul\":1712:1730   */\n      0xffffffffffffffff\n        /* \"#utility.yul\":1704:1710   */\n      dup2\n        /* \"#utility.yul\":1701:1731   */\n      gt\n        /* \"#utility.yul\":1698:1815   */\n      iszero\n      tag_139\n      jumpi\n        /* \"#utility.yul\":1734:1813   */\n      tag_140\n      tag_141\n      jump\t// in\n    tag_140:\n        /* \"#utility.yul\":1698:1815   */\n    tag_139:\n        /* \"#utility.yul\":1839:1902   */\n      tag_142\n        /* \"#utility.yul\":1894:1901   */\n      dup5\n        /* \"#utility.yul\":1885:1891   */\n      dup3\n        /* \"#utility.yul\":1874:1883   */\n      dup6\n        /* \"#utility.yul\":1870:1892   */\n      add\n        /* \"#utility.yul\":1839:1902   */\n      tag_121\n      jump\t// in\n    tag_142:\n        /* \"#utility.yul\":1829:1902   */\n      swap2\n      pop\n        /* \"#utility.yul\":1625:1912   */\n      pop\n        /* \"#utility.yul\":1410:1919   */\n      swap3\n      swap2\n      pop\n      pop\n      jump\t// out\n        /* \"#utility.yul\":1925:2254   */\n    tag_16:\n        /* \"#utility.yul\":1984:1990   */\n      0x00\n        /* \"#utility.yul\":2033:2035   */\n      0x20\n        /* \"#utility.yul\":2021:2030   */\n      dup3\n        /* \"#utility.yul\":2012:2019   */\n      dup5\n        /* \"#utility.yul\":2008:2031   */\n      sub\n        /* \"#utility.yul\":2004:2036   */\n      slt\n        /* \"#utility.yul\":2001:2120   */\n      iszero\n      tag_144\n      jumpi\n        /* \"#utility.yul\":2039:2118   */\n      tag_145\n      tag_134\n      jump\t// in\n    tag_145:\n        /* \"#utility.yul\":2001:2120   */\n    tag_144:\n        /* \"#utility.yul\":2159:2160   */\n      0x00\n        /* \"#utility.yul\":2184:2237   */\n      tag_146\n        /* \"#utility.yul\":2229:2236   */\n      dup5\n        /* \"#utility.yul\":2220:2226   */\n      dup3\n        /* \"#utility.yul\":2209:2218   */\n      dup6\n        /* \"#utility.yul\":2205:2227   */\n      add\n        /* \"#utility.yul\":2184:2237   */\n      tag_127\n      jump\t// in\n    tag_146:\n        /* \"#utility.yul\":2174:2237   */\n      swap2\n      pop\n        /* \"#utility.yul\":2130:2247   */\n      pop\n        /* \"#utility.yul\":1925:2254   */\n      swap3\n      swap2\n      pop\n      pop\n      jump\t// out\n        /* \"#utility.yul\":2260:2378   */\n    tag_147:\n        /* \"#utility.yul\":2347:2371   */\n      tag_149\n        /* \"#utility.yul\":2365:2370   */\n      dup2\n        /* \"#utility.yul\":2347:2371   */\n      tag_150\n      jump\t// in\n    tag_149:\n        /* \"#utility.yul\":2342:2345   */\n      dup3\n        /* \"#utility.yul\":2335:2372   */\n      mstore\n        /* \"#utility.yul\":2260:2378   */\n      pop\n      pop\n      jump\t// out\n        /* \"#utility.yul\":2384:2493   */\n    tag_151:\n        /* \"#utility.yul\":2465:2486   */\n      tag_153\n        /* \"#utility.yul\":2480:2485   */\n      dup2\n        /* \"#utility.yul\":2465:2486   */\n      tag_154\n      jump\t// in\n    tag_153:\n        /* \"#utility.yul\":2460:2463   */\n      dup3\n        /* \"#utility.yul\":2453:2487   */\n      mstore\n        /* \"#utility.yul\":2384:2493   */\n      pop\n      pop\n      jump\t// out\n        /* \"#utility.yul\":2499:2863   */\n    tag_155:\n        /* \"#utility.yul\":2587:2590   */\n      0x00\n        /* \"#utility.yul\":2615:2654   */\n      tag_157\n        /* \"#utility.yul\":2648:2653   */\n      dup3\n        /* \"#utility.yul\":2615:2654   */\n      tag_158\n      jump\t// in\n    tag_157:\n        /* \"#utility.yul\":2670:2741   */\n      tag_159\n        /* \"#utility.yul\":2734:2740   */\n      dup2\n        /* \"#utility.yul\":2729:2732   */\n      dup6\n        /* \"#utility.yul\":2670:2741   */\n      tag_160\n      jump\t// in\n    tag_159:\n        /* \"#utility.yul\":2663:2741   */\n      swap4\n      pop\n        /* \"#utility.yul\":2750:2802   */\n      tag_161\n        /* \"#utility.yul\":2795:2801   */\n      dup2\n        /* \"#utility.yul\":2790:2793   */\n      dup6\n        /* \"#utility.yul\":2783:2787   */\n      0x20\n        /* \"#utility.yul\":2776:2781   */\n      dup7\n        /* \"#utility.yul\":2772:2788   */\n      add\n        /* \"#utility.yul\":2750:2802   */\n      tag_162\n      jump\t// in\n    tag_161:\n        /* \"#utility.yul\":2827:2856   */\n      tag_163\n        /* \"#utility.yul\":2849:2855   */\n      dup2\n        /* \"#utility.yul\":2827:2856   */\n      tag_164\n      jump\t// in\n    tag_163:\n        /* \"#utility.yul\":2822:2825   */\n      dup5\n        /* \"#utility.yul\":2818:2857   */\n      add\n        /* \"#utility.yul\":2811:2857   */\n      swap2\n      pop\n        /* \"#utility.yul\":2591:2863   */\n      pop\n        /* \"#utility.yul\":2499:2863   */\n      swap3\n      swap2\n      pop\n      pop\n      jump\t// out\n        /* \"#utility.yul\":2869:2987   */\n    tag_165:\n        /* \"#utility.yul\":2956:2980   */\n      tag_167\n        /* \"#utility.yul\":2974:2979   */\n      dup2\n        /* \"#utility.yul\":2956:2980   */\n      tag_168\n      jump\t// in\n    tag_167:\n        /* \"#utility.yul\":2951:2954   */\n      dup3\n        /* \"#utility.yul\":2944:2981   */\n      mstore\n        /* \"#utility.yul\":2869:2987   */\n      pop\n      pop\n      jump\t// out\n        /* \"#utility.yul\":2993:3215   */\n    tag_41:\n        /* \"#utility.yul\":3086:3090   */\n      0x00\n        /* \"#utility.yul\":3124:3126   */\n      0x20\n        /* \"#utility.yul\":3113:3122   */\n      dup3\n        /* \"#utility.yul\":3109:3127   */\n      add\n        /* \"#utility.yul\":3101:3127   */\n      swap1\n      pop\n        /* \"#utility.yul\":3137:3208   */\n      tag_170\n        /* \"#utility.yul\":3205:3206   */\n      0x00\n        /* \"#utility.yul\":3194:3203   */\n      dup4\n        /* \"#utility.yul\":3190:3207   */\n      add\n        /* \"#utility.yul\":3181:3187   */\n      dup5\n        /* \"#utility.yul\":3137:3208   */\n      tag_147\n      jump\t// in\n    tag_170:\n        /* \"#utility.yul\":2993:3215   */\n      swap3\n      swap2\n      pop\n      pop\n      jump\t// out\n        /* \"#utility.yul\":3221:3534   */\n    tag_37:\n        /* \"#utility.yul\":3334:3338   */\n      0x00\n        /* \"#utility.yul\":3372:3374   */\n      0x20\n        /* \"#utility.yul\":3361:3370   */\n      dup3\n        /* \"#utility.yul\":3357:3375   */\n      add\n        /* \"#utility.yul\":3349:3375   */\n      swap1\n      pop\n        /* \"#utility.yul\":3421:3430   */\n      dup2\n        /* \"#utility.yul\":3415:3419   */\n      dup2\n        /* \"#utility.yul\":3411:3431   */\n      sub\n        /* \"#utility.yul\":3407:3408   */\n      0x00\n        /* \"#utility.yul\":3396:3405   */\n      dup4\n        /* \"#utility.yul\":3392:3409   */\n      add\n        /* \"#utility.yul\":3385:3432   */\n      mstore\n        /* \"#utility.yul\":3449:3527   */\n      tag_172\n        /* \"#utility.yul\":3522:3526   */\n      dup2\n        /* \"#utility.yul\":3513:3519   */\n      dup5\n        /* \"#utility.yul\":3449:3527   */\n      tag_155\n      jump\t// in\n    tag_172:\n        /* \"#utility.yul\":3441:3527   */\n      swap1\n      pop\n        /* \"#utility.yul\":3221:3534   */\n      swap3\n      swap2\n      pop\n      pop\n      jump\t// out\n        /* \"#utility.yul\":3540:4160   */\n    tag_47:\n        /* \"#utility.yul\":3725:3729   */\n      0x00\n        /* \"#utility.yul\":3763:3766   */\n      0x80\n        /* \"#utility.yul\":3752:3761   */\n      dup3\n        /* \"#utility.yul\":3748:3767   */\n      add\n        /* \"#utility.yul\":3740:3767   */\n      swap1\n      pop\n        /* \"#utility.yul\":3813:3822   */\n      dup2\n        /* \"#utility.yul\":3807:3811   */\n      dup2\n        /* \"#utility.yul\":3803:3823   */\n      sub\n        /* \"#utility.yul\":3799:3800   */\n      0x00\n        /* \"#utility.yul\":3788:3797   */\n      dup4\n        /* \"#utility.yul\":3784:3801   */\n      add\n        /* \"#utility.yul\":3777:3824   */\n      mstore\n        /* \"#utility.yul\":3841:3919   */\n      tag_174\n        /* \"#utility.yul\":3914:3918   */\n      dup2\n        /* \"#utility.yul\":3905:3911   */\n      dup8\n        /* \"#utility.yul\":3841:3919   */\n      tag_155\n      jump\t// in\n    tag_174:\n        /* \"#utility.yul\":3833:3919   */\n      swap1\n      pop\n        /* \"#utility.yul\":3929:3995   */\n      tag_175\n        /* \"#utility.yul\":3991:3993   */\n      0x20\n        /* \"#utility.yul\":3980:3989   */\n      dup4\n        /* \"#utility.yul\":3976:3994   */\n      add\n        /* \"#utility.yul\":3967:3973   */\n      dup7\n        /* \"#utility.yul\":3929:3995   */\n      tag_151\n      jump\t// in\n    tag_175:\n        /* \"#utility.yul\":4005:4077   */\n      tag_176\n        /* \"#utility.yul\":4073:4075   */\n      0x40\n        /* \"#utility.yul\":4062:4071   */\n      dup4\n        /* \"#utility.yul\":4058:4076   */\n      add\n        /* \"#utility.yul\":4049:4055   */\n      dup6\n        /* \"#utility.yul\":4005:4077   */\n      tag_165\n      jump\t// in\n    tag_176:\n        /* \"#utility.yul\":4087:4153   */\n      tag_177\n        /* \"#utility.yul\":4149:4151   */\n      0x60\n        /* \"#utility.yul\":4138:4147   */\n      dup4\n        /* \"#utility.yul\":4134:4152   */\n      add\n        /* \"#utility.yul\":4125:4131   */\n      dup5\n        /* \"#utility.yul\":4087:4153   */\n      tag_151\n      jump\t// in\n    tag_177:\n        /* \"#utility.yul\":3540:4160   */\n      swap6\n      swap5\n      pop\n      pop\n      pop\n      pop\n      pop\n      jump\t// out\n        /* \"#utility.yul\":4166:4589   */\n    tag_26:\n        /* \"#utility.yul\":4307:4311   */\n      0x00\n        /* \"#utility.yul\":4345:4347   */\n      0x40\n        /* \"#utility.yul\":4334:4343   */\n      dup3\n        /* \"#utility.yul\":4330:4348   */\n      add\n        /* \"#utility.yul\":4322:4348   */\n      swap1\n      pop\n        /* \"#utility.yul\":4394:4403   */\n      dup2\n        /* \"#utility.yul\":4388:4392   */\n      dup2\n        /* \"#utility.yul\":4384:4404   */\n      sub\n        /* \"#utility.yul\":4380:4381   */\n      0x00\n        /* \"#utility.yul\":4369:4378   */\n      dup4\n        /* \"#utility.yul\":4365:4382   */\n      add\n        /* \"#utility.yul\":4358:4405   */\n      mstore\n        /* \"#utility.yul\":4422:4500   */\n      tag_179\n        /* \"#utility.yul\":4495:4499   */\n      dup2\n        /* \"#utility.yul\":4486:4492   */\n      dup6\n        /* \"#utility.yul\":4422:4500   */\n      tag_155\n      jump\t// in\n    tag_179:\n        /* \"#utility.yul\":4414:4500   */\n      swap1\n      pop\n        /* \"#utility.yul\":4510:4582   */\n      tag_180\n        /* \"#utility.yul\":4578:4580   */\n      0x20\n        /* \"#utility.yul\":4567:4576   */\n      dup4\n        /* \"#utility.yul\":4563:4581   */\n      add\n        /* \"#utility.yul\":4554:4560   */\n      dup5\n        /* \"#utility.yul\":4510:4582   */\n      tag_165\n      jump\t// in\n    tag_180:\n        /* \"#utility.yul\":4166:4589   */\n      swap4\n      swap3\n      pop\n      pop\n      pop\n      jump\t// out\n        /* \"#utility.yul\":4595:4817   */\n    tag_21:\n        /* \"#utility.yul\":4688:4692   */\n      0x00\n        /* \"#utility.yul\":4726:4728   */\n      0x20\n        /* \"#utility.yul\":4715:4724   */\n      dup3\n        /* \"#utility.yul\":4711:4729   */\n      add\n        /* \"#utility.yul\":4703:4729   */\n      swap1\n      pop\n        /* \"#utility.yul\":4739:4810   */\n      tag_182\n        /* \"#utility.yul\":4807:4808   */\n      0x00\n        /* \"#utility.yul\":4796:4805   */\n      dup4\n        /* \"#utility.yul\":4792:4809   */\n      add\n        /* \"#utility.yul\":4783:4789   */\n      dup5\n        /* \"#utility.yul\":4739:4810   */\n      tag_165\n      jump\t// in\n    tag_182:\n        /* \"#utility.yul\":4595:4817   */\n      swap3\n      swap2\n      pop\n      pop\n      jump\t// out\n        /* \"#utility.yul\":4823:4952   */\n    tag_111:\n        /* \"#utility.yul\":4857:4863   */\n      0x00\n        /* \"#utility.yul\":4884:4904   */\n      tag_184\n      tag_185\n      jump\t// in\n    tag_184:\n        /* \"#utility.yul\":4874:4904   */\n      swap1\n      pop\n        /* \"#utility.yul\":4913:4946   */\n      tag_186\n        /* \"#utility.yul\":4941:4945   */\n      dup3\n        /* \"#utility.yul\":4933:4939   */\n      dup3\n        /* \"#utility.yul\":4913:4946   */\n      tag_187\n      jump\t// in\n    tag_186:\n        /* \"#utility.yul\":4823:4952   */\n      swap2\n      swap1\n      pop\n      jump\t// out\n        /* \"#utility.yul\":4958:5033   */\n    tag_185:\n        /* \"#utility.yul\":4991:4997   */\n      0x00\n        /* \"#utility.yul\":5024:5026   */\n      0x40\n        /* \"#utility.yul\":5018:5027   */\n      mload\n        /* \"#utility.yul\":5008:5027   */\n      swap1\n      pop\n        /* \"#utility.yul\":4958:5033   */\n      swap1\n      jump\t// out\n        /* \"#utility.yul\":5039:5347   */\n    tag_110:\n        /* \"#utility.yul\":5101:5105   */\n      0x00\n        /* \"#utility.yul\":5191:5209   */\n      0xffffffffffffffff\n        /* \"#utility.yul\":5183:5189   */\n      dup3\n        /* \"#utility.yul\":5180:5210   */\n      gt\n        /* \"#utility.yul\":5177:5233   */\n      iszero\n      tag_190\n      jumpi\n        /* \"#utility.yul\":5213:5231   */\n      tag_191\n      tag_192\n      jump\t// in\n    tag_191:\n        /* \"#utility.yul\":5177:5233   */\n    tag_190:\n        /* \"#utility.yul\":5251:5280   */\n      tag_193\n        /* \"#utility.yul\":5273:5279   */\n      dup3\n        /* \"#utility.yul\":5251:5280   */\n      tag_164\n      jump\t// in\n    tag_193:\n        /* \"#utility.yul\":5243:5280   */\n      swap1\n      pop\n        /* \"#utility.yul\":5335:5339   */\n      0x20\n        /* \"#utility.yul\":5329:5333   */\n      dup2\n        /* \"#utility.yul\":5325:5340   */\n      add\n        /* \"#utility.yul\":5317:5340   */\n      swap1\n      pop\n        /* \"#utility.yul\":5039:5347   */\n      swap2\n      swap1\n      pop\n      jump\t// out\n        /* \"#utility.yul\":5353:5452   */\n    tag_158:\n        /* \"#utility.yul\":5405:5411   */\n      0x00\n        /* \"#utility.yul\":5439:5444   */\n      dup2\n        /* \"#utility.yul\":5433:5445   */\n      mload\n        /* \"#utility.yul\":5423:5445   */\n      swap1\n      pop\n        /* \"#utility.yul\":5353:5452   */\n      swap2\n      swap1\n      pop\n      jump\t// out\n        /* \"#utility.yul\":5458:5627   */\n    tag_160:\n        /* \"#utility.yul\":5542:5553   */\n      0x00\n        /* \"#utility.yul\":5576:5582   */\n      dup3\n        /* \"#utility.yul\":5571:5574   */\n      dup3\n        /* \"#utility.yul\":5564:5583   */\n      mstore\n        /* \"#utility.yul\":5616:5620   */\n      0x20\n        /* \"#utility.yul\":5611:5614   */\n      dup3\n        /* \"#utility.yul\":5607:5621   */\n      add\n        /* \"#utility.yul\":5592:5621   */\n      swap1\n      pop\n        /* \"#utility.yul\":5458:5627   */\n      swap3\n      swap2\n      pop\n      pop\n      jump\t// out\n        /* \"#utility.yul\":5633:5729   */\n    tag_150:\n        /* \"#utility.yul\":5670:5677   */\n      0x00\n        /* \"#utility.yul\":5699:5723   */\n      tag_197\n        /* \"#utility.yul\":5717:5722   */\n      dup3\n        /* \"#utility.yul\":5699:5723   */\n      tag_198\n      jump\t// in\n    tag_197:\n        /* \"#utility.yul\":5688:5723   */\n      swap1\n      pop\n        /* \"#utility.yul\":5633:5729   */\n      swap2\n      swap1\n      pop\n      jump\t// out\n        /* \"#utility.yul\":5735:5825   */\n    tag_154:\n        /* \"#utility.yul\":5769:5776   */\n      0x00\n        /* \"#utility.yul\":5812:5817   */\n      dup2\n        /* \"#utility.yul\":5805:5818   */\n      iszero\n        /* \"#utility.yul\":5798:5819   */\n      iszero\n        /* \"#utility.yul\":5787:5819   */\n      swap1\n      pop\n        /* \"#utility.yul\":5735:5825   */\n      swap2\n      swap1\n      pop\n      jump\t// out\n        /* \"#utility.yul\":5831:5957   */\n    tag_198:\n        /* \"#utility.yul\":5868:5875   */\n      0x00\n        /* \"#utility.yul\":5908:5950   */\n      0xffffffffffffffffffffffffffffffffffffffff\n        /* \"#utility.yul\":5901:5906   */\n      dup3\n        /* \"#utility.yul\":5897:5951   */\n      and\n        /* \"#utility.yul\":5886:5951   */\n      swap1\n      pop\n        /* \"#utility.yul\":5831:5957   */\n      swap2\n      swap1\n      pop\n      jump\t// out\n        /* \"#utility.yul\":5963:6040   */\n    tag_168:\n        /* \"#utility.yul\":6000:6007   */\n      0x00\n        /* \"#utility.yul\":6029:6034   */\n      dup2\n        /* \"#utility.yul\":6018:6034   */\n      swap1\n      pop\n        /* \"#utility.yul\":5963:6040   */\n      swap2\n      swap1\n      pop\n      jump\t// out\n        /* \"#utility.yul\":6046:6200   */\n    tag_116:\n        /* \"#utility.yul\":6130:6136   */\n      dup3\n        /* \"#utility.yul\":6125:6128   */\n      dup2\n        /* \"#utility.yul\":6120:6123   */\n      dup4\n        /* \"#utility.yul\":6107:6137   */\n      calldatacopy\n        /* \"#utility.yul\":6192:6193   */\n      0x00\n        /* \"#utility.yul\":6183:6189   */\n      dup4\n        /* \"#utility.yul\":6178:6181   */\n      dup4\n        /* \"#utility.yul\":6174:6190   */\n      add\n        /* \"#utility.yul\":6167:6194   */\n      mstore\n        /* \"#utility.yul\":6046:6200   */\n      pop\n      pop\n      pop\n      jump\t// out\n        /* \"#utility.yul\":6206:6513   */\n    tag_162:\n        /* \"#utility.yul\":6274:6275   */\n      0x00\n        /* \"#utility.yul\":6284:6397   */\n    tag_204:\n        /* \"#utility.yul\":6298:6304   */\n      dup4\n        /* \"#utility.yul\":6295:6296   */\n      dup2\n        /* \"#utility.yul\":6292:6305   */\n      lt\n        /* \"#utility.yul\":6284:6397   */\n      iszero\n      tag_206\n      jumpi\n        /* \"#utility.yul\":6383:6384   */\n      dup1\n        /* \"#utility.yul\":6378:6381   */\n      dup3\n        /* \"#utility.yul\":6374:6385   */\n      add\n        /* \"#utility.yul\":6368:6386   */\n      mload\n        /* \"#utility.yul\":6364:6365   */\n      dup2\n        /* \"#utility.yul\":6359:6362   */\n      dup5\n        /* \"#utility.yul\":6355:6366   */\n      add\n        /* \"#utility.yul\":6348:6387   */\n      mstore\n        /* \"#utility.yul\":6320:6322   */\n      0x20\n        /* \"#utility.yul\":6317:6318   */\n      dup2\n        /* \"#utility.yul\":6313:6323   */\n      add\n        /* \"#utility.yul\":6308:6323   */\n      swap1\n      pop\n        /* \"#utility.yul\":6284:6397   */\n      jump(tag_204)\n    tag_206:\n        /* \"#utility.yul\":6415:6421   */\n      dup4\n        /* \"#utility.yul\":6412:6413   */\n      dup2\n        /* \"#utility.yul\":6409:6422   */\n      gt\n        /* \"#utility.yul\":6406:6507   */\n      iszero\n      tag_207\n      jumpi\n        /* \"#utility.yul\":6495:6496   */\n      0x00\n        /* \"#utility.yul\":6486:6492   */\n      dup5\n        /* \"#utility.yul\":6481:6484   */\n      dup5\n        /* \"#utility.yul\":6477:6493   */\n      add\n        /* \"#utility.yul\":6470:6497   */\n      mstore\n        /* \"#utility.yul\":6406:6507   */\n    tag_207:\n        /* \"#utility.yul\":6255:6513   */\n      pop\n        /* \"#utility.yul\":6206:6513   */\n      pop\n      pop\n      pop\n      jump\t// out\n        /* \"#utility.yul\":6519:6839   */\n    tag_68:\n        /* \"#utility.yul\":6563:6569   */\n      0x00\n        /* \"#utility.yul\":6600:6601   */\n      0x02\n        /* \"#utility.yul\":6594:6598   */\n      dup3\n        /* \"#utility.yul\":6590:6602   */\n      div\n        /* \"#utility.yul\":6580:6602   */\n      swap1\n      pop\n        /* \"#utility.yul\":6647:6648   */\n      0x01\n        /* \"#utility.yul\":6641:6645   */\n      dup3\n        /* \"#utility.yul\":6637:6649   */\n      and\n        /* \"#utility.yul\":6668:6686   */\n      dup1\n        /* \"#utility.yul\":6658:6739   */\n      tag_209\n      jumpi\n        /* \"#utility.yul\":6724:6728   */\n      0x7f\n        /* \"#utility.yul\":6716:6722   */\n      dup3\n        /* \"#utility.yul\":6712:6729   */\n      and\n        /* \"#utility.yul\":6702:6729   */\n      swap2\n      pop\n        /* \"#utility.yul\":6658:6739   */\n    tag_209:\n        /* \"#utility.yul\":6786:6788   */\n      0x20\n        /* \"#utility.yul\":6778:6784   */\n      dup3\n        /* \"#utility.yul\":6775:6789   */\n      lt\n        /* \"#utility.yul\":6755:6773   */\n      dup2\n        /* \"#utility.yul\":6752:6790   */\n      eq\n        /* \"#utility.yul\":6749:6833   */\n      iszero\n      tag_210\n      jumpi\n        /* \"#utility.yul\":6805:6823   */\n      tag_211\n      tag_212\n      jump\t// in\n    tag_211:\n        /* \"#utility.yul\":6749:6833   */\n    tag_210:\n        /* \"#utility.yul\":6570:6839   */\n      pop\n        /* \"#utility.yul\":6519:6839   */\n      swap2\n      swap1\n      pop\n      jump\t// out\n        /* \"#utility.yul\":6845:7126   */\n    tag_187:\n        /* \"#utility.yul\":6928:6955   */\n      tag_214\n        /* \"#utility.yul\":6950:6954   */\n      dup3\n        /* \"#utility.yul\":6928:6955   */\n      tag_164\n      jump\t// in\n    tag_214:\n        /* \"#utility.yul\":6920:6926   */\n      dup2\n        /* \"#utility.yul\":6916:6956   */\n      add\n        /* \"#utility.yul\":7058:7064   */\n      dup2\n        /* \"#utility.yul\":7046:7056   */\n      dup2\n        /* \"#utility.yul\":7043:7065   */\n      lt\n        /* \"#utility.yul\":7022:7040   */\n      0xffffffffffffffff\n        /* \"#utility.yul\":7010:7020   */\n      dup3\n        /* \"#utility.yul\":7007:7041   */\n      gt\n        /* \"#utility.yul\":7004:7066   */\n      or\n        /* \"#utility.yul\":7001:7089   */\n      iszero\n      tag_215\n      jumpi\n        /* \"#utility.yul\":7069:7087   */\n      tag_216\n      tag_192\n      jump\t// in\n    tag_216:\n        /* \"#utility.yul\":7001:7089   */\n    tag_215:\n        /* \"#utility.yul\":7109:7119   */\n      dup1\n        /* \"#utility.yul\":7105:7107   */\n      0x40\n        /* \"#utility.yul\":7098:7120   */\n      mstore\n        /* \"#utility.yul\":6888:7126   */\n      pop\n        /* \"#utility.yul\":6845:7126   */\n      pop\n      pop\n      jump\t// out\n        /* \"#utility.yul\":7132:7365   */\n    tag_63:\n        /* \"#utility.yul\":7171:7174   */\n      0x00\n        /* \"#utility.yul\":7194:7218   */\n      tag_218\n        /* \"#utility.yul\":7212:7217   */\n      dup3\n        /* \"#utility.yul\":7194:7218   */\n      tag_168\n      jump\t// in\n    tag_218:\n        /* \"#utility.yul\":7185:7218   */\n      swap2\n      pop\n        /* \"#utility.yul\":7240:7306   */\n      0xffffffffffffffffffffffffffffffffffffffffffffffffffffffffffffffff\n        /* \"#utility.yul\":7233:7238   */\n      dup3\n        /* \"#utility.yul\":7230:7307   */\n      eq\n        /* \"#utility.yul\":7227:7330   */\n      iszero\n      tag_219\n      jumpi\n        /* \"#utility.yul\":7310:7328   */\n      tag_220\n      tag_221\n      jump\t// in\n    tag_220:\n        /* \"#utility.yul\":7227:7330   */\n    tag_219:\n        /* \"#utility.yul\":7357:7358   */\n      0x01\n        /* \"#utility.yul\":7350:7355   */\n      dup3\n        /* \"#utility.yul\":7346:7359   */\n      add\n        /* \"#utility.yul\":7339:7359   */\n      swap1\n      pop\n        /* \"#utility.yul\":7132:7365   */\n      swap2\n      swap1\n      pop\n      jump\t// out\n        /* \"#utility.yul\":7371:7551   */\n    tag_221:\n        /* \"#utility.yul\":7419:7496   */\n      0x4e487b7100000000000000000000000000000000000000000000000000000000\n        /* \"#utility.yul\":7416:7417   */\n      0x00\n        /* \"#utility.yul\":7409:7497   */\n      mstore\n        /* \"#utility.yul\":7516:7520   */\n      0x11\n        /* \"#utility.yul\":7513:7514   */\n      0x04\n        /* \"#utility.yul\":7506:7521   */\n      mstore\n        /* \"#utility.yul\":7540:7544   */\n      0x24\n        /* \"#utility.yul\":7537:7538   */\n      0x00\n        /* \"#utility.yul\":7530:7545   */\n      revert\n        /* \"#utility.yul\":7557:7737   */\n    tag_212:\n        /* \"#utility.yul\":7605:7682   */\n      0x4e487b7100000000000000000000000000000000000000000000000000000000\n        /* \"#utility.yul\":7602:7603   */\n      0x00\n        /* \"#utility.yul\":7595:7683   */\n      mstore\n        /* \"#utility.yul\":7702:7706   */\n      0x22\n        /* \"#utility.yul\":7699:7700   */\n      0x04\n        /* \"#utility.yul\":7692:7707   */\n      mstore\n        /* \"#utility.yul\":7726:7730   */\n      0x24\n        /* \"#utility.yul\":7723:7724   */\n      0x00\n        /* \"#utility.yul\":7716:7731   */\n      revert\n        /* \"#utility.yul\":7743:7923   */\n    tag_60:\n        /* \"#utility.yul\":7791:7868   */\n      0x4e487b7100000000000000000000000000000000000000000000000000000000\n        /* \"#utility.yul\":7788:7789   */\n      0x00\n        /* \"#utility.yul\":7781:7869   */\n      mstore\n        /* \"#utility.yul\":7888:7892   */\n      0x32\n        /* \"#utility.yul\":7885:7886   */\n      0x04\n        /* \"#utility.yul\":7878:7893   */\n      mstore\n        /* \"#utility.yul\":7912:7916   */\n      0x24\n        /* \"#utility.yul\":7909:7910   */\n      0x00\n        /* \"#utility.yul\":7902:7917   */\n      revert\n        /* \"#utility.yul\":7929:8109   */\n    tag_192:\n        /* \"#utility.yul\":7977:8054   */\n      0x4e487b7100000000000000000000000000000000000000000000000000000000\n        /* \"#utility.yul\":7974:7975   */\n      0x00\n        /* \"#utility.yul\":7967:8055   */\n      mstore\n        /* \"#utility.yul\":8074:8078   */\n      0x41\n        /* \"#utility.yul\":8071:8072   */\n      0x04\n        /* \"#utility.yul\":8064:8079   */\n      mstore\n        /* \"#utility.yul\":8098:8102   */\n      0x24\n        /* \"#utility.yul\":8095:8096   */\n      0x00\n        /* \"#utility.yul\":8088:8103   */\n      revert\n        /* \"#utility.yul\":8115:8232   */\n    tag_125:\n        /* \"#utility.yul\":8224:8225   */\n      0x00\n        /* \"#utility.yul\":8221:8222   */\n      dup1\n        /* \"#utility.yul\":8214:8226   */\n      revert\n        /* \"#utility.yul\":8238:8355   */\n    tag_114:\n        /* \"#utility.yul\":8347:8348   */\n      0x00\n        /* \"#utility.yul\":8344:8345   */\n      dup1\n        /* \"#utility.yul\":8337:8349   */\n      revert\n        /* \"#utility.yul\":8361:8478   */\n    tag_141:\n        /* \"#utility.yul\":8470:8471   */\n      0x00\n        /* \"#utility.yul\":8467:8468   */\n      dup1\n        /* \"#utility.yul\":8460:8472   */\n      revert\n        /* \"#utility.yul\":8484:8601   */\n    tag_134:\n        /* \"#utility.yul\":8593:8594   */\n      0x00\n        /* \"#utility.yul\":8590:8591   */\n      dup1\n        /* \"#utility.yul\":8583:8595   */\n      revert\n        /* \"#utility.yul\":8607:8709   */\n    tag_164:\n        /* \"#utility.yul\":8648:8654   */\n      0x00\n        /* \"#utility.yul\":8699:8701   */\n      0x1f\n        /* \"#utility.yul\":8695:8702   */\n      not\n        /* \"#utility.yul\":8690:8692   */\n      0x1f\n        /* \"#utility.yul\":8683:8688   */\n      dup4\n        /* \"#utility.yul\":8679:8693   */\n      add\n        /* \"#utility.yul\":8675:8703   */\n      and\n        /* \"#utility.yul\":8665:8703   */\n      swap1\n      pop\n        /* \"#utility.yul\":8607:8709   */\n      swap2\n      swap1\n      pop\n      jump\t// out\n        /* \"#utility.yul\":8715:8837   */\n    tag_120:\n        /* \"#utility.yul\":8788:8812   */\n      tag_232\n        /* \"#utility.yul\":8806:8811   */\n      dup2\n        /* \"#utility.yul\":8788:8812   */\n      tag_150\n      jump\t// in\n    tag_232:\n        /* \"#utility.yul\":8781:8786   */\n      dup2\n        /* \"#utility.yul\":8778:8813   */\n      eq\n        /* \"#utility.yul\":8768:8831   */\n      tag_233\n      jumpi\n        /* \"#utility.yul\":8827:8828   */\n      0x00\n        /* \"#utility.yul\":8824:8825   */\n      dup1\n        /* \"#utility.yul\":8817:8829   */\n      revert\n        /* \"#utility.yul\":8768:8831   */\n    tag_233:\n        /* \"#utility.yul\":8715:8837   */\n      pop\n      jump\t// out\n        /* \"#utility.yul\":8843:8965   */\n    tag_130:\n        /* \"#utility.yul\":8916:8940   */\n      tag_235\n        /* \"#utility.yul\":8934:8939   */\n      dup2\n        /* \"#utility.yul\":8916:8940   */\n      tag_168\n      jump\t// in\n    tag_235:\n        /* \"#utility.yul\":8909:8914   */\n      dup2\n        /* \"#utility.yul\":8906:8941   */\n      eq\n        /* \"#utility.yul\":8896:8959   */\n      tag_236\n      jumpi\n        /* \"#utility.yul\":8955:8956   */\n      0x00\n        /* \"#utility.yul\":8952:8953   */\n      dup1\n        /* \"#utility.yul\":8945:8957   */\n      revert\n        /* \"#utility.yul\":8896:8959   */\n    tag_236:\n        /* \"#utility.yul\":8843:8965   */\n      pop\n      jump\t// out\n\n    auxdata: 0xa26469706673582212200d4cdee521459dec5dc46d67ed842bb5b406e46153e43b8d9a2034b803e2d0b164736f6c63430008070033\n}\n",
				"bytecode": {
					"linkReferences": {},
					"object": "608060405234801561001057600080fd5b50610dc9806100206000396000f3fe608060405234801561001057600080fd5b506004361061009e5760003560e01c806385e8e7a71161006657806385e8e7a7146101485780638da5cb5b14610166578063a3ec138d14610184578063f544bed8146101b7578063fd47b368146101d35761009e565b80630121b93f146100a35780630d15fd77146100bf5780633477ee2e146100dd578063462e91ec1461010e5780635c06b06e1461012a575b600080fd5b6100bd60048036038101906100b89190610975565b6101ef565b005b6100c761039a565b6040516100d49190610ac1565b60405180910390f35b6100f760048036038101906100f29190610975565b6103a0565b604051610105929190610a91565b60405180910390f35b6101286004803603810190610123919061092c565b61045c565b005b610132610521565b60405161013f9190610ac1565b60405180910390f35b61015061052e565b60405161015d9190610a23565b60405180910390f35b61016e6105bc565b60405161017b9190610a08565b60405180910390f35b61019e600480360381019061019991906108ff565b6105e0565b6040516101ae9493929190610a45565b60405180910390f35b6101d160048036038101906101cc919061092c565b6106b2565b005b6101ed60048036038101906101e891906108ff565b61070c565b005b600260003373ffffffffffffffffffffffffffffffffffffffff1673ffffffffffffffffffffffffffffffffffffffff16815260200190815260200160002060030160009054906101000a900460ff161561024957600080fd5b600260003373ffffffffffffffffffffffffffffffffffffffff1673ffffffffffffffffffffffffffffffffffffffff16815260200190815260200160002060010160009054906101000a900460ff166102a257600080fd5b80600260003373ffffffffffffffffffffffffffffffffffffffff1673ffffffffffffffffffffffffffffffffffffffff168152602001908152602001600020600201819055506001600260003373ffffffffffffffffffffffffffffffffffffffff1673ffffffffffffffffffffffffffffffffffffffff16815260200190815260200160002060030160006101000a81548160ff0219169083151502179055506003818154811061035857610357610ce2565b5b9060005260206000209060020201600101600081548092919061037a90610c3b565b91905055506004600081548092919061039290610c3b565b919050555050565b60045481565b600381815481106103b057600080fd5b90600052602060002090600202016000915090508060000180546103d390610bd8565b80601f01602080910402602001604051908101604052809291908181526020018280546103ff90610bd8565b801561044c5780601f106104215761010080835404028352916020019161044c565b820191906000526020600020905b81548152906001019060200180831161042f57829003601f168201915b5050505050908060010154905082565b60008054906101000a900473ffffffffffffffffffffffffffffffffffffffff1673ffffffffffffffffffffffffffffffffffffffff163373ffffffffffffffffffffffffffffffffffffffff16146104b457600080fd5b600360405180604001604052808381526020016000815250908060018154018082558091505060019003906000526020600020906002020160009091909190915060008201518160000190805190602001906105119291906107c2565b5060208201518160010155505050565b6000600380549050905090565b6001805461053b90610bd8565b80601f016020809104026020016040519081016040528092919081815260200182805461056790610bd8565b80156105b45780601f10610589576101008083540402835291602001916105b4565b820191906000526020600020905b81548152906001019060200180831161059757829003601f168201915b505050505081565b60008054906101000a900473ffffffffffffffffffffffffffffffffffffffff1681565b600260205280600052604060002060009150905080600001805461060390610bd8565b80601f016020809104026020016040519081016040528092919081815260200182805461062f90610bd8565b801561067c5780601f106106515761010080835404028352916020019161067c565b820191906000526020600020905b81548152906001019060200180831161065f57829003601f168201915b5050505050908060010160009054906101000a900460ff16908060020154908060030160009054906101000a900460ff16905084565b336000806101000a81548173ffffffffffffffffffffffffffffffffffffffff021916908373ffffffffffffffffffffffffffffffffffffffff16021790555080600190805190602001906107089291906107c2565b5050565b60008054906101000a900473ffffffffffffffffffffffffffffffffffffffff1673ffffffffffffffffffffffffffffffffffffffff163373ffffffffffffffffffffffffffffffffffffffff161461076457600080fd5b6001600260008373ffffffffffffffffffffffffffffffffffffffff1673ffffffffffffffffffffffffffffffffffffffff16815260200190815260200160002060010160006101000a81548160ff02191690831515021790555050565b8280546107ce90610bd8565b90600052602060002090601f0160209004810192826107f05760008555610837565b82601f1061080957805160ff1916838001178555610837565b82800160010185558215610837579182015b8281111561083657825182559160200191906001019061081b565b5b5090506108449190610848565b5090565b5b80821115610861576000816000905550600101610849565b5090565b600061087861087384610b01565b610adc565b90508281526020810184848401111561089457610893610d45565b5b61089f848285610b96565b509392505050565b6000813590506108b681610d65565b92915050565b600082601f8301126108d1576108d0610d40565b5b81356108e1848260208601610865565b91505092915050565b6000813590506108f981610d7c565b92915050565b60006020828403121561091557610914610d4f565b5b6000610923848285016108a7565b91505092915050565b60006020828403121561094257610941610d4f565b5b600082013567ffffffffffffffff8111156109605761095f610d4a565b5b61096c848285016108bc565b91505092915050565b60006020828403121561098b5761098a610d4f565b5b6000610999848285016108ea565b91505092915050565b6109ab81610b4e565b82525050565b6109ba81610b60565b82525050565b60006109cb82610b32565b6109d58185610b3d565b93506109e5818560208601610ba5565b6109ee81610d54565b840191505092915050565b610a0281610b8c565b82525050565b6000602082019050610a1d60008301846109a2565b92915050565b60006020820190508181036000830152610a3d81846109c0565b905092915050565b60006080820190508181036000830152610a5f81876109c0565b9050610a6e60208301866109b1565b610a7b60408301856109f9565b610a8860608301846109b1565b95945050505050565b60006040820190508181036000830152610aab81856109c0565b9050610aba60208301846109f9565b9392505050565b6000602082019050610ad660008301846109f9565b92915050565b6000610ae6610af7565b9050610af28282610c0a565b919050565b6000604051905090565b600067ffffffffffffffff821115610b1c57610b1b610d11565b5b610b2582610d54565b9050602081019050919050565b600081519050919050565b600082825260208201905092915050565b6000610b5982610b6c565b9050919050565b60008115159050919050565b600073ffffffffffffffffffffffffffffffffffffffff82169050919050565b6000819050919050565b82818337600083830152505050565b60005b83811015610bc3578082015181840152602081019050610ba8565b83811115610bd2576000848401525b50505050565b60006002820490506001821680610bf057607f821691505b60208210811415610c0457610c03610cb3565b5b50919050565b610c1382610d54565b810181811067ffffffffffffffff82111715610c3257610c31610d11565b5b80604052505050565b6000610c4682610b8c565b91507fffffffffffffffffffffffffffffffffffffffffffffffffffffffffffffffff821415610c7957610c78610c84565b5b600182019050919050565b7f4e487b7100000000000000000000000000000000000000000000000000000000600052601160045260246000fd5b7f4e487b7100000000000000000000000000000000000000000000000000000000600052602260045260246000fd5b7f4e487b7100000000000000000000000000000000000000000000000000000000600052603260045260246000fd5b7f4e487b7100000000000000000000000000000000000000000000000000000000600052604160045260246000fd5b600080fd5b600080fd5b600080fd5b600080fd5b6000601f19601f8301169050919050565b610d6e81610b4e565b8114610d7957600080fd5b50565b610d8581610b8c565b8114610d9057600080fd5b5056fea26469706673582212200d4cdee521459dec5dc46d67ed842bb5b406e46153e43b8d9a2034b803e2d0b164736f6c63430008070033",
					"opcodes": "PUSH1 0x80 PUSH1 0x40 MSTORE CALLVALUE DUP1 ISZERO PUSH2 0x10 JUMPI PUSH1 0x0 DUP1 REVERT JUMPDEST POP PUSH2 0xDC9 DUP1 PUSH2 0x20 PUSH1 0x0 CODECOPY PUSH1 0x0 RETURN INVALID PUSH1 0x80 PUSH1 0x40 MSTORE CALLVALUE DUP1 ISZERO PUSH2 0x10 JUMPI PUSH1 0x0 DUP1 REVERT JUMPDEST POP PUSH1 0x4 CALLDATASIZE LT PUSH2 0x9E JUMPI PUSH1 0x0 CALLDATALOAD PUSH1 0xE0 SHR DUP1 PUSH4 0x85E8E7A7 GT PUSH2 0x66 JUMPI DUP1 PUSH4 0x85E8E7A7 EQ PUSH2 0x148 JUMPI DUP1 PUSH4 0x8DA5CB5B EQ PUSH2 0x166 JUMPI DUP1 PUSH4 0xA3EC138D EQ PUSH2 0x184 JUMPI DUP1 PUSH4 0xF544BED8 EQ PUSH2 0x1B7 JUMPI DUP1 PUSH4 0xFD47B368 EQ PUSH2 0x1D3 JUMPI PUSH2 0x9E JUMP JUMPDEST DUP1 PUSH4 0x121B93F EQ PUSH2 0xA3 JUMPI DUP1 PUSH4 0xD15FD77 EQ PUSH2 0xBF JUMPI DUP1 PUSH4 0x3477EE2E EQ PUSH2 0xDD JUMPI DUP1 PUSH4 0x462E91EC EQ PUSH2 0x10E JUMPI DUP1 PUSH4 0x5C06B06E EQ PUSH2 0x12A JUMPI JUMPDEST PUSH1 0x0 DUP1 REVERT JUMPDEST PUSH2 0xBD PUSH1 0x4 DUP1 CALLDATASIZE SUB DUP2 ADD SWAP1 PUSH2 0xB8 SWAP2 SWAP1 PUSH2 0x975 JUMP JUMPDEST PUSH2 0x1EF JUMP JUMPDEST STOP JUMPDEST PUSH2 0xC7 PUSH2 0x39A JUMP JUMPDEST PUSH1 0x40 MLOAD PUSH2 0xD4 SWAP2 SWAP1 PUSH2 0xAC1 JUMP JUMPDEST PUSH1 0x40 MLOAD DUP1 SWAP2 SUB SWAP1 RETURN JUMPDEST PUSH2 0xF7 PUSH1 0x4 DUP1 CALLDATASIZE SUB DUP2 ADD SWAP1 PUSH2 0xF2 SWAP2 SWAP1 PUSH2 0x975 JUMP JUMPDEST PUSH2 0x3A0 JUMP JUMPDEST PUSH1 0x40 MLOAD PUSH2 0x105 SWAP3 SWAP2 SWAP1 PUSH2 0xA91 JUMP JUMPDEST PUSH1 0x40 MLOAD DUP1 SWAP2 SUB SWAP1 RETURN JUMPDEST PUSH2 0x128 PUSH1 0x4 DUP1 CALLDATASIZE SUB DUP2 ADD SWAP1 PUSH2 0x123 SWAP2 SWAP1 PUSH2 0x92C JUMP JUMPDEST PUSH2 0x45C JUMP JUMPDEST STOP JUMPDEST PUSH2 0x132 PUSH2 0x521 JUMP JUMPDEST PUSH1 0x40 MLOAD PUSH2 0x13F SWAP2 SWAP1 PUSH2 0xAC1 JUMP JUMPDEST PUSH1 0x40 MLOAD DUP1 SWAP2 SUB SWAP1 RETURN JUMPDEST PUSH2 0x150 PUSH2 0x52E JUMP JUMPDEST PUSH1 0x40 MLOAD PUSH2 0x15D SWAP2 SWAP1 PUSH2 0xA23 JUMP JUMPDEST PUSH1 0x40 MLOAD DUP1 SWAP2 SUB SWAP1 RETURN JUMPDEST PUSH2 0x16E PUSH2 0x5BC JUMP JUMPDEST PUSH1 0x40 MLOAD PUSH2 0x17B SWAP2 SWAP1 PUSH2 0xA08 JUMP JUMPDEST PUSH1 0x40 MLOAD DUP1 SWAP2 SUB SWAP1 RETURN JUMPDEST PUSH2 0x19E PUSH1 0x4 DUP1 CALLDATASIZE SUB DUP2 ADD SWAP1 PUSH2 0x199 SWAP2 SWAP1 PUSH2 0x8FF JUMP JUMPDEST PUSH2 0x5E0 JUMP JUMPDEST PUSH1 0x40 MLOAD PUSH2 0x1AE SWAP5 SWAP4 SWAP3 SWAP2 SWAP1 PUSH2 0xA45 JUMP JUMPDEST PUSH1 0x40 MLOAD DUP1 SWAP2 SUB SWAP1 RETURN JUMPDEST PUSH2 0x1D1 PUSH1 0x4 DUP1 CALLDATASIZE SUB DUP2 ADD SWAP1 PUSH2 0x1CC SWAP2 SWAP1 PUSH2 0x92C JUMP JUMPDEST PUSH2 0x6B2 JUMP JUMPDEST STOP JUMPDEST PUSH2 0x1ED PUSH1 0x4 DUP1 CALLDATASIZE SUB DUP2 ADD SWAP1 PUSH2 0x1E8 SWAP2 SWAP1 PUSH2 0x8FF JUMP JUMPDEST PUSH2 0x70C JUMP JUMPDEST STOP JUMPDEST PUSH1 0x2 PUSH1 0x0 CALLER PUSH20 0xFFFFFFFFFFFFFFFFFFFFFFFFFFFFFFFFFFFFFFFF AND PUSH20 0xFFFFFFFFFFFFFFFFFFFFFFFFFFFFFFFFFFFFFFFF AND DUP2 MSTORE PUSH1 0x20 ADD SWAP1 DUP2 MSTORE PUSH1 0x20 ADD PUSH1 0x0 KECCAK256 PUSH1 0x3 ADD PUSH1 0x0 SWAP1 SLOAD SWAP1 PUSH2 0x100 EXP SWAP1 DIV PUSH1 0xFF AND ISZERO PUSH2 0x249 JUMPI PUSH1 0x0 DUP1 REVERT JUMPDEST PUSH1 0x2 PUSH1 0x0 CALLER PUSH20 0xFFFFFFFFFFFFFFFFFFFFFFFFFFFFFFFFFFFFFFFF AND PUSH20 0xFFFFFFFFFFFFFFFFFFFFFFFFFFFFFFFFFFFFFFFF AND DUP2 MSTORE PUSH1 0x20 ADD SWAP1 DUP2 MSTORE PUSH1 0x20 ADD PUSH1 0x0 KECCAK256 PUSH1 0x1 ADD PUSH1 0x0 SWAP1 SLOAD SWAP1 PUSH2 0x100 EXP SWAP1 DIV PUSH1 0xFF AND PUSH2 0x2A2 JUMPI PUSH1 0x0 DUP1 REVERT JUMPDEST DUP1 PUSH1 0x2 PUSH1 0x0 CALLER PUSH20 0xFFFFFFFFFFFFFFFFFFFFFFFFFFFFFFFFFFFFFFFF AND PUSH20 0xFFFFFFFFFFFFFFFFFFFFFFFFFFFFFFFFFFFFFFFF AND DUP2 MSTORE PUSH1 0x20 ADD SWAP1 DUP2 MSTORE PUSH1 0x20 ADD PUSH1 0x0 KECCAK256 PUSH1 0x2 ADD DUP2 SWAP1 SSTORE POP PUSH1 0x1 PUSH1 0x2 PUSH1 0x0 CALLER PUSH20 0xFFFFFFFFFFFFFFFFFFFFFFFFFFFFFFFFFFFFFFFF AND PUSH20 0xFFFFFFFFFFFFFFFFFFFFFFFFFFFFFFFFFFFFFFFF AND DUP2 MSTORE PUSH1 0x20 ADD SWAP1 DUP2 MSTORE PUSH1 0x20 ADD PUSH1 0x0 KECCAK256 PUSH1 0x3 ADD PUSH1 0x0 PUSH2 0x100 EXP DUP2 SLOAD DUP2 PUSH1 0xFF MUL NOT AND SWAP1 DUP4 ISZERO ISZERO MUL OR SWAP1 SSTORE POP PUSH1 0x3 DUP2 DUP2 SLOAD DUP2 LT PUSH2 0x358 JUMPI PUSH2 0x357 PUSH2 0xCE2 JUMP JUMPDEST JUMPDEST SWAP1 PUSH1 0x0 MSTORE PUSH1 0x20 PUSH1 0x0 KECCAK256 SWAP1 PUSH1 0x2 MUL ADD PUSH1 0x1 ADD PUSH1 0x0 DUP2 SLOAD DUP1 SWAP3 SWAP2 SWAP1 PUSH2 0x37A SWAP1 PUSH2 0xC3B JUMP JUMPDEST SWAP2 SWAP1 POP SSTORE POP PUSH1 0x4 PUSH1 0x0 DUP2 SLOAD DUP1 SWAP3 SWAP2 SWAP1 PUSH2 0x392 SWAP1 PUSH2 0xC3B JUMP JUMPDEST SWAP2 SWAP1 POP SSTORE POP POP JUMP JUMPDEST PUSH1 0x4 SLOAD DUP2 JUMP JUMPDEST PUSH1 0x3 DUP2 DUP2 SLOAD DUP2 LT PUSH2 0x3B0 JUMPI PUSH1 0x0 DUP1 REVERT JUMPDEST SWAP1 PUSH1 0x0 MSTORE PUSH1 0x20 PUSH1 0x0 KECCAK256 SWAP1 PUSH1 0x2 MUL ADD PUSH1 0x0 SWAP2 POP SWAP1 POP DUP1 PUSH1 0x0 ADD DUP1 SLOAD PUSH2 0x3D3 SWAP1 PUSH2 0xBD8 JUMP JUMPDEST DUP1 PUSH1 0x1F ADD PUSH1 0x20 DUP1 SWAP2 DIV MUL PUSH1 0x20 ADD PUSH1 0x40 MLOAD SWAP1 DUP2 ADD PUSH1 0x40 MSTORE DUP1 SWAP3 SWAP2 SWAP1 DUP2 DUP2 MSTORE PUSH1 0x20 ADD DUP3 DUP1 SLOAD PUSH2 0x3FF SWAP1 PUSH2 0xBD8 JUMP JUMPDEST DUP1 ISZERO PUSH2 0x44C JUMPI DUP1 PUSH1 0x1F LT PUSH2 0x421 JUMPI PUSH2 0x100 DUP1 DUP4 SLOAD DIV MUL DUP4 MSTORE SWAP2 PUSH1 0x20 ADD SWAP2 PUSH2 0x44C JUMP JUMPDEST DUP3 ADD SWAP2 SWAP1 PUSH1 0x0 MSTORE PUSH1 0x20 PUSH1 0x0 KECCAK256 SWAP1 JUMPDEST DUP2 SLOAD DUP2 MSTORE SWAP1 PUSH1 0x1 ADD SWAP1 PUSH1 0x20 ADD DUP1 DUP4 GT PUSH2 0x42F JUMPI DUP3 SWAP1 SUB PUSH1 0x1F AND DUP3 ADD SWAP2 JUMPDEST POP POP POP POP POP SWAP1 DUP1 PUSH1 0x1 ADD SLOAD SWAP1 POP DUP3 JUMP JUMPDEST PUSH1 0x0 DUP1 SLOAD SWAP1 PUSH2 0x100 EXP SWAP1 DIV PUSH20 0xFFFFFFFFFFFFFFFFFFFFFFFFFFFFFFFFFFFFFFFF AND PUSH20 0xFFFFFFFFFFFFFFFFFFFFFFFFFFFFFFFFFFFFFFFF AND CALLER PUSH20 0xFFFFFFFFFFFFFFFFFFFFFFFFFFFFFFFFFFFFFFFF AND EQ PUSH2 0x4B4 JUMPI PUSH1 0x0 DUP1 REVERT JUMPDEST PUSH1 0x3 PUSH1 0x40 MLOAD DUP1 PUSH1 0x40 ADD PUSH1 0x40 MSTORE DUP1 DUP4 DUP2 MSTORE PUSH1 0x20 ADD PUSH1 0x0 DUP2 MSTORE POP SWAP1 DUP1 PUSH1 0x1 DUP2 SLOAD ADD DUP1 DUP3 SSTORE DUP1 SWAP2 POP POP PUSH1 0x1 SWAP1 SUB SWAP1 PUSH1 0x0 MSTORE PUSH1 0x20 PUSH1 0x0 KECCAK256 SWAP1 PUSH1 0x2 MUL ADD PUSH1 0x0 SWAP1 SWAP2 SWAP1 SWAP2 SWAP1 SWAP2 POP PUSH1 0x0 DUP3 ADD MLOAD DUP2 PUSH1 0x0 ADD SWAP1 DUP1 MLOAD SWAP1 PUSH1 0x20 ADD SWAP1 PUSH2 0x511 SWAP3 SWAP2 SWAP1 PUSH2 0x7C2 JUMP JUMPDEST POP PUSH1 0x20 DUP3 ADD MLOAD DUP2 PUSH1 0x1 ADD SSTORE POP POP POP JUMP JUMPDEST PUSH1 0x0 PUSH1 0x3 DUP1 SLOAD SWAP1 POP SWAP1 POP SWAP1 JUMP JUMPDEST PUSH1 0x1 DUP1 SLOAD PUSH2 0x53B SWAP1 PUSH2 0xBD8 JUMP JUMPDEST DUP1 PUSH1 0x1F ADD PUSH1 0x20 DUP1 SWAP2 DIV MUL PUSH1 0x20 ADD PUSH1 0x40 MLOAD SWAP1 DUP2 ADD PUSH1 0x40 MSTORE DUP1 SWAP3 SWAP2 SWAP1 DUP2 DUP2 MSTORE PUSH1 0x20 ADD DUP3 DUP1 SLOAD PUSH2 0x567 SWAP1 PUSH2 0xBD8 JUMP JUMPDEST DUP1 ISZERO PUSH2 0x5B4 JUMPI DUP1 PUSH1 0x1F LT PUSH2 0x589 JUMPI PUSH2 0x100 DUP1 DUP4 SLOAD DIV MUL DUP4 MSTORE SWAP2 PUSH1 0x20 ADD SWAP2 PUSH2 0x5B4 JUMP JUMPDEST DUP3 ADD SWAP2 SWAP1 PUSH1 0x0 MSTORE PUSH1 0x20 PUSH1 0x0 KECCAK256 SWAP1 JUMPDEST DUP2 SLOAD DUP2 MSTORE SWAP1 PUSH1 0x1 ADD SWAP1 PUSH1 0x20 ADD DUP1 DUP4 GT PUSH2 0x597 JUMPI DUP3 SWAP1 SUB PUSH1 0x1F AND DUP3 ADD SWAP2 JUMPDEST POP POP POP POP POP DUP2 JUMP JUMPDEST PUSH1 0x0 DUP1 SLOAD SWAP1 PUSH2 0x100 EXP SWAP1 DIV PUSH20 0xFFFFFFFFFFFFFFFFFFFFFFFFFFFFFFFFFFFFFFFF AND DUP2 JUMP JUMPDEST PUSH1 0x2 PUSH1 0x20 MSTORE DUP1 PUSH1 0x0 MSTORE PUSH1 0x40 PUSH1 0x0 KECCAK256 PUSH1 0x0 SWAP2 POP SWAP1 POP DUP1 PUSH1 0x0 ADD DUP1 SLOAD PUSH2 0x603 SWAP1 PUSH2 0xBD8 JUMP JUMPDEST DUP1 PUSH1 0x1F ADD PUSH1 0x20 DUP1 SWAP2 DIV MUL PUSH1 0x20 ADD PUSH1 0x40 MLOAD SWAP1 DUP2 ADD PUSH1 0x40 MSTORE DUP1 SWAP3 SWAP2 SWAP1 DUP2 DUP2 MSTORE PUSH1 0x20 ADD DUP3 DUP1 SLOAD PUSH2 0x62F SWAP1 PUSH2 0xBD8 JUMP JUMPDEST DUP1 ISZERO PUSH2 0x67C JUMPI DUP1 PUSH1 0x1F LT PUSH2 0x651 JUMPI PUSH2 0x100 DUP1 DUP4 SLOAD DIV MUL DUP4 MSTORE SWAP2 PUSH1 0x20 ADD SWAP2 PUSH2 0x67C JUMP JUMPDEST DUP3 ADD SWAP2 SWAP1 PUSH1 0x0 MSTORE PUSH1 0x20 PUSH1 0x0 KECCAK256 SWAP1 JUMPDEST DUP2 SLOAD DUP2 MSTORE SWAP1 PUSH1 0x1 ADD SWAP1 PUSH1 0x20 ADD DUP1 DUP4 GT PUSH2 0x65F JUMPI DUP3 SWAP1 SUB PUSH1 0x1F AND DUP3 ADD SWAP2 JUMPDEST POP POP POP POP POP SWAP1 DUP1 PUSH1 0x1 ADD PUSH1 0x0 SWAP1 SLOAD SWAP1 PUSH2 0x100 EXP SWAP1 DIV PUSH1 0xFF AND SWAP1 DUP1 PUSH1 0x2 ADD SLOAD SWAP1 DUP1 PUSH1 0x3 ADD PUSH1 0x0 SWAP1 SLOAD SWAP1 PUSH2 0x100 EXP SWAP1 DIV PUSH1 0xFF AND SWAP1 POP DUP5 JUMP JUMPDEST CALLER PUSH1 0x0 DUP1 PUSH2 0x100 EXP DUP2 SLOAD DUP2 PUSH20 0xFFFFFFFFFFFFFFFFFFFFFFFFFFFFFFFFFFFFFFFF MUL NOT AND SWAP1 DUP4 PUSH20 0xFFFFFFFFFFFFFFFFFFFFFFFFFFFFFFFFFFFFFFFF AND MUL OR SWAP1 SSTORE POP DUP1 PUSH1 0x1 SWAP1 DUP1 MLOAD SWAP1 PUSH1 0x20 ADD SWAP1 PUSH2 0x708 SWAP3 SWAP2 SWAP1 PUSH2 0x7C2 JUMP JUMPDEST POP POP JUMP JUMPDEST PUSH1 0x0 DUP1 SLOAD SWAP1 PUSH2 0x100 EXP SWAP1 DIV PUSH20 0xFFFFFFFFFFFFFFFFFFFFFFFFFFFFFFFFFFFFFFFF AND PUSH20 0xFFFFFFFFFFFFFFFFFFFFFFFFFFFFFFFFFFFFFFFF AND CALLER PUSH20 0xFFFFFFFFFFFFFFFFFFFFFFFFFFFFFFFFFFFFFFFF AND EQ PUSH2 0x764 JUMPI PUSH1 0x0 DUP1 REVERT JUMPDEST PUSH1 0x1 PUSH1 0x2 PUSH1 0x0 DUP4 PUSH20 0xFFFFFFFFFFFFFFFFFFFFFFFFFFFFFFFFFFFFFFFF AND PUSH20 0xFFFFFFFFFFFFFFFFFFFFFFFFFFFFFFFFFFFFFFFF AND DUP2 MSTORE PUSH1 0x20 ADD SWAP1 DUP2 MSTORE PUSH1 0x20 ADD PUSH1 0x0 KECCAK256 PUSH1 0x1 ADD PUSH1 0x0 PUSH2 0x100 EXP DUP2 SLOAD DUP2 PUSH1 0xFF MUL NOT AND SWAP1 DUP4 ISZERO ISZERO MUL OR SWAP1 SSTORE POP POP JUMP JUMPDEST DUP3 DUP1 SLOAD PUSH2 0x7CE SWAP1 PUSH2 0xBD8 JUMP JUMPDEST SWAP1 PUSH1 0x0 MSTORE PUSH1 0x20 PUSH1 0x0 KECCAK256 SWAP1 PUSH1 0x1F ADD PUSH1 0x20 SWAP1 DIV DUP2 ADD SWAP3 DUP3 PUSH2 0x7F0 JUMPI PUSH1 0x0 DUP6 SSTORE PUSH2 0x837 JUMP JUMPDEST DUP3 PUSH1 0x1F LT PUSH2 0x809 JUMPI DUP1 MLOAD PUSH1 0xFF NOT AND DUP4 DUP1 ADD OR DUP6 SSTORE PUSH2 0x837 JUMP JUMPDEST DUP3 DUP1 ADD PUSH1 0x1 ADD DUP6 SSTORE DUP3 ISZERO PUSH2 0x837 JUMPI SWAP2 DUP3 ADD JUMPDEST DUP3 DUP2 GT ISZERO PUSH2 0x836 JUMPI DUP3 MLOAD DUP3 SSTORE SWAP2 PUSH1 0x20 ADD SWAP2 SWAP1 PUSH1 0x1 ADD SWAP1 PUSH2 0x81B JUMP JUMPDEST JUMPDEST POP SWAP1 POP PUSH2 0x844 SWAP2 SWAP1 PUSH2 0x848 JUMP JUMPDEST POP SWAP1 JUMP JUMPDEST JUMPDEST DUP1 DUP3 GT ISZERO PUSH2 0x861 JUMPI PUSH1 0x0 DUP2 PUSH1 0x0 SWAP1 SSTORE POP PUSH1 0x1 ADD PUSH2 0x849 JUMP JUMPDEST POP SWAP1 JUMP JUMPDEST PUSH1 0x0 PUSH2 0x878 PUSH2 0x873 DUP5 PUSH2 0xB01 JUMP JUMPDEST PUSH2 0xADC JUMP JUMPDEST SWAP1 POP DUP3 DUP2 MSTORE PUSH1 0x20 DUP2 ADD DUP5 DUP5 DUP5 ADD GT ISZERO PUSH2 0x894 JUMPI PUSH2 0x893 PUSH2 0xD45 JUMP JUMPDEST JUMPDEST PUSH2 0x89F DUP5 DUP3 DUP6 PUSH2 0xB96 JUMP JUMPDEST POP SWAP4 SWAP3 POP POP POP JUMP JUMPDEST PUSH1 0x0 DUP2 CALLDATALOAD SWAP1 POP PUSH2 0x8B6 DUP2 PUSH2 0xD65 JUMP JUMPDEST SWAP3 SWAP2 POP POP JUMP JUMPDEST PUSH1 0x0 DUP3 PUSH1 0x1F DUP4 ADD SLT PUSH2 0x8D1 JUMPI PUSH2 0x8D0 PUSH2 0xD40 JUMP JUMPDEST JUMPDEST DUP2 CALLDATALOAD PUSH2 0x8E1 DUP5 DUP3 PUSH1 0x20 DUP7 ADD PUSH2 0x865 JUMP JUMPDEST SWAP2 POP POP SWAP3 SWAP2 POP POP JUMP JUMPDEST PUSH1 0x0 DUP2 CALLDATALOAD SWAP1 POP PUSH2 0x8F9 DUP2 PUSH2 0xD7C JUMP JUMPDEST SWAP3 SWAP2 POP POP JUMP JUMPDEST PUSH1 0x0 PUSH1 0x20 DUP3 DUP5 SUB SLT ISZERO PUSH2 0x915 JUMPI PUSH2 0x914 PUSH2 0xD4F JUMP JUMPDEST JUMPDEST PUSH1 0x0 PUSH2 0x923 DUP5 DUP3 DUP6 ADD PUSH2 0x8A7 JUMP JUMPDEST SWAP2 POP POP SWAP3 SWAP2 POP POP JUMP JUMPDEST PUSH1 0x0 PUSH1 0x20 DUP3 DUP5 SUB SLT ISZERO PUSH2 0x942 JUMPI PUSH2 0x941 PUSH2 0xD4F JUMP JUMPDEST JUMPDEST PUSH1 0x0 DUP3 ADD CALLDATALOAD PUSH8 0xFFFFFFFFFFFFFFFF DUP2 GT ISZERO PUSH2 0x960 JUMPI PUSH2 0x95F PUSH2 0xD4A JUMP JUMPDEST JUMPDEST PUSH2 0x96C DUP5 DUP3 DUP6 ADD PUSH2 0x8BC JUMP JUMPDEST SWAP2 POP POP SWAP3 SWAP2 POP POP JUMP JUMPDEST PUSH1 0x0 PUSH1 0x20 DUP3 DUP5 SUB SLT ISZERO PUSH2 0x98B JUMPI PUSH2 0x98A PUSH2 0xD4F JUMP JUMPDEST JUMPDEST PUSH1 0x0 PUSH2 0x999 DUP5 DUP3 DUP6 ADD PUSH2 0x8EA JUMP JUMPDEST SWAP2 POP POP SWAP3 SWAP2 POP POP JUMP JUMPDEST PUSH2 0x9AB DUP2 PUSH2 0xB4E JUMP JUMPDEST DUP3 MSTORE POP POP JUMP JUMPDEST PUSH2 0x9BA DUP2 PUSH2 0xB60 JUMP JUMPDEST DUP3 MSTORE POP POP JUMP JUMPDEST PUSH1 0x0 PUSH2 0x9CB DUP3 PUSH2 0xB32 JUMP JUMPDEST PUSH2 0x9D5 DUP2 DUP6 PUSH2 0xB3D JUMP JUMPDEST SWAP4 POP PUSH2 0x9E5 DUP2 DUP6 PUSH1 0x20 DUP7 ADD PUSH2 0xBA5 JUMP JUMPDEST PUSH2 0x9EE DUP2 PUSH2 0xD54 JUMP JUMPDEST DUP5 ADD SWAP2 POP POP SWAP3 SWAP2 POP POP JUMP JUMPDEST PUSH2 0xA02 DUP2 PUSH2 0xB8C JUMP JUMPDEST DUP3 MSTORE POP POP JUMP JUMPDEST PUSH1 0x0 PUSH1 0x20 DUP3 ADD SWAP1 POP PUSH2 0xA1D PUSH1 0x0 DUP4 ADD DUP5 PUSH2 0x9A2 JUMP JUMPDEST SWAP3 SWAP2 POP POP JUMP JUMPDEST PUSH1 0x0 PUSH1 0x20 DUP3 ADD SWAP1 POP DUP2 DUP2 SUB PUSH1 0x0 DUP4 ADD MSTORE PUSH2 0xA3D DUP2 DUP5 PUSH2 0x9C0 JUMP JUMPDEST SWAP1 POP SWAP3 SWAP2 POP POP JUMP JUMPDEST PUSH1 0x0 PUSH1 0x80 DUP3 ADD SWAP1 POP DUP2 DUP2 SUB PUSH1 0x0 DUP4 ADD MSTORE PUSH2 0xA5F DUP2 DUP8 PUSH2 0x9C0 JUMP JUMPDEST SWAP1 POP PUSH2 0xA6E PUSH1 0x20 DUP4 ADD DUP7 PUSH2 0x9B1 JUMP JUMPDEST PUSH2 0xA7B PUSH1 0x40 DUP4 ADD DUP6 PUSH2 0x9F9 JUMP JUMPDEST PUSH2 0xA88 PUSH1 0x60 DUP4 ADD DUP5 PUSH2 0x9B1 JUMP JUMPDEST SWAP6 SWAP5 POP POP POP POP POP JUMP JUMPDEST PUSH1 0x0 PUSH1 0x40 DUP3 ADD SWAP1 POP DUP2 DUP2 SUB PUSH1 0x0 DUP4 ADD MSTORE PUSH2 0xAAB DUP2 DUP6 PUSH2 0x9C0 JUMP JUMPDEST SWAP1 POP PUSH2 0xABA PUSH1 0x20 DUP4 ADD DUP5 PUSH2 0x9F9 JUMP JUMPDEST SWAP4 SWAP3 POP POP POP JUMP JUMPDEST PUSH1 0x0 PUSH1 0x20 DUP3 ADD SWAP1 POP PUSH2 0xAD6 PUSH1 0x0 DUP4 ADD DUP5 PUSH2 0x9F9 JUMP JUMPDEST SWAP3 SWAP2 POP POP JUMP JUMPDEST PUSH1 0x0 PUSH2 0xAE6 PUSH2 0xAF7 JUMP JUMPDEST SWAP1 POP PUSH2 0xAF2 DUP3 DUP3 PUSH2 0xC0A JUMP JUMPDEST SWAP2 SWAP1 POP JUMP JUMPDEST PUSH1 0x0 PUSH1 0x40 MLOAD SWAP1 POP SWAP1 JUMP JUMPDEST PUSH1 0x0 PUSH8 0xFFFFFFFFFFFFFFFF DUP3 GT ISZERO PUSH2 0xB1C JUMPI PUSH2 0xB1B PUSH2 0xD11 JUMP JUMPDEST JUMPDEST PUSH2 0xB25 DUP3 PUSH2 0xD54 JUMP JUMPDEST SWAP1 POP PUSH1 0x20 DUP2 ADD SWAP1 POP SWAP2 SWAP1 POP JUMP JUMPDEST PUSH1 0x0 DUP2 MLOAD SWAP1 POP SWAP2 SWAP1 POP JUMP JUMPDEST PUSH1 0x0 DUP3 DUP3 MSTORE PUSH1 0x20 DUP3 ADD SWAP1 POP SWAP3 SWAP2 POP POP JUMP JUMPDEST PUSH1 0x0 PUSH2 0xB59 DUP3 PUSH2 0xB6C JUMP JUMPDEST SWAP1 POP SWAP2 SWAP1 POP JUMP JUMPDEST PUSH1 0x0 DUP2 ISZERO ISZERO SWAP1 POP SWAP2 SWAP1 POP JUMP JUMPDEST PUSH1 0x0 PUSH20 0xFFFFFFFFFFFFFFFFFFFFFFFFFFFFFFFFFFFFFFFF DUP3 AND SWAP1 POP SWAP2 SWAP1 POP JUMP JUMPDEST PUSH1 0x0 DUP2 SWAP1 POP SWAP2 SWAP1 POP JUMP JUMPDEST DUP3 DUP2 DUP4 CALLDATACOPY PUSH1 0x0 DUP4 DUP4 ADD MSTORE POP POP POP JUMP JUMPDEST PUSH1 0x0 JUMPDEST DUP4 DUP2 LT ISZERO PUSH2 0xBC3 JUMPI DUP1 DUP3 ADD MLOAD DUP2 DUP5 ADD MSTORE PUSH1 0x20 DUP2 ADD SWAP1 POP PUSH2 0xBA8 JUMP JUMPDEST DUP4 DUP2 GT ISZERO PUSH2 0xBD2 JUMPI PUSH1 0x0 DUP5 DUP5 ADD MSTORE JUMPDEST POP POP POP POP JUMP JUMPDEST PUSH1 0x0 PUSH1 0x2 DUP3 DIV SWAP1 POP PUSH1 0x1 DUP3 AND DUP1 PUSH2 0xBF0 JUMPI PUSH1 0x7F DUP3 AND SWAP2 POP JUMPDEST PUSH1 0x20 DUP3 LT DUP2 EQ ISZERO PUSH2 0xC04 JUMPI PUSH2 0xC03 PUSH2 0xCB3 JUMP JUMPDEST JUMPDEST POP SWAP2 SWAP1 POP JUMP JUMPDEST PUSH2 0xC13 DUP3 PUSH2 0xD54 JUMP JUMPDEST DUP2 ADD DUP2 DUP2 LT PUSH8 0xFFFFFFFFFFFFFFFF DUP3 GT OR ISZERO PUSH2 0xC32 JUMPI PUSH2 0xC31 PUSH2 0xD11 JUMP JUMPDEST JUMPDEST DUP1 PUSH1 0x40 MSTORE POP POP POP JUMP JUMPDEST PUSH1 0x0 PUSH2 0xC46 DUP3 PUSH2 0xB8C JUMP JUMPDEST SWAP2 POP PUSH32 0xFFFFFFFFFFFFFFFFFFFFFFFFFFFFFFFFFFFFFFFFFFFFFFFFFFFFFFFFFFFFFFFF DUP3 EQ ISZERO PUSH2 0xC79 JUMPI PUSH2 0xC78 PUSH2 0xC84 JUMP JUMPDEST JUMPDEST PUSH1 0x1 DUP3 ADD SWAP1 POP SWAP2 SWAP1 POP JUMP JUMPDEST PUSH32 0x4E487B7100000000000000000000000000000000000000000000000000000000 PUSH1 0x0 MSTORE PUSH1 0x11 PUSH1 0x4 MSTORE PUSH1 0x24 PUSH1 0x0 REVERT JUMPDEST PUSH32 0x4E487B7100000000000000000000000000000000000000000000000000000000 PUSH1 0x0 MSTORE PUSH1 0x22 PUSH1 0x4 MSTORE PUSH1 0x24 PUSH1 0x0 REVERT JUMPDEST PUSH32 0x4E487B7100000000000000000000000000000000000000000000000000000000 PUSH1 0x0 MSTORE PUSH1 0x32 PUSH1 0x4 MSTORE PUSH1 0x24 PUSH1 0x0 REVERT JUMPDEST PUSH32 0x4E487B7100000000000000000000000000000000000000000000000000000000 PUSH1 0x0 MSTORE PUSH1 0x41 PUSH1 0x4 MSTORE PUSH1 0x24 PUSH1 0x0 REVERT JUMPDEST PUSH1 0x0 DUP1 REVERT JUMPDEST PUSH1 0x0 DUP1 REVERT JUMPDEST PUSH1 0x0 DUP1 REVERT JUMPDEST PUSH1 0x0 DUP1 REVERT JUMPDEST PUSH1 0x0 PUSH1 0x1F NOT PUSH1 0x1F DUP4 ADD AND SWAP1 POP SWAP2 SWAP1 POP JUMP JUMPDEST PUSH2 0xD6E DUP2 PUSH2 0xB4E JUMP JUMPDEST DUP2 EQ PUSH2 0xD79 JUMPI PUSH1 0x0 DUP1 REVERT JUMPDEST POP JUMP JUMPDEST PUSH2 0xD85 DUP2 PUSH2 0xB8C JUMP JUMPDEST DUP2 EQ PUSH2 0xD90 JUMPI PUSH1 0x0 DUP1 REVERT JUMPDEST POP JUMP INVALID LOG2 PUSH5 0x6970667358 0x22 SLT KECCAK256 0xD 0x4C 0xDE 0xE5 0x21 GASLIMIT SWAP14 0xEC 0x5D 0xC4 PUSH14 0x67ED842BB5B406E46153E43B8D9A KECCAK256 CALLVALUE 0xB8 SUB 0xE2 0xD0 0xB1 PUSH5 0x736F6C6343 STOP ADDMOD SMOD STOP CALLER "
				},
				"gasEstimates": {
					"creation": {
						"codeDepositCost": "705800",
						"executionCost": "741",
						"totalCost": "706541"
					},
					"external": {
						"addCandidate(string)": "infinite",
						"authorizeVoter(address)": "27073",
						"candidates(uint256)": "infinite",
						"electionName()": "infinite",
						"getNumCandidates()": "2534",
						"owner()": "2533",
						"startElection(string)": "infinite",
						"totalVotes()": "2452",
						"vote(uint256)": "infinite",
						"voters(address)": "infinite"
					}
				},
				"methodIdentifiers": {
					"addCandidate(string)": "462e91ec",
					"authorizeVoter(address)": "fd47b368",
					"candidates(uint256)": "3477ee2e",
					"electionName()": "85e8e7a7",
					"getNumCandidates()": "5c06b06e",
					"owner()": "8da5cb5b",
					"startElection(string)": "f544bed8",
					"totalVotes()": "0d15fd77",
					"vote(uint256)": "0121b93f",
					"voters(address)": "a3ec138d"
				}
			},
			"storageLayout": {
				"storage": [
					{
						"astId": 17,
						"contract": "Election.sol:Election",
						"label": "owner",
						"offset": 0,
						"slot": "0",
						"type": "t_address"
					},
					{
						"astId": 19,
						"contract": "Election.sol:Election",
						"label": "electionName",
						"offset": 0,
						"slot": "1",
						"type": "t_string_storage"
					},
					{
						"astId": 24,
						"contract": "Election.sol:Election",
						"label": "voters",
						"offset": 0,
						"slot": "2",
						"type": "t_mapping(t_address,t_struct(Voter)15_storage)"
					},
					{
						"astId": 28,
						"contract": "Election.sol:Election",
						"label": "candidates",
						"offset": 0,
						"slot": "3",
						"type": "t_array(t_struct(Candidate)6_storage)dyn_storage"
					},
					{
						"astId": 30,
						"contract": "Election.sol:Election",
						"label": "totalVotes",
						"offset": 0,
						"slot": "4",
						"type": "t_uint256"
					}
				],
				"types": {
					"t_address": {
						"encoding": "inplace",
						"label": "address",
						"numberOfBytes": "20"
					},
					"t_array(t_struct(Candidate)6_storage)dyn_storage": {
						"base": "t_struct(Candidate)6_storage",
						"encoding": "dynamic_array",
						"label": "struct Election.Candidate[]",
						"numberOfBytes": "32"
					},
					"t_bool": {
						"encoding": "inplace",
						"label": "bool",
						"numberOfBytes": "1"
					},
					"t_mapping(t_address,t_struct(Voter)15_storage)": {
						"encoding": "mapping",
						"key": "t_address",
						"label": "mapping(address => struct Election.Voter)",
						"numberOfBytes": "32",
						"value": "t_struct(Voter)15_storage"
					},
					"t_string_storage": {
						"encoding": "bytes",
						"label": "string",
						"numberOfBytes": "32"
					},
					"t_struct(Candidate)6_storage": {
						"encoding": "inplace",
						"label": "struct Election.Candidate",
						"members": [
							{
								"astId": 3,
								"contract": "Election.sol:Election",
								"label": "name",
								"offset": 0,
								"slot": "0",
								"type": "t_string_storage"
							},
							{
								"astId": 5,
								"contract": "Election.sol:Election",
								"label": "numVotes",
								"offset": 0,
								"slot": "1",
								"type": "t_uint256"
							}
						],
						"numberOfBytes": "64"
					},
					"t_struct(Voter)15_storage": {
						"encoding": "inplace",
						"label": "struct Election.Voter",
						"members": [
							{
								"astId": 8,
								"contract": "Election.sol:Election",
								"label": "name",
								"offset": 0,
								"slot": "0",
								"type": "t_string_storage"
							},
							{
								"astId": 10,
								"contract": "Election.sol:Election",
								"label": "authorised",
								"offset": 0,
								"slot": "1",
								"type": "t_bool"
							},
							{
								"astId": 12,
								"contract": "Election.sol:Election",
								"label": "whom",
								"offset": 0,
								"slot": "2",
								"type": "t_uint256"
							},
							{
								"astId": 14,
								"contract": "Election.sol:Election",
								"label": "voted",
								"offset": 0,
								"slot": "3",
								"type": "t_bool"
							}
						],
						"numberOfBytes": "128"
					},
					"t_uint256": {
						"encoding": "inplace",
						"label": "uint256",
						"numberOfBytes": "32"
					}
				}
			},
			"userdoc": {
				"kind": "user",
				"methods": {},
				"version": 1
			}
		}
	}
}