{
	"Election.sol": {
		"Election": {
			"abi": [
				{
					"inputs": [
						{
							"internalType": "uint256",
							"name": "",
							"type": "uint256"
						}
					],
					"name": "candidates",
					"outputs": [
						{
							"internalType": "string",
							"name": "name",
							"type": "string"
						},
						{
							"internalType": "uint256",
							"name": "numVotes",
							"type": "uint256"
						}
					],
					"stateMutability": "view",
					"type": "function"
				},
				{
					"inputs": [],
					"name": "electionName",
					"outputs": [
						{
							"internalType": "string",
							"name": "",
							"type": "string"
						}
					],
					"stateMutability": "view",
					"type": "function"
				},
				{
					"inputs": [],
					"name": "owner",
					"outputs": [
						{
							"internalType": "address",
							"name": "",
							"type": "address"
						}
					],
					"stateMutability": "view",
					"type": "function"
				},
				{
					"inputs": [
						{
							"internalType": "string",
							"name": "electionName",
							"type": "string"
						}
					],
					"name": "startElection",
					"outputs": [],
					"stateMutability": "nonpayable",
					"type": "function"
				},
				{
					"inputs": [],
					"name": "totalVotes",
					"outputs": [
						{
							"internalType": "uint256",
							"name": "",
							"type": "uint256"
						}
					],
					"stateMutability": "view",
					"type": "function"
				},
				{
					"inputs": [
						{
							"internalType": "address",
							"name": "",
							"type": "address"
						}
					],
					"name": "voters",
					"outputs": [
						{
							"internalType": "string",
							"name": "name",
							"type": "string"
						},
						{
							"internalType": "bool",
							"name": "authorised",
							"type": "bool"
						},
						{
							"internalType": "uint256",
							"name": "whom",
							"type": "uint256"
						},
						{
							"internalType": "bool",
							"name": "voted",
							"type": "bool"
						}
					],
					"stateMutability": "view",
					"type": "function"
				}
			],
			"devdoc": {
				"kind": "dev",
				"methods": {},
				"version": 1
			},
			"evm": {
				"assembly": "    /* \"Election.sol\":71:940  contract Election{... */\n  mstore(0x40, 0x80)\n  callvalue\n  dup1\n  iszero\n  tag_1\n  jumpi\n  0x00\n  dup1\n  revert\ntag_1:\n  pop\n  dataSize(sub_0)\n  dup1\n  dataOffset(sub_0)\n  0x00\n  codecopy\n  0x00\n  return\nstop\n\nsub_0: assembly {\n        /* \"Election.sol\":71:940  contract Election{... */\n      mstore(0x40, 0x80)\n      callvalue\n      dup1\n      iszero\n      tag_1\n      jumpi\n      0x00\n      dup1\n      revert\n    tag_1:\n      pop\n      jumpi(tag_2, lt(calldatasize, 0x04))\n      shr(0xe0, calldataload(0x00))\n      dup1\n      0x0d15fd77\n      eq\n      tag_3\n      jumpi\n      dup1\n      0x3477ee2e\n      eq\n      tag_4\n      jumpi\n      dup1\n      0x85e8e7a7\n      eq\n      tag_5\n      jumpi\n      dup1\n      0x8da5cb5b\n      eq\n      tag_6\n      jumpi\n      dup1\n      0xa3ec138d\n      eq\n      tag_7\n      jumpi\n      dup1\n      0xf544bed8\n      eq\n      tag_8\n      jumpi\n    tag_2:\n      0x00\n      dup1\n      revert\n        /* \"Election.sol\":779:801  uint public totalVotes */\n    tag_3:\n      tag_9\n      tag_10\n      jump\t// in\n    tag_9:\n      mload(0x40)\n      tag_11\n      swap2\n      swap1\n      tag_12\n      jump\t// in\n    tag_11:\n      mload(0x40)\n      dup1\n      swap2\n      sub\n      swap1\n      return\n        /* \"Election.sol\":708:737  Candidate[] public candidates */\n    tag_4:\n      tag_13\n      0x04\n      dup1\n      calldatasize\n      sub\n      dup2\n      add\n      swap1\n      tag_14\n      swap2\n      swap1\n      tag_15\n      jump\t// in\n    tag_14:\n      tag_16\n      jump\t// in\n    tag_13:\n      mload(0x40)\n      tag_17\n      swap3\n      swap2\n      swap1\n      tag_18\n      jump\t// in\n    tag_17:\n      mload(0x40)\n      dup1\n      swap2\n      sub\n      swap1\n      return\n        /* \"Election.sol\":602:628  string public electionName */\n    tag_5:\n      tag_19\n      tag_20\n      jump\t// in\n    tag_19:\n      mload(0x40)\n      tag_21\n      swap2\n      swap1\n      tag_22\n      jump\t// in\n    tag_21:\n      mload(0x40)\n      dup1\n      swap2\n      sub\n      swap1\n      return\n        /* \"Election.sol\":548:568  address public owner */\n    tag_6:\n      tag_23\n      tag_24\n      jump\t// in\n    tag_23:\n      mload(0x40)\n      tag_25\n      swap2\n      swap1\n      tag_26\n      jump\t// in\n    tag_25:\n      mload(0x40)\n      dup1\n      swap2\n      sub\n      swap1\n      return\n        /* \"Election.sol\":635:674  mapping(address => Voter) public voters */\n    tag_7:\n      tag_27\n      0x04\n      dup1\n      calldatasize\n      sub\n      dup2\n      add\n      swap1\n      tag_28\n      swap2\n      swap1\n      tag_29\n      jump\t// in\n    tag_28:\n      tag_30\n      jump\t// in\n    tag_27:\n      mload(0x40)\n      tag_31\n      swap5\n      swap4\n      swap3\n      swap2\n      swap1\n      tag_32\n      jump\t// in\n    tag_31:\n      mload(0x40)\n      dup1\n      swap2\n      sub\n      swap1\n      return\n        /* \"Election.sol\":808:935  function startElection(string memory electionName) public {... */\n    tag_8:\n      tag_33\n      0x04\n      dup1\n      calldatasize\n      sub\n      dup2\n      add\n      swap1\n      tag_34\n      swap2\n      swap1\n      tag_35\n      jump\t// in\n    tag_34:\n      tag_36\n      jump\t// in\n    tag_33:\n      stop\n        /* \"Election.sol\":779:801  uint public totalVotes */\n    tag_10:\n      sload(0x04)\n      dup2\n      jump\t// out\n        /* \"Election.sol\":708:737  Candidate[] public candidates */\n    tag_16:\n      0x03\n      dup2\n      dup2\n      sload\n      dup2\n      lt\n      tag_37\n      jumpi\n      0x00\n      dup1\n      revert\n    tag_37:\n      swap1\n      0x00\n      mstore\n      keccak256(0x00, 0x20)\n      swap1\n      0x02\n      mul\n      add\n      0x00\n      swap2\n      pop\n      swap1\n      pop\n      dup1\n      0x00\n      add\n      dup1\n      sload\n      tag_39\n      swap1\n      tag_40\n      jump\t// in\n    tag_39:\n      dup1\n      0x1f\n      add\n      0x20\n      dup1\n      swap2\n      div\n      mul\n      0x20\n      add\n      mload(0x40)\n      swap1\n      dup2\n      add\n      0x40\n      mstore\n      dup1\n      swap3\n      swap2\n      swap1\n      dup2\n      dup2\n      mstore\n      0x20\n      add\n      dup3\n      dup1\n      sload\n      tag_41\n      swap1\n      tag_40\n      jump\t// in\n    tag_41:\n      dup1\n      iszero\n      tag_42\n      jumpi\n      dup1\n      0x1f\n      lt\n      tag_43\n      jumpi\n      0x0100\n      dup1\n      dup4\n      sload\n      div\n      mul\n      dup4\n      mstore\n      swap2\n      0x20\n      add\n      swap2\n      jump(tag_42)\n    tag_43:\n      dup3\n      add\n      swap2\n      swap1\n      0x00\n      mstore\n      keccak256(0x00, 0x20)\n      swap1\n    tag_44:\n      dup2\n      sload\n      dup2\n      mstore\n      swap1\n      0x01\n      add\n      swap1\n      0x20\n      add\n      dup1\n      dup4\n      gt\n      tag_44\n      jumpi\n      dup3\n      swap1\n      sub\n      0x1f\n      and\n      dup3\n      add\n      swap2\n    tag_42:\n      pop\n      pop\n      pop\n      pop\n      pop\n      swap1\n      dup1\n      0x01\n      add\n      sload\n      swap1\n      pop\n      dup3\n      jump\t// out\n        /* \"Election.sol\":602:628  string public electionName */\n    tag_20:\n      0x01\n      dup1\n      sload\n      tag_45\n      swap1\n      tag_40\n      jump\t// in\n    tag_45:\n      dup1\n      0x1f\n      add\n      0x20\n      dup1\n      swap2\n      div\n      mul\n      0x20\n      add\n      mload(0x40)\n      swap1\n      dup2\n      add\n      0x40\n      mstore\n      dup1\n      swap3\n      swap2\n      swap1\n      dup2\n      dup2\n      mstore\n      0x20\n      add\n      dup3\n      dup1\n      sload\n      tag_46\n      swap1\n      tag_40\n      jump\t// in\n    tag_46:\n      dup1\n      iszero\n      tag_47\n      jumpi\n      dup1\n      0x1f\n      lt\n      tag_48\n      jumpi\n      0x0100\n      dup1\n      dup4\n      sload\n      div\n      mul\n      dup4\n      mstore\n      swap2\n      0x20\n      add\n      swap2\n      jump(tag_47)\n    tag_48:\n      dup3\n      add\n      swap2\n      swap1\n      0x00\n      mstore\n      keccak256(0x00, 0x20)\n      swap1\n    tag_49:\n      dup2\n      sload\n      dup2\n      mstore\n      swap1\n      0x01\n      add\n      swap1\n      0x20\n      add\n      dup1\n      dup4\n      gt\n      tag_49\n      jumpi\n      dup3\n      swap1\n      sub\n      0x1f\n      and\n      dup3\n      add\n      swap2\n    tag_47:\n      pop\n      pop\n      pop\n      pop\n      pop\n      dup2\n      jump\t// out\n        /* \"Election.sol\":548:568  address public owner */\n    tag_24:\n      0x00\n      dup1\n      sload\n      swap1\n      0x0100\n      exp\n      swap1\n      div\n      0xffffffffffffffffffffffffffffffffffffffff\n      and\n      dup2\n      jump\t// out\n        /* \"Election.sol\":635:674  mapping(address => Voter) public voters */\n    tag_30:\n      mstore(0x20, 0x02)\n      dup1\n      0x00\n      mstore\n      keccak256(0x00, 0x40)\n      0x00\n      swap2\n      pop\n      swap1\n      pop\n      dup1\n      0x00\n      add\n      dup1\n      sload\n      tag_50\n      swap1\n      tag_40\n      jump\t// in\n    tag_50:\n      dup1\n      0x1f\n      add\n      0x20\n      dup1\n      swap2\n      div\n      mul\n      0x20\n      add\n      mload(0x40)\n      swap1\n      dup2\n      add\n      0x40\n      mstore\n      dup1\n      swap3\n      swap2\n      swap1\n      dup2\n      dup2\n      mstore\n      0x20\n      add\n      dup3\n      dup1\n      sload\n      tag_51\n      swap1\n      tag_40\n      jump\t// in\n    tag_51:\n      dup1\n      iszero\n      tag_52\n      jumpi\n      dup1\n      0x1f\n      lt\n      tag_53\n      jumpi\n      0x0100\n      dup1\n      dup4\n      sload\n      div\n      mul\n      dup4\n      mstore\n      swap2\n      0x20\n      add\n      swap2\n      jump(tag_52)\n    tag_53:\n      dup3\n      add\n      swap2\n      swap1\n      0x00\n      mstore\n      keccak256(0x00, 0x20)\n      swap1\n    tag_54:\n      dup2\n      sload\n      dup2\n      mstore\n      swap1\n      0x01\n      add\n      swap1\n      0x20\n      add\n      dup1\n      dup4\n      gt\n      tag_54\n      jumpi\n      dup3\n      swap1\n      sub\n      0x1f\n      and\n      dup3\n      add\n      swap2\n    tag_52:\n      pop\n      pop\n      pop\n      pop\n      pop\n      swap1\n      dup1\n      0x01\n      add\n      0x00\n      swap1\n      sload\n      swap1\n      0x0100\n      exp\n      swap1\n      div\n      0xff\n      and\n      swap1\n      dup1\n      0x02\n      add\n      sload\n      swap1\n      dup1\n      0x03\n      add\n      0x00\n      swap1\n      sload\n      swap1\n      0x0100\n      exp\n      swap1\n      div\n      0xff\n      and\n      swap1\n      pop\n      dup5\n      jump\t// out\n        /* \"Election.sol\":808:935  function startElection(string memory electionName) public {... */\n    tag_36:\n        /* \"Election.sol\":918:928  msg.sender */\n      caller\n        /* \"Election.sol\":910:915  owner */\n      0x00\n      dup1\n        /* \"Election.sol\":910:928  owner = msg.sender */\n      0x0100\n      exp\n      dup2\n      sload\n      dup2\n      0xffffffffffffffffffffffffffffffffffffffff\n      mul\n      not\n      and\n      swap1\n      dup4\n      0xffffffffffffffffffffffffffffffffffffffff\n      and\n      mul\n      or\n      swap1\n      sstore\n      pop\n        /* \"Election.sol\":808:935  function startElection(string memory electionName) public {... */\n      pop\n      jump\t// out\n        /* \"#utility.yul\":7:419   */\n    tag_57:\n        /* \"#utility.yul\":85:90   */\n      0x00\n        /* \"#utility.yul\":110:176   */\n      tag_59\n        /* \"#utility.yul\":126:175   */\n      tag_60\n        /* \"#utility.yul\":168:174   */\n      dup5\n        /* \"#utility.yul\":126:175   */\n      tag_61\n      jump\t// in\n    tag_60:\n        /* \"#utility.yul\":110:176   */\n      tag_62\n      jump\t// in\n    tag_59:\n        /* \"#utility.yul\":101:176   */\n      swap1\n      pop\n        /* \"#utility.yul\":199:205   */\n      dup3\n        /* \"#utility.yul\":192:197   */\n      dup2\n        /* \"#utility.yul\":185:206   */\n      mstore\n        /* \"#utility.yul\":237:241   */\n      0x20\n        /* \"#utility.yul\":230:235   */\n      dup2\n        /* \"#utility.yul\":226:242   */\n      add\n        /* \"#utility.yul\":275:278   */\n      dup5\n        /* \"#utility.yul\":266:272   */\n      dup5\n        /* \"#utility.yul\":261:264   */\n      dup5\n        /* \"#utility.yul\":257:273   */\n      add\n        /* \"#utility.yul\":254:279   */\n      gt\n        /* \"#utility.yul\":251:363   */\n      iszero\n      tag_63\n      jumpi\n        /* \"#utility.yul\":282:361   */\n      tag_64\n      tag_65\n      jump\t// in\n    tag_64:\n        /* \"#utility.yul\":251:363   */\n    tag_63:\n        /* \"#utility.yul\":372:413   */\n      tag_66\n        /* \"#utility.yul\":406:412   */\n      dup5\n        /* \"#utility.yul\":401:404   */\n      dup3\n        /* \"#utility.yul\":396:399   */\n      dup6\n        /* \"#utility.yul\":372:413   */\n      tag_67\n      jump\t// in\n    tag_66:\n        /* \"#utility.yul\":91:419   */\n      pop\n        /* \"#utility.yul\":7:419   */\n      swap4\n      swap3\n      pop\n      pop\n      pop\n      jump\t// out\n        /* \"#utility.yul\":425:564   */\n    tag_68:\n        /* \"#utility.yul\":471:476   */\n      0x00\n        /* \"#utility.yul\":509:515   */\n      dup2\n        /* \"#utility.yul\":496:516   */\n      calldataload\n        /* \"#utility.yul\":487:516   */\n      swap1\n      pop\n        /* \"#utility.yul\":525:558   */\n      tag_70\n        /* \"#utility.yul\":552:557   */\n      dup2\n        /* \"#utility.yul\":525:558   */\n      tag_71\n      jump\t// in\n    tag_70:\n        /* \"#utility.yul\":425:564   */\n      swap3\n      swap2\n      pop\n      pop\n      jump\t// out\n        /* \"#utility.yul\":584:924   */\n    tag_72:\n        /* \"#utility.yul\":640:645   */\n      0x00\n        /* \"#utility.yul\":689:692   */\n      dup3\n        /* \"#utility.yul\":682:686   */\n      0x1f\n        /* \"#utility.yul\":674:680   */\n      dup4\n        /* \"#utility.yul\":670:687   */\n      add\n        /* \"#utility.yul\":666:693   */\n      slt\n        /* \"#utility.yul\":656:778   */\n      tag_74\n      jumpi\n        /* \"#utility.yul\":697:776   */\n      tag_75\n      tag_76\n      jump\t// in\n    tag_75:\n        /* \"#utility.yul\":656:778   */\n    tag_74:\n        /* \"#utility.yul\":814:820   */\n      dup2\n        /* \"#utility.yul\":801:821   */\n      calldataload\n        /* \"#utility.yul\":839:918   */\n      tag_77\n        /* \"#utility.yul\":914:917   */\n      dup5\n        /* \"#utility.yul\":906:912   */\n      dup3\n        /* \"#utility.yul\":899:903   */\n      0x20\n        /* \"#utility.yul\":891:897   */\n      dup7\n        /* \"#utility.yul\":887:904   */\n      add\n        /* \"#utility.yul\":839:918   */\n      tag_57\n      jump\t// in\n    tag_77:\n        /* \"#utility.yul\":830:918   */\n      swap2\n      pop\n        /* \"#utility.yul\":646:924   */\n      pop\n        /* \"#utility.yul\":584:924   */\n      swap3\n      swap2\n      pop\n      pop\n      jump\t// out\n        /* \"#utility.yul\":930:1069   */\n    tag_78:\n        /* \"#utility.yul\":976:981   */\n      0x00\n        /* \"#utility.yul\":1014:1020   */\n      dup2\n        /* \"#utility.yul\":1001:1021   */\n      calldataload\n        /* \"#utility.yul\":992:1021   */\n      swap1\n      pop\n        /* \"#utility.yul\":1030:1063   */\n      tag_80\n        /* \"#utility.yul\":1057:1062   */\n      dup2\n        /* \"#utility.yul\":1030:1063   */\n      tag_81\n      jump\t// in\n    tag_80:\n        /* \"#utility.yul\":930:1069   */\n      swap3\n      swap2\n      pop\n      pop\n      jump\t// out\n        /* \"#utility.yul\":1075:1404   */\n    tag_29:\n        /* \"#utility.yul\":1134:1140   */\n      0x00\n        /* \"#utility.yul\":1183:1185   */\n      0x20\n        /* \"#utility.yul\":1171:1180   */\n      dup3\n        /* \"#utility.yul\":1162:1169   */\n      dup5\n        /* \"#utility.yul\":1158:1181   */\n      sub\n        /* \"#utility.yul\":1154:1186   */\n      slt\n        /* \"#utility.yul\":1151:1270   */\n      iszero\n      tag_83\n      jumpi\n        /* \"#utility.yul\":1189:1268   */\n      tag_84\n      tag_85\n      jump\t// in\n    tag_84:\n        /* \"#utility.yul\":1151:1270   */\n    tag_83:\n        /* \"#utility.yul\":1309:1310   */\n      0x00\n        /* \"#utility.yul\":1334:1387   */\n      tag_86\n        /* \"#utility.yul\":1379:1386   */\n      dup5\n        /* \"#utility.yul\":1370:1376   */\n      dup3\n        /* \"#utility.yul\":1359:1368   */\n      dup6\n        /* \"#utility.yul\":1355:1377   */\n      add\n        /* \"#utility.yul\":1334:1387   */\n      tag_68\n      jump\t// in\n    tag_86:\n        /* \"#utility.yul\":1324:1387   */\n      swap2\n      pop\n        /* \"#utility.yul\":1280:1397   */\n      pop\n        /* \"#utility.yul\":1075:1404   */\n      swap3\n      swap2\n      pop\n      pop\n      jump\t// out\n        /* \"#utility.yul\":1410:1919   */\n    tag_35:\n        /* \"#utility.yul\":1479:1485   */\n      0x00\n        /* \"#utility.yul\":1528:1530   */\n      0x20\n        /* \"#utility.yul\":1516:1525   */\n      dup3\n        /* \"#utility.yul\":1507:1514   */\n      dup5\n        /* \"#utility.yul\":1503:1526   */\n      sub\n        /* \"#utility.yul\":1499:1531   */\n      slt\n        /* \"#utility.yul\":1496:1615   */\n      iszero\n      tag_88\n      jumpi\n        /* \"#utility.yul\":1534:1613   */\n      tag_89\n      tag_85\n      jump\t// in\n    tag_89:\n        /* \"#utility.yul\":1496:1615   */\n    tag_88:\n        /* \"#utility.yul\":1682:1683   */\n      0x00\n        /* \"#utility.yul\":1671:1680   */\n      dup3\n        /* \"#utility.yul\":1667:1684   */\n      add\n        /* \"#utility.yul\":1654:1685   */\n      calldataload\n        /* \"#utility.yul\":1712:1730   */\n      0xffffffffffffffff\n        /* \"#utility.yul\":1704:1710   */\n      dup2\n        /* \"#utility.yul\":1701:1731   */\n      gt\n        /* \"#utility.yul\":1698:1815   */\n      iszero\n      tag_90\n      jumpi\n        /* \"#utility.yul\":1734:1813   */\n      tag_91\n      tag_92\n      jump\t// in\n    tag_91:\n        /* \"#utility.yul\":1698:1815   */\n    tag_90:\n        /* \"#utility.yul\":1839:1902   */\n      tag_93\n        /* \"#utility.yul\":1894:1901   */\n      dup5\n        /* \"#utility.yul\":1885:1891   */\n      dup3\n        /* \"#utility.yul\":1874:1883   */\n      dup6\n        /* \"#utility.yul\":1870:1892   */\n      add\n        /* \"#utility.yul\":1839:1902   */\n      tag_72\n      jump\t// in\n    tag_93:\n        /* \"#utility.yul\":1829:1902   */\n      swap2\n      pop\n        /* \"#utility.yul\":1625:1912   */\n      pop\n        /* \"#utility.yul\":1410:1919   */\n      swap3\n      swap2\n      pop\n      pop\n      jump\t// out\n        /* \"#utility.yul\":1925:2254   */\n    tag_15:\n        /* \"#utility.yul\":1984:1990   */\n      0x00\n        /* \"#utility.yul\":2033:2035   */\n      0x20\n        /* \"#utility.yul\":2021:2030   */\n      dup3\n        /* \"#utility.yul\":2012:2019   */\n      dup5\n        /* \"#utility.yul\":2008:2031   */\n      sub\n        /* \"#utility.yul\":2004:2036   */\n      slt\n        /* \"#utility.yul\":2001:2120   */\n      iszero\n      tag_95\n      jumpi\n        /* \"#utility.yul\":2039:2118   */\n      tag_96\n      tag_85\n      jump\t// in\n    tag_96:\n        /* \"#utility.yul\":2001:2120   */\n    tag_95:\n        /* \"#utility.yul\":2159:2160   */\n      0x00\n        /* \"#utility.yul\":2184:2237   */\n      tag_97\n        /* \"#utility.yul\":2229:2236   */\n      dup5\n        /* \"#utility.yul\":2220:2226   */\n      dup3\n        /* \"#utility.yul\":2209:2218   */\n      dup6\n        /* \"#utility.yul\":2205:2227   */\n      add\n        /* \"#utility.yul\":2184:2237   */\n      tag_78\n      jump\t// in\n    tag_97:\n        /* \"#utility.yul\":2174:2237   */\n      swap2\n      pop\n        /* \"#utility.yul\":2130:2247   */\n      pop\n        /* \"#utility.yul\":1925:2254   */\n      swap3\n      swap2\n      pop\n      pop\n      jump\t// out\n        /* \"#utility.yul\":2260:2378   */\n    tag_98:\n        /* \"#utility.yul\":2347:2371   */\n      tag_100\n        /* \"#utility.yul\":2365:2370   */\n      dup2\n        /* \"#utility.yul\":2347:2371   */\n      tag_101\n      jump\t// in\n    tag_100:\n        /* \"#utility.yul\":2342:2345   */\n      dup3\n        /* \"#utility.yul\":2335:2372   */\n      mstore\n        /* \"#utility.yul\":2260:2378   */\n      pop\n      pop\n      jump\t// out\n        /* \"#utility.yul\":2384:2493   */\n    tag_102:\n        /* \"#utility.yul\":2465:2486   */\n      tag_104\n        /* \"#utility.yul\":2480:2485   */\n      dup2\n        /* \"#utility.yul\":2465:2486   */\n      tag_105\n      jump\t// in\n    tag_104:\n        /* \"#utility.yul\":2460:2463   */\n      dup3\n        /* \"#utility.yul\":2453:2487   */\n      mstore\n        /* \"#utility.yul\":2384:2493   */\n      pop\n      pop\n      jump\t// out\n        /* \"#utility.yul\":2499:2863   */\n    tag_106:\n        /* \"#utility.yul\":2587:2590   */\n      0x00\n        /* \"#utility.yul\":2615:2654   */\n      tag_108\n        /* \"#utility.yul\":2648:2653   */\n      dup3\n        /* \"#utility.yul\":2615:2654   */\n      tag_109\n      jump\t// in\n    tag_108:\n        /* \"#utility.yul\":2670:2741   */\n      tag_110\n        /* \"#utility.yul\":2734:2740   */\n      dup2\n        /* \"#utility.yul\":2729:2732   */\n      dup6\n        /* \"#utility.yul\":2670:2741   */\n      tag_111\n      jump\t// in\n    tag_110:\n        /* \"#utility.yul\":2663:2741   */\n      swap4\n      pop\n        /* \"#utility.yul\":2750:2802   */\n      tag_112\n        /* \"#utility.yul\":2795:2801   */\n      dup2\n        /* \"#utility.yul\":2790:2793   */\n      dup6\n        /* \"#utility.yul\":2783:2787   */\n      0x20\n        /* \"#utility.yul\":2776:2781   */\n      dup7\n        /* \"#utility.yul\":2772:2788   */\n      add\n        /* \"#utility.yul\":2750:2802   */\n      tag_113\n      jump\t// in\n    tag_112:\n        /* \"#utility.yul\":2827:2856   */\n      tag_114\n        /* \"#utility.yul\":2849:2855   */\n      dup2\n        /* \"#utility.yul\":2827:2856   */\n      tag_115\n      jump\t// in\n    tag_114:\n        /* \"#utility.yul\":2822:2825   */\n      dup5\n        /* \"#utility.yul\":2818:2857   */\n      add\n        /* \"#utility.yul\":2811:2857   */\n      swap2\n      pop\n        /* \"#utility.yul\":2591:2863   */\n      pop\n        /* \"#utility.yul\":2499:2863   */\n      swap3\n      swap2\n      pop\n      pop\n      jump\t// out\n        /* \"#utility.yul\":2869:2987   */\n    tag_116:\n        /* \"#utility.yul\":2956:2980   */\n      tag_118\n        /* \"#utility.yul\":2974:2979   */\n      dup2\n        /* \"#utility.yul\":2956:2980   */\n      tag_119\n      jump\t// in\n    tag_118:\n        /* \"#utility.yul\":2951:2954   */\n      dup3\n        /* \"#utility.yul\":2944:2981   */\n      mstore\n        /* \"#utility.yul\":2869:2987   */\n      pop\n      pop\n      jump\t// out\n        /* \"#utility.yul\":2993:3215   */\n    tag_26:\n        /* \"#utility.yul\":3086:3090   */\n      0x00\n        /* \"#utility.yul\":3124:3126   */\n      0x20\n        /* \"#utility.yul\":3113:3122   */\n      dup3\n        /* \"#utility.yul\":3109:3127   */\n      add\n        /* \"#utility.yul\":3101:3127   */\n      swap1\n      pop\n        /* \"#utility.yul\":3137:3208   */\n      tag_121\n        /* \"#utility.yul\":3205:3206   */\n      0x00\n        /* \"#utility.yul\":3194:3203   */\n      dup4\n        /* \"#utility.yul\":3190:3207   */\n      add\n        /* \"#utility.yul\":3181:3187   */\n      dup5\n        /* \"#utility.yul\":3137:3208   */\n      tag_98\n      jump\t// in\n    tag_121:\n        /* \"#utility.yul\":2993:3215   */\n      swap3\n      swap2\n      pop\n      pop\n      jump\t// out\n        /* \"#utility.yul\":3221:3534   */\n    tag_22:\n        /* \"#utility.yul\":3334:3338   */\n      0x00\n        /* \"#utility.yul\":3372:3374   */\n      0x20\n        /* \"#utility.yul\":3361:3370   */\n      dup3\n        /* \"#utility.yul\":3357:3375   */\n      add\n        /* \"#utility.yul\":3349:3375   */\n      swap1\n      pop\n        /* \"#utility.yul\":3421:3430   */\n      dup2\n        /* \"#utility.yul\":3415:3419   */\n      dup2\n        /* \"#utility.yul\":3411:3431   */\n      sub\n        /* \"#utility.yul\":3407:3408   */\n      0x00\n        /* \"#utility.yul\":3396:3405   */\n      dup4\n        /* \"#utility.yul\":3392:3409   */\n      add\n        /* \"#utility.yul\":3385:3432   */\n      mstore\n        /* \"#utility.yul\":3449:3527   */\n      tag_123\n        /* \"#utility.yul\":3522:3526   */\n      dup2\n        /* \"#utility.yul\":3513:3519   */\n      dup5\n        /* \"#utility.yul\":3449:3527   */\n      tag_106\n      jump\t// in\n    tag_123:\n        /* \"#utility.yul\":3441:3527   */\n      swap1\n      pop\n        /* \"#utility.yul\":3221:3534   */\n      swap3\n      swap2\n      pop\n      pop\n      jump\t// out\n        /* \"#utility.yul\":3540:4160   */\n    tag_32:\n        /* \"#utility.yul\":3725:3729   */\n      0x00\n        /* \"#utility.yul\":3763:3766   */\n      0x80\n        /* \"#utility.yul\":3752:3761   */\n      dup3\n        /* \"#utility.yul\":3748:3767   */\n      add\n        /* \"#utility.yul\":3740:3767   */\n      swap1\n      pop\n        /* \"#utility.yul\":3813:3822   */\n      dup2\n        /* \"#utility.yul\":3807:3811   */\n      dup2\n        /* \"#utility.yul\":3803:3823   */\n      sub\n        /* \"#utility.yul\":3799:3800   */\n      0x00\n        /* \"#utility.yul\":3788:3797   */\n      dup4\n        /* \"#utility.yul\":3784:3801   */\n      add\n        /* \"#utility.yul\":3777:3824   */\n      mstore\n        /* \"#utility.yul\":3841:3919   */\n      tag_125\n        /* \"#utility.yul\":3914:3918   */\n      dup2\n        /* \"#utility.yul\":3905:3911   */\n      dup8\n        /* \"#utility.yul\":3841:3919   */\n      tag_106\n      jump\t// in\n    tag_125:\n        /* \"#utility.yul\":3833:3919   */\n      swap1\n      pop\n        /* \"#utility.yul\":3929:3995   */\n      tag_126\n        /* \"#utility.yul\":3991:3993   */\n      0x20\n        /* \"#utility.yul\":3980:3989   */\n      dup4\n        /* \"#utility.yul\":3976:3994   */\n      add\n        /* \"#utility.yul\":3967:3973   */\n      dup7\n        /* \"#utility.yul\":3929:3995   */\n      tag_102\n      jump\t// in\n    tag_126:\n        /* \"#utility.yul\":4005:4077   */\n      tag_127\n        /* \"#utility.yul\":4073:4075   */\n      0x40\n        /* \"#utility.yul\":4062:4071   */\n      dup4\n        /* \"#utility.yul\":4058:4076   */\n      add\n        /* \"#utility.yul\":4049:4055   */\n      dup6\n        /* \"#utility.yul\":4005:4077   */\n      tag_116\n      jump\t// in\n    tag_127:\n        /* \"#utility.yul\":4087:4153   */\n      tag_128\n        /* \"#utility.yul\":4149:4151   */\n      0x60\n        /* \"#utility.yul\":4138:4147   */\n      dup4\n        /* \"#utility.yul\":4134:4152   */\n      add\n        /* \"#utility.yul\":4125:4131   */\n      dup5\n        /* \"#utility.yul\":4087:4153   */\n      tag_102\n      jump\t// in\n    tag_128:\n        /* \"#utility.yul\":3540:4160   */\n      swap6\n      swap5\n      pop\n      pop\n      pop\n      pop\n      pop\n      jump\t// out\n        /* \"#utility.yul\":4166:4589   */\n    tag_18:\n        /* \"#utility.yul\":4307:4311   */\n      0x00\n        /* \"#utility.yul\":4345:4347   */\n      0x40\n        /* \"#utility.yul\":4334:4343   */\n      dup3\n        /* \"#utility.yul\":4330:4348   */\n      add\n        /* \"#utility.yul\":4322:4348   */\n      swap1\n      pop\n        /* \"#utility.yul\":4394:4403   */\n      dup2\n        /* \"#utility.yul\":4388:4392   */\n      dup2\n        /* \"#utility.yul\":4384:4404   */\n      sub\n        /* \"#utility.yul\":4380:4381   */\n      0x00\n        /* \"#utility.yul\":4369:4378   */\n      dup4\n        /* \"#utility.yul\":4365:4382   */\n      add\n        /* \"#utility.yul\":4358:4405   */\n      mstore\n        /* \"#utility.yul\":4422:4500   */\n      tag_130\n        /* \"#utility.yul\":4495:4499   */\n      dup2\n        /* \"#utility.yul\":4486:4492   */\n      dup6\n        /* \"#utility.yul\":4422:4500   */\n      tag_106\n      jump\t// in\n    tag_130:\n        /* \"#utility.yul\":4414:4500   */\n      swap1\n      pop\n        /* \"#utility.yul\":4510:4582   */\n      tag_131\n        /* \"#utility.yul\":4578:4580   */\n      0x20\n        /* \"#utility.yul\":4567:4576   */\n      dup4\n        /* \"#utility.yul\":4563:4581   */\n      add\n        /* \"#utility.yul\":4554:4560   */\n      dup5\n        /* \"#utility.yul\":4510:4582   */\n      tag_116\n      jump\t// in\n    tag_131:\n        /* \"#utility.yul\":4166:4589   */\n      swap4\n      swap3\n      pop\n      pop\n      pop\n      jump\t// out\n        /* \"#utility.yul\":4595:4817   */\n    tag_12:\n        /* \"#utility.yul\":4688:4692   */\n      0x00\n        /* \"#utility.yul\":4726:4728   */\n      0x20\n        /* \"#utility.yul\":4715:4724   */\n      dup3\n        /* \"#utility.yul\":4711:4729   */\n      add\n        /* \"#utility.yul\":4703:4729   */\n      swap1\n      pop\n        /* \"#utility.yul\":4739:4810   */\n      tag_133\n        /* \"#utility.yul\":4807:4808   */\n      0x00\n        /* \"#utility.yul\":4796:4805   */\n      dup4\n        /* \"#utility.yul\":4792:4809   */\n      add\n        /* \"#utility.yul\":4783:4789   */\n      dup5\n        /* \"#utility.yul\":4739:4810   */\n      tag_116\n      jump\t// in\n    tag_133:\n        /* \"#utility.yul\":4595:4817   */\n      swap3\n      swap2\n      pop\n      pop\n      jump\t// out\n        /* \"#utility.yul\":4823:4952   */\n    tag_62:\n        /* \"#utility.yul\":4857:4863   */\n      0x00\n        /* \"#utility.yul\":4884:4904   */\n      tag_135\n      tag_136\n      jump\t// in\n    tag_135:\n        /* \"#utility.yul\":4874:4904   */\n      swap1\n      pop\n        /* \"#utility.yul\":4913:4946   */\n      tag_137\n        /* \"#utility.yul\":4941:4945   */\n      dup3\n        /* \"#utility.yul\":4933:4939   */\n      dup3\n        /* \"#utility.yul\":4913:4946   */\n      tag_138\n      jump\t// in\n    tag_137:\n        /* \"#utility.yul\":4823:4952   */\n      swap2\n      swap1\n      pop\n      jump\t// out\n        /* \"#utility.yul\":4958:5033   */\n    tag_136:\n        /* \"#utility.yul\":4991:4997   */\n      0x00\n        /* \"#utility.yul\":5024:5026   */\n      0x40\n        /* \"#utility.yul\":5018:5027   */\n      mload\n        /* \"#utility.yul\":5008:5027   */\n      swap1\n      pop\n        /* \"#utility.yul\":4958:5033   */\n      swap1\n      jump\t// out\n        /* \"#utility.yul\":5039:5347   */\n    tag_61:\n        /* \"#utility.yul\":5101:5105   */\n      0x00\n        /* \"#utility.yul\":5191:5209   */\n      0xffffffffffffffff\n        /* \"#utility.yul\":5183:5189   */\n      dup3\n        /* \"#utility.yul\":5180:5210   */\n      gt\n        /* \"#utility.yul\":5177:5233   */\n      iszero\n      tag_141\n      jumpi\n        /* \"#utility.yul\":5213:5231   */\n      tag_142\n      tag_143\n      jump\t// in\n    tag_142:\n        /* \"#utility.yul\":5177:5233   */\n    tag_141:\n        /* \"#utility.yul\":5251:5280   */\n      tag_144\n        /* \"#utility.yul\":5273:5279   */\n      dup3\n        /* \"#utility.yul\":5251:5280   */\n      tag_115\n      jump\t// in\n    tag_144:\n        /* \"#utility.yul\":5243:5280   */\n      swap1\n      pop\n        /* \"#utility.yul\":5335:5339   */\n      0x20\n        /* \"#utility.yul\":5329:5333   */\n      dup2\n        /* \"#utility.yul\":5325:5340   */\n      add\n        /* \"#utility.yul\":5317:5340   */\n      swap1\n      pop\n        /* \"#utility.yul\":5039:5347   */\n      swap2\n      swap1\n      pop\n      jump\t// out\n        /* \"#utility.yul\":5353:5452   */\n    tag_109:\n        /* \"#utility.yul\":5405:5411   */\n      0x00\n        /* \"#utility.yul\":5439:5444   */\n      dup2\n        /* \"#utility.yul\":5433:5445   */\n      mload\n        /* \"#utility.yul\":5423:5445   */\n      swap1\n      pop\n        /* \"#utility.yul\":5353:5452   */\n      swap2\n      swap1\n      pop\n      jump\t// out\n        /* \"#utility.yul\":5458:5627   */\n    tag_111:\n        /* \"#utility.yul\":5542:5553   */\n      0x00\n        /* \"#utility.yul\":5576:5582   */\n      dup3\n        /* \"#utility.yul\":5571:5574   */\n      dup3\n        /* \"#utility.yul\":5564:5583   */\n      mstore\n        /* \"#utility.yul\":5616:5620   */\n      0x20\n        /* \"#utility.yul\":5611:5614   */\n      dup3\n        /* \"#utility.yul\":5607:5621   */\n      add\n        /* \"#utility.yul\":5592:5621   */\n      swap1\n      pop\n        /* \"#utility.yul\":5458:5627   */\n      swap3\n      swap2\n      pop\n      pop\n      jump\t// out\n        /* \"#utility.yul\":5633:5729   */\n    tag_101:\n        /* \"#utility.yul\":5670:5677   */\n      0x00\n        /* \"#utility.yul\":5699:5723   */\n      tag_148\n        /* \"#utility.yul\":5717:5722   */\n      dup3\n        /* \"#utility.yul\":5699:5723   */\n      tag_149\n      jump\t// in\n    tag_148:\n        /* \"#utility.yul\":5688:5723   */\n      swap1\n      pop\n        /* \"#utility.yul\":5633:5729   */\n      swap2\n      swap1\n      pop\n      jump\t// out\n        /* \"#utility.yul\":5735:5825   */\n    tag_105:\n        /* \"#utility.yul\":5769:5776   */\n      0x00\n        /* \"#utility.yul\":5812:5817   */\n      dup2\n        /* \"#utility.yul\":5805:5818   */\n      iszero\n        /* \"#utility.yul\":5798:5819   */\n      iszero\n        /* \"#utility.yul\":5787:5819   */\n      swap1\n      pop\n        /* \"#utility.yul\":5735:5825   */\n      swap2\n      swap1\n      pop\n      jump\t// out\n        /* \"#utility.yul\":5831:5957   */\n    tag_149:\n        /* \"#utility.yul\":5868:5875   */\n      0x00\n        /* \"#utility.yul\":5908:5950   */\n      0xffffffffffffffffffffffffffffffffffffffff\n        /* \"#utility.yul\":5901:5906   */\n      dup3\n        /* \"#utility.yul\":5897:5951   */\n      and\n        /* \"#utility.yul\":5886:5951   */\n      swap1\n      pop\n        /* \"#utility.yul\":5831:5957   */\n      swap2\n      swap1\n      pop\n      jump\t// out\n        /* \"#utility.yul\":5963:6040   */\n    tag_119:\n        /* \"#utility.yul\":6000:6007   */\n      0x00\n        /* \"#utility.yul\":6029:6034   */\n      dup2\n        /* \"#utility.yul\":6018:6034   */\n      swap1\n      pop\n        /* \"#utility.yul\":5963:6040   */\n      swap2\n      swap1\n      pop\n      jump\t// out\n        /* \"#utility.yul\":6046:6200   */\n    tag_67:\n        /* \"#utility.yul\":6130:6136   */\n      dup3\n        /* \"#utility.yul\":6125:6128   */\n      dup2\n        /* \"#utility.yul\":6120:6123   */\n      dup4\n        /* \"#utility.yul\":6107:6137   */\n      calldatacopy\n        /* \"#utility.yul\":6192:6193   */\n      0x00\n        /* \"#utility.yul\":6183:6189   */\n      dup4\n        /* \"#utility.yul\":6178:6181   */\n      dup4\n        /* \"#utility.yul\":6174:6190   */\n      add\n        /* \"#utility.yul\":6167:6194   */\n      mstore\n        /* \"#utility.yul\":6046:6200   */\n      pop\n      pop\n      pop\n      jump\t// out\n        /* \"#utility.yul\":6206:6513   */\n    tag_113:\n        /* \"#utility.yul\":6274:6275   */\n      0x00\n        /* \"#utility.yul\":6284:6397   */\n    tag_155:\n        /* \"#utility.yul\":6298:6304   */\n      dup4\n        /* \"#utility.yul\":6295:6296   */\n      dup2\n        /* \"#utility.yul\":6292:6305   */\n      lt\n        /* \"#utility.yul\":6284:6397   */\n      iszero\n      tag_157\n      jumpi\n        /* \"#utility.yul\":6383:6384   */\n      dup1\n        /* \"#utility.yul\":6378:6381   */\n      dup3\n        /* \"#utility.yul\":6374:6385   */\n      add\n        /* \"#utility.yul\":6368:6386   */\n      mload\n        /* \"#utility.yul\":6364:6365   */\n      dup2\n        /* \"#utility.yul\":6359:6362   */\n      dup5\n        /* \"#utility.yul\":6355:6366   */\n      add\n        /* \"#utility.yul\":6348:6387   */\n      mstore\n        /* \"#utility.yul\":6320:6322   */\n      0x20\n        /* \"#utility.yul\":6317:6318   */\n      dup2\n        /* \"#utility.yul\":6313:6323   */\n      add\n        /* \"#utility.yul\":6308:6323   */\n      swap1\n      pop\n        /* \"#utility.yul\":6284:6397   */\n      jump(tag_155)\n    tag_157:\n        /* \"#utility.yul\":6415:6421   */\n      dup4\n        /* \"#utility.yul\":6412:6413   */\n      dup2\n        /* \"#utility.yul\":6409:6422   */\n      gt\n        /* \"#utility.yul\":6406:6507   */\n      iszero\n      tag_158\n      jumpi\n        /* \"#utility.yul\":6495:6496   */\n      0x00\n        /* \"#utility.yul\":6486:6492   */\n      dup5\n        /* \"#utility.yul\":6481:6484   */\n      dup5\n        /* \"#utility.yul\":6477:6493   */\n      add\n        /* \"#utility.yul\":6470:6497   */\n      mstore\n        /* \"#utility.yul\":6406:6507   */\n    tag_158:\n        /* \"#utility.yul\":6255:6513   */\n      pop\n        /* \"#utility.yul\":6206:6513   */\n      pop\n      pop\n      pop\n      jump\t// out\n        /* \"#utility.yul\":6519:6839   */\n    tag_40:\n        /* \"#utility.yul\":6563:6569   */\n      0x00\n        /* \"#utility.yul\":6600:6601   */\n      0x02\n        /* \"#utility.yul\":6594:6598   */\n      dup3\n        /* \"#utility.yul\":6590:6602   */\n      div\n        /* \"#utility.yul\":6580:6602   */\n      swap1\n      pop\n        /* \"#utility.yul\":6647:6648   */\n      0x01\n        /* \"#utility.yul\":6641:6645   */\n      dup3\n        /* \"#utility.yul\":6637:6649   */\n      and\n        /* \"#utility.yul\":6668:6686   */\n      dup1\n        /* \"#utility.yul\":6658:6739   */\n      tag_160\n      jumpi\n        /* \"#utility.yul\":6724:6728   */\n      0x7f\n        /* \"#utility.yul\":6716:6722   */\n      dup3\n        /* \"#utility.yul\":6712:6729   */\n      and\n        /* \"#utility.yul\":6702:6729   */\n      swap2\n      pop\n        /* \"#utility.yul\":6658:6739   */\n    tag_160:\n        /* \"#utility.yul\":6786:6788   */\n      0x20\n        /* \"#utility.yul\":6778:6784   */\n      dup3\n        /* \"#utility.yul\":6775:6789   */\n      lt\n        /* \"#utility.yul\":6755:6773   */\n      dup2\n        /* \"#utility.yul\":6752:6790   */\n      eq\n        /* \"#utility.yul\":6749:6833   */\n      iszero\n      tag_161\n      jumpi\n        /* \"#utility.yul\":6805:6823   */\n      tag_162\n      tag_163\n      jump\t// in\n    tag_162:\n        /* \"#utility.yul\":6749:6833   */\n    tag_161:\n        /* \"#utility.yul\":6570:6839   */\n      pop\n        /* \"#utility.yul\":6519:6839   */\n      swap2\n      swap1\n      pop\n      jump\t// out\n        /* \"#utility.yul\":6845:7126   */\n    tag_138:\n        /* \"#utility.yul\":6928:6955   */\n      tag_165\n        /* \"#utility.yul\":6950:6954   */\n      dup3\n        /* \"#utility.yul\":6928:6955   */\n      tag_115\n      jump\t// in\n    tag_165:\n        /* \"#utility.yul\":6920:6926   */\n      dup2\n        /* \"#utility.yul\":6916:6956   */\n      add\n        /* \"#utility.yul\":7058:7064   */\n      dup2\n        /* \"#utility.yul\":7046:7056   */\n      dup2\n        /* \"#utility.yul\":7043:7065   */\n      lt\n        /* \"#utility.yul\":7022:7040   */\n      0xffffffffffffffff\n        /* \"#utility.yul\":7010:7020   */\n      dup3\n        /* \"#utility.yul\":7007:7041   */\n      gt\n        /* \"#utility.yul\":7004:7066   */\n      or\n        /* \"#utility.yul\":7001:7089   */\n      iszero\n      tag_166\n      jumpi\n        /* \"#utility.yul\":7069:7087   */\n      tag_167\n      tag_143\n      jump\t// in\n    tag_167:\n        /* \"#utility.yul\":7001:7089   */\n    tag_166:\n        /* \"#utility.yul\":7109:7119   */\n      dup1\n        /* \"#utility.yul\":7105:7107   */\n      0x40\n        /* \"#utility.yul\":7098:7120   */\n      mstore\n        /* \"#utility.yul\":6888:7126   */\n      pop\n        /* \"#utility.yul\":6845:7126   */\n      pop\n      pop\n      jump\t// out\n        /* \"#utility.yul\":7132:7312   */\n    tag_163:\n        /* \"#utility.yul\":7180:7257   */\n      0x4e487b7100000000000000000000000000000000000000000000000000000000\n        /* \"#utility.yul\":7177:7178   */\n      0x00\n        /* \"#utility.yul\":7170:7258   */\n      mstore\n        /* \"#utility.yul\":7277:7281   */\n      0x22\n        /* \"#utility.yul\":7274:7275   */\n      0x04\n        /* \"#utility.yul\":7267:7282   */\n      mstore\n        /* \"#utility.yul\":7301:7305   */\n      0x24\n        /* \"#utility.yul\":7298:7299   */\n      0x00\n        /* \"#utility.yul\":7291:7306   */\n      revert\n        /* \"#utility.yul\":7318:7498   */\n    tag_143:\n        /* \"#utility.yul\":7366:7443   */\n      0x4e487b7100000000000000000000000000000000000000000000000000000000\n        /* \"#utility.yul\":7363:7364   */\n      0x00\n        /* \"#utility.yul\":7356:7444   */\n      mstore\n        /* \"#utility.yul\":7463:7467   */\n      0x41\n        /* \"#utility.yul\":7460:7461   */\n      0x04\n        /* \"#utility.yul\":7453:7468   */\n      mstore\n        /* \"#utility.yul\":7487:7491   */\n      0x24\n        /* \"#utility.yul\":7484:7485   */\n      0x00\n        /* \"#utility.yul\":7477:7492   */\n      revert\n        /* \"#utility.yul\":7504:7621   */\n    tag_76:\n        /* \"#utility.yul\":7613:7614   */\n      0x00\n        /* \"#utility.yul\":7610:7611   */\n      dup1\n        /* \"#utility.yul\":7603:7615   */\n      revert\n        /* \"#utility.yul\":7627:7744   */\n    tag_65:\n        /* \"#utility.yul\":7736:7737   */\n      0x00\n        /* \"#utility.yul\":7733:7734   */\n      dup1\n        /* \"#utility.yul\":7726:7738   */\n      revert\n        /* \"#utility.yul\":7750:7867   */\n    tag_92:\n        /* \"#utility.yul\":7859:7860   */\n      0x00\n        /* \"#utility.yul\":7856:7857   */\n      dup1\n        /* \"#utility.yul\":7849:7861   */\n      revert\n        /* \"#utility.yul\":7873:7990   */\n    tag_85:\n        /* \"#utility.yul\":7982:7983   */\n      0x00\n        /* \"#utility.yul\":7979:7980   */\n      dup1\n        /* \"#utility.yul\":7972:7984   */\n      revert\n        /* \"#utility.yul\":7996:8098   */\n    tag_115:\n        /* \"#utility.yul\":8037:8043   */\n      0x00\n        /* \"#utility.yul\":8088:8090   */\n      0x1f\n        /* \"#utility.yul\":8084:8091   */\n      not\n        /* \"#utility.yul\":8079:8081   */\n      0x1f\n        /* \"#utility.yul\":8072:8077   */\n      dup4\n        /* \"#utility.yul\":8068:8082   */\n      add\n        /* \"#utility.yul\":8064:8092   */\n      and\n        /* \"#utility.yul\":8054:8092   */\n      swap1\n      pop\n        /* \"#utility.yul\":7996:8098   */\n      swap2\n      swap1\n      pop\n      jump\t// out\n        /* \"#utility.yul\":8104:8226   */\n    tag_71:\n        /* \"#utility.yul\":8177:8201   */\n      tag_176\n        /* \"#utility.yul\":8195:8200   */\n      dup2\n        /* \"#utility.yul\":8177:8201   */\n      tag_101\n      jump\t// in\n    tag_176:\n        /* \"#utility.yul\":8170:8175   */\n      dup2\n        /* \"#utility.yul\":8167:8202   */\n      eq\n        /* \"#utility.yul\":8157:8220   */\n      tag_177\n      jumpi\n        /* \"#utility.yul\":8216:8217   */\n      0x00\n        /* \"#utility.yul\":8213:8214   */\n      dup1\n        /* \"#utility.yul\":8206:8218   */\n      revert\n        /* \"#utility.yul\":8157:8220   */\n    tag_177:\n        /* \"#utility.yul\":8104:8226   */\n      pop\n      jump\t// out\n        /* \"#utility.yul\":8232:8354   */\n    tag_81:\n        /* \"#utility.yul\":8305:8329   */\n      tag_179\n        /* \"#utility.yul\":8323:8328   */\n      dup2\n        /* \"#utility.yul\":8305:8329   */\n      tag_119\n      jump\t// in\n    tag_179:\n        /* \"#utility.yul\":8298:8303   */\n      dup2\n        /* \"#utility.yul\":8295:8330   */\n      eq\n        /* \"#utility.yul\":8285:8348   */\n      tag_180\n      jumpi\n        /* \"#utility.yul\":8344:8345   */\n      0x00\n        /* \"#utility.yul\":8341:8342   */\n      dup1\n        /* \"#utility.yul\":8334:8346   */\n      revert\n        /* \"#utility.yul\":8285:8348   */\n    tag_180:\n        /* \"#utility.yul\":8232:8354   */\n      pop\n      jump\t// out\n\n    auxdata: 0xa26469706673582212203f330004cdccfb47e89e8dc14cb24fa209d61c9e2d3cf584c4a3dfa82f94c2ce64736f6c63430008070033\n}\n",
				"bytecode": {
					"linkReferences": {},
					"object": "608060405234801561001057600080fd5b50610887806100206000396000f3fe608060405234801561001057600080fd5b50600436106100625760003560e01c80630d15fd77146100675780633477ee2e1461008557806385e8e7a7146100b65780638da5cb5b146100d4578063a3ec138d146100f2578063f544bed814610125575b600080fd5b61006f610141565b60405161007c9190610626565b60405180910390f35b61009f600480360381019061009a91906104da565b610147565b6040516100ad9291906105f6565b60405180910390f35b6100be610203565b6040516100cb9190610588565b60405180910390f35b6100dc610291565b6040516100e9919061056d565b60405180910390f35b61010c60048036038101906101079190610464565b6102b5565b60405161011c94939291906105aa565b60405180910390f35b61013f600480360381019061013a9190610491565b610387565b005b60045481565b6003818154811061015757600080fd5b906000526020600020906002020160009150905080600001805461017a9061073d565b80601f01602080910402602001604051908101604052809291908181526020018280546101a69061073d565b80156101f35780601f106101c8576101008083540402835291602001916101f3565b820191906000526020600020905b8154815290600101906020018083116101d657829003601f168201915b5050505050908060010154905082565b600180546102109061073d565b80601f016020809104026020016040519081016040528092919081815260200182805461023c9061073d565b80156102895780601f1061025e57610100808354040283529160200191610289565b820191906000526020600020905b81548152906001019060200180831161026c57829003601f168201915b505050505081565b60008054906101000a900473ffffffffffffffffffffffffffffffffffffffff1681565b60026020528060005260406000206000915090508060000180546102d89061073d565b80601f01602080910402602001604051908101604052809291908181526020018280546103049061073d565b80156103515780601f1061032657610100808354040283529160200191610351565b820191906000526020600020905b81548152906001019060200180831161033457829003601f168201915b5050505050908060010160009054906101000a900460ff16908060020154908060030160009054906101000a900460ff16905084565b336000806101000a81548173ffffffffffffffffffffffffffffffffffffffff021916908373ffffffffffffffffffffffffffffffffffffffff16021790555050565b60006103dd6103d884610666565b610641565b9050828152602081018484840111156103f9576103f8610803565b5b6104048482856106fb565b509392505050565b60008135905061041b81610823565b92915050565b600082601f830112610436576104356107fe565b5b81356104468482602086016103ca565b91505092915050565b60008135905061045e8161083a565b92915050565b60006020828403121561047a5761047961080d565b5b60006104888482850161040c565b91505092915050565b6000602082840312156104a7576104a661080d565b5b600082013567ffffffffffffffff8111156104c5576104c4610808565b5b6104d184828501610421565b91505092915050565b6000602082840312156104f0576104ef61080d565b5b60006104fe8482850161044f565b91505092915050565b610510816106b3565b82525050565b61051f816106c5565b82525050565b600061053082610697565b61053a81856106a2565b935061054a81856020860161070a565b61055381610812565b840191505092915050565b610567816106f1565b82525050565b60006020820190506105826000830184610507565b92915050565b600060208201905081810360008301526105a28184610525565b905092915050565b600060808201905081810360008301526105c48187610525565b90506105d36020830186610516565b6105e0604083018561055e565b6105ed6060830184610516565b95945050505050565b600060408201905081810360008301526106108185610525565b905061061f602083018461055e565b9392505050565b600060208201905061063b600083018461055e565b92915050565b600061064b61065c565b9050610657828261076f565b919050565b6000604051905090565b600067ffffffffffffffff821115610681576106806107cf565b5b61068a82610812565b9050602081019050919050565b600081519050919050565b600082825260208201905092915050565b60006106be826106d1565b9050919050565b60008115159050919050565b600073ffffffffffffffffffffffffffffffffffffffff82169050919050565b6000819050919050565b82818337600083830152505050565b60005b8381101561072857808201518184015260208101905061070d565b83811115610737576000848401525b50505050565b6000600282049050600182168061075557607f821691505b60208210811415610769576107686107a0565b5b50919050565b61077882610812565b810181811067ffffffffffffffff82111715610797576107966107cf565b5b80604052505050565b7f4e487b7100000000000000000000000000000000000000000000000000000000600052602260045260246000fd5b7f4e487b7100000000000000000000000000000000000000000000000000000000600052604160045260246000fd5b600080fd5b600080fd5b600080fd5b600080fd5b6000601f19601f8301169050919050565b61082c816106b3565b811461083757600080fd5b50565b610843816106f1565b811461084e57600080fd5b5056fea26469706673582212203f330004cdccfb47e89e8dc14cb24fa209d61c9e2d3cf584c4a3dfa82f94c2ce64736f6c63430008070033",
					"opcodes": "PUSH1 0x80 PUSH1 0x40 MSTORE CALLVALUE DUP1 ISZERO PUSH2 0x10 JUMPI PUSH1 0x0 DUP1 REVERT JUMPDEST POP PUSH2 0x887 DUP1 PUSH2 0x20 PUSH1 0x0 CODECOPY PUSH1 0x0 RETURN INVALID PUSH1 0x80 PUSH1 0x40 MSTORE CALLVALUE DUP1 ISZERO PUSH2 0x10 JUMPI PUSH1 0x0 DUP1 REVERT JUMPDEST POP PUSH1 0x4 CALLDATASIZE LT PUSH2 0x62 JUMPI PUSH1 0x0 CALLDATALOAD PUSH1 0xE0 SHR DUP1 PUSH4 0xD15FD77 EQ PUSH2 0x67 JUMPI DUP1 PUSH4 0x3477EE2E EQ PUSH2 0x85 JUMPI DUP1 PUSH4 0x85E8E7A7 EQ PUSH2 0xB6 JUMPI DUP1 PUSH4 0x8DA5CB5B EQ PUSH2 0xD4 JUMPI DUP1 PUSH4 0xA3EC138D EQ PUSH2 0xF2 JUMPI DUP1 PUSH4 0xF544BED8 EQ PUSH2 0x125 JUMPI JUMPDEST PUSH1 0x0 DUP1 REVERT JUMPDEST PUSH2 0x6F PUSH2 0x141 JUMP JUMPDEST PUSH1 0x40 MLOAD PUSH2 0x7C SWAP2 SWAP1 PUSH2 0x626 JUMP JUMPDEST PUSH1 0x40 MLOAD DUP1 SWAP2 SUB SWAP1 RETURN JUMPDEST PUSH2 0x9F PUSH1 0x4 DUP1 CALLDATASIZE SUB DUP2 ADD SWAP1 PUSH2 0x9A SWAP2 SWAP1 PUSH2 0x4DA JUMP JUMPDEST PUSH2 0x147 JUMP JUMPDEST PUSH1 0x40 MLOAD PUSH2 0xAD SWAP3 SWAP2 SWAP1 PUSH2 0x5F6 JUMP JUMPDEST PUSH1 0x40 MLOAD DUP1 SWAP2 SUB SWAP1 RETURN JUMPDEST PUSH2 0xBE PUSH2 0x203 JUMP JUMPDEST PUSH1 0x40 MLOAD PUSH2 0xCB SWAP2 SWAP1 PUSH2 0x588 JUMP JUMPDEST PUSH1 0x40 MLOAD DUP1 SWAP2 SUB SWAP1 RETURN JUMPDEST PUSH2 0xDC PUSH2 0x291 JUMP JUMPDEST PUSH1 0x40 MLOAD PUSH2 0xE9 SWAP2 SWAP1 PUSH2 0x56D JUMP JUMPDEST PUSH1 0x40 MLOAD DUP1 SWAP2 SUB SWAP1 RETURN JUMPDEST PUSH2 0x10C PUSH1 0x4 DUP1 CALLDATASIZE SUB DUP2 ADD SWAP1 PUSH2 0x107 SWAP2 SWAP1 PUSH2 0x464 JUMP JUMPDEST PUSH2 0x2B5 JUMP JUMPDEST PUSH1 0x40 MLOAD PUSH2 0x11C SWAP5 SWAP4 SWAP3 SWAP2 SWAP1 PUSH2 0x5AA JUMP JUMPDEST PUSH1 0x40 MLOAD DUP1 SWAP2 SUB SWAP1 RETURN JUMPDEST PUSH2 0x13F PUSH1 0x4 DUP1 CALLDATASIZE SUB DUP2 ADD SWAP1 PUSH2 0x13A SWAP2 SWAP1 PUSH2 0x491 JUMP JUMPDEST PUSH2 0x387 JUMP JUMPDEST STOP JUMPDEST PUSH1 0x4 SLOAD DUP2 JUMP JUMPDEST PUSH1 0x3 DUP2 DUP2 SLOAD DUP2 LT PUSH2 0x157 JUMPI PUSH1 0x0 DUP1 REVERT JUMPDEST SWAP1 PUSH1 0x0 MSTORE PUSH1 0x20 PUSH1 0x0 KECCAK256 SWAP1 PUSH1 0x2 MUL ADD PUSH1 0x0 SWAP2 POP SWAP1 POP DUP1 PUSH1 0x0 ADD DUP1 SLOAD PUSH2 0x17A SWAP1 PUSH2 0x73D JUMP JUMPDEST DUP1 PUSH1 0x1F ADD PUSH1 0x20 DUP1 SWAP2 DIV MUL PUSH1 0x20 ADD PUSH1 0x40 MLOAD SWAP1 DUP2 ADD PUSH1 0x40 MSTORE DUP1 SWAP3 SWAP2 SWAP1 DUP2 DUP2 MSTORE PUSH1 0x20 ADD DUP3 DUP1 SLOAD PUSH2 0x1A6 SWAP1 PUSH2 0x73D JUMP JUMPDEST DUP1 ISZERO PUSH2 0x1F3 JUMPI DUP1 PUSH1 0x1F LT PUSH2 0x1C8 JUMPI PUSH2 0x100 DUP1 DUP4 SLOAD DIV MUL DUP4 MSTORE SWAP2 PUSH1 0x20 ADD SWAP2 PUSH2 0x1F3 JUMP JUMPDEST DUP3 ADD SWAP2 SWAP1 PUSH1 0x0 MSTORE PUSH1 0x20 PUSH1 0x0 KECCAK256 SWAP1 JUMPDEST DUP2 SLOAD DUP2 MSTORE SWAP1 PUSH1 0x1 ADD SWAP1 PUSH1 0x20 ADD DUP1 DUP4 GT PUSH2 0x1D6 JUMPI DUP3 SWAP1 SUB PUSH1 0x1F AND DUP3 ADD SWAP2 JUMPDEST POP POP POP POP POP SWAP1 DUP1 PUSH1 0x1 ADD SLOAD SWAP1 POP DUP3 JUMP JUMPDEST PUSH1 0x1 DUP1 SLOAD PUSH2 0x210 SWAP1 PUSH2 0x73D JUMP JUMPDEST DUP1 PUSH1 0x1F ADD PUSH1 0x20 DUP1 SWAP2 DIV MUL PUSH1 0x20 ADD PUSH1 0x40 MLOAD SWAP1 DUP2 ADD PUSH1 0x40 MSTORE DUP1 SWAP3 SWAP2 SWAP1 DUP2 DUP2 MSTORE PUSH1 0x20 ADD DUP3 DUP1 SLOAD PUSH2 0x23C SWAP1 PUSH2 0x73D JUMP JUMPDEST DUP1 ISZERO PUSH2 0x289 JUMPI DUP1 PUSH1 0x1F LT PUSH2 0x25E JUMPI PUSH2 0x100 DUP1 DUP4 SLOAD DIV MUL DUP4 MSTORE SWAP2 PUSH1 0x20 ADD SWAP2 PUSH2 0x289 JUMP JUMPDEST DUP3 ADD SWAP2 SWAP1 PUSH1 0x0 MSTORE PUSH1 0x20 PUSH1 0x0 KECCAK256 SWAP1 JUMPDEST DUP2 SLOAD DUP2 MSTORE SWAP1 PUSH1 0x1 ADD SWAP1 PUSH1 0x20 ADD DUP1 DUP4 GT PUSH2 0x26C JUMPI DUP3 SWAP1 SUB PUSH1 0x1F AND DUP3 ADD SWAP2 JUMPDEST POP POP POP POP POP DUP2 JUMP JUMPDEST PUSH1 0x0 DUP1 SLOAD SWAP1 PUSH2 0x100 EXP SWAP1 DIV PUSH20 0xFFFFFFFFFFFFFFFFFFFFFFFFFFFFFFFFFFFFFFFF AND DUP2 JUMP JUMPDEST PUSH1 0x2 PUSH1 0x20 MSTORE DUP1 PUSH1 0x0 MSTORE PUSH1 0x40 PUSH1 0x0 KECCAK256 PUSH1 0x0 SWAP2 POP SWAP1 POP DUP1 PUSH1 0x0 ADD DUP1 SLOAD PUSH2 0x2D8 SWAP1 PUSH2 0x73D JUMP JUMPDEST DUP1 PUSH1 0x1F ADD PUSH1 0x20 DUP1 SWAP2 DIV MUL PUSH1 0x20 ADD PUSH1 0x40 MLOAD SWAP1 DUP2 ADD PUSH1 0x40 MSTORE DUP1 SWAP3 SWAP2 SWAP1 DUP2 DUP2 MSTORE PUSH1 0x20 ADD DUP3 DUP1 SLOAD PUSH2 0x304 SWAP1 PUSH2 0x73D JUMP JUMPDEST DUP1 ISZERO PUSH2 0x351 JUMPI DUP1 PUSH1 0x1F LT PUSH2 0x326 JUMPI PUSH2 0x100 DUP1 DUP4 SLOAD DIV MUL DUP4 MSTORE SWAP2 PUSH1 0x20 ADD SWAP2 PUSH2 0x351 JUMP JUMPDEST DUP3 ADD SWAP2 SWAP1 PUSH1 0x0 MSTORE PUSH1 0x20 PUSH1 0x0 KECCAK256 SWAP1 JUMPDEST DUP2 SLOAD DUP2 MSTORE SWAP1 PUSH1 0x1 ADD SWAP1 PUSH1 0x20 ADD DUP1 DUP4 GT PUSH2 0x334 JUMPI DUP3 SWAP1 SUB PUSH1 0x1F AND DUP3 ADD SWAP2 JUMPDEST POP POP POP POP POP SWAP1 DUP1 PUSH1 0x1 ADD PUSH1 0x0 SWAP1 SLOAD SWAP1 PUSH2 0x100 EXP SWAP1 DIV PUSH1 0xFF AND SWAP1 DUP1 PUSH1 0x2 ADD SLOAD SWAP1 DUP1 PUSH1 0x3 ADD PUSH1 0x0 SWAP1 SLOAD SWAP1 PUSH2 0x100 EXP SWAP1 DIV PUSH1 0xFF AND SWAP1 POP DUP5 JUMP JUMPDEST CALLER PUSH1 0x0 DUP1 PUSH2 0x100 EXP DUP2 SLOAD DUP2 PUSH20 0xFFFFFFFFFFFFFFFFFFFFFFFFFFFFFFFFFFFFFFFF MUL NOT AND SWAP1 DUP4 PUSH20 0xFFFFFFFFFFFFFFFFFFFFFFFFFFFFFFFFFFFFFFFF AND MUL OR SWAP1 SSTORE POP POP JUMP JUMPDEST PUSH1 0x0 PUSH2 0x3DD PUSH2 0x3D8 DUP5 PUSH2 0x666 JUMP JUMPDEST PUSH2 0x641 JUMP JUMPDEST SWAP1 POP DUP3 DUP2 MSTORE PUSH1 0x20 DUP2 ADD DUP5 DUP5 DUP5 ADD GT ISZERO PUSH2 0x3F9 JUMPI PUSH2 0x3F8 PUSH2 0x803 JUMP JUMPDEST JUMPDEST PUSH2 0x404 DUP5 DUP3 DUP6 PUSH2 0x6FB JUMP JUMPDEST POP SWAP4 SWAP3 POP POP POP JUMP JUMPDEST PUSH1 0x0 DUP2 CALLDATALOAD SWAP1 POP PUSH2 0x41B DUP2 PUSH2 0x823 JUMP JUMPDEST SWAP3 SWAP2 POP POP JUMP JUMPDEST PUSH1 0x0 DUP3 PUSH1 0x1F DUP4 ADD SLT PUSH2 0x436 JUMPI PUSH2 0x435 PUSH2 0x7FE JUMP JUMPDEST JUMPDEST DUP2 CALLDATALOAD PUSH2 0x446 DUP5 DUP3 PUSH1 0x20 DUP7 ADD PUSH2 0x3CA JUMP JUMPDEST SWAP2 POP POP SWAP3 SWAP2 POP POP JUMP JUMPDEST PUSH1 0x0 DUP2 CALLDATALOAD SWAP1 POP PUSH2 0x45E DUP2 PUSH2 0x83A JUMP JUMPDEST SWAP3 SWAP2 POP POP JUMP JUMPDEST PUSH1 0x0 PUSH1 0x20 DUP3 DUP5 SUB SLT ISZERO PUSH2 0x47A JUMPI PUSH2 0x479 PUSH2 0x80D JUMP JUMPDEST JUMPDEST PUSH1 0x0 PUSH2 0x488 DUP5 DUP3 DUP6 ADD PUSH2 0x40C JUMP JUMPDEST SWAP2 POP POP SWAP3 SWAP2 POP POP JUMP JUMPDEST PUSH1 0x0 PUSH1 0x20 DUP3 DUP5 SUB SLT ISZERO PUSH2 0x4A7 JUMPI PUSH2 0x4A6 PUSH2 0x80D JUMP JUMPDEST JUMPDEST PUSH1 0x0 DUP3 ADD CALLDATALOAD PUSH8 0xFFFFFFFFFFFFFFFF DUP2 GT ISZERO PUSH2 0x4C5 JUMPI PUSH2 0x4C4 PUSH2 0x808 JUMP JUMPDEST JUMPDEST PUSH2 0x4D1 DUP5 DUP3 DUP6 ADD PUSH2 0x421 JUMP JUMPDEST SWAP2 POP POP SWAP3 SWAP2 POP POP JUMP JUMPDEST PUSH1 0x0 PUSH1 0x20 DUP3 DUP5 SUB SLT ISZERO PUSH2 0x4F0 JUMPI PUSH2 0x4EF PUSH2 0x80D JUMP JUMPDEST JUMPDEST PUSH1 0x0 PUSH2 0x4FE DUP5 DUP3 DUP6 ADD PUSH2 0x44F JUMP JUMPDEST SWAP2 POP POP SWAP3 SWAP2 POP POP JUMP JUMPDEST PUSH2 0x510 DUP2 PUSH2 0x6B3 JUMP JUMPDEST DUP3 MSTORE POP POP JUMP JUMPDEST PUSH2 0x51F DUP2 PUSH2 0x6C5 JUMP JUMPDEST DUP3 MSTORE POP POP JUMP JUMPDEST PUSH1 0x0 PUSH2 0x530 DUP3 PUSH2 0x697 JUMP JUMPDEST PUSH2 0x53A DUP2 DUP6 PUSH2 0x6A2 JUMP JUMPDEST SWAP4 POP PUSH2 0x54A DUP2 DUP6 PUSH1 0x20 DUP7 ADD PUSH2 0x70A JUMP JUMPDEST PUSH2 0x553 DUP2 PUSH2 0x812 JUMP JUMPDEST DUP5 ADD SWAP2 POP POP SWAP3 SWAP2 POP POP JUMP JUMPDEST PUSH2 0x567 DUP2 PUSH2 0x6F1 JUMP JUMPDEST DUP3 MSTORE POP POP JUMP JUMPDEST PUSH1 0x0 PUSH1 0x20 DUP3 ADD SWAP1 POP PUSH2 0x582 PUSH1 0x0 DUP4 ADD DUP5 PUSH2 0x507 JUMP JUMPDEST SWAP3 SWAP2 POP POP JUMP JUMPDEST PUSH1 0x0 PUSH1 0x20 DUP3 ADD SWAP1 POP DUP2 DUP2 SUB PUSH1 0x0 DUP4 ADD MSTORE PUSH2 0x5A2 DUP2 DUP5 PUSH2 0x525 JUMP JUMPDEST SWAP1 POP SWAP3 SWAP2 POP POP JUMP JUMPDEST PUSH1 0x0 PUSH1 0x80 DUP3 ADD SWAP1 POP DUP2 DUP2 SUB PUSH1 0x0 DUP4 ADD MSTORE PUSH2 0x5C4 DUP2 DUP8 PUSH2 0x525 JUMP JUMPDEST SWAP1 POP PUSH2 0x5D3 PUSH1 0x20 DUP4 ADD DUP7 PUSH2 0x516 JUMP JUMPDEST PUSH2 0x5E0 PUSH1 0x40 DUP4 ADD DUP6 PUSH2 0x55E JUMP JUMPDEST PUSH2 0x5ED PUSH1 0x60 DUP4 ADD DUP5 PUSH2 0x516 JUMP JUMPDEST SWAP6 SWAP5 POP POP POP POP POP JUMP JUMPDEST PUSH1 0x0 PUSH1 0x40 DUP3 ADD SWAP1 POP DUP2 DUP2 SUB PUSH1 0x0 DUP4 ADD MSTORE PUSH2 0x610 DUP2 DUP6 PUSH2 0x525 JUMP JUMPDEST SWAP1 POP PUSH2 0x61F PUSH1 0x20 DUP4 ADD DUP5 PUSH2 0x55E JUMP JUMPDEST SWAP4 SWAP3 POP POP POP JUMP JUMPDEST PUSH1 0x0 PUSH1 0x20 DUP3 ADD SWAP1 POP PUSH2 0x63B PUSH1 0x0 DUP4 ADD DUP5 PUSH2 0x55E JUMP JUMPDEST SWAP3 SWAP2 POP POP JUMP JUMPDEST PUSH1 0x0 PUSH2 0x64B PUSH2 0x65C JUMP JUMPDEST SWAP1 POP PUSH2 0x657 DUP3 DUP3 PUSH2 0x76F JUMP JUMPDEST SWAP2 SWAP1 POP JUMP JUMPDEST PUSH1 0x0 PUSH1 0x40 MLOAD SWAP1 POP SWAP1 JUMP JUMPDEST PUSH1 0x0 PUSH8 0xFFFFFFFFFFFFFFFF DUP3 GT ISZERO PUSH2 0x681 JUMPI PUSH2 0x680 PUSH2 0x7CF JUMP JUMPDEST JUMPDEST PUSH2 0x68A DUP3 PUSH2 0x812 JUMP JUMPDEST SWAP1 POP PUSH1 0x20 DUP2 ADD SWAP1 POP SWAP2 SWAP1 POP JUMP JUMPDEST PUSH1 0x0 DUP2 MLOAD SWAP1 POP SWAP2 SWAP1 POP JUMP JUMPDEST PUSH1 0x0 DUP3 DUP3 MSTORE PUSH1 0x20 DUP3 ADD SWAP1 POP SWAP3 SWAP2 POP POP JUMP JUMPDEST PUSH1 0x0 PUSH2 0x6BE DUP3 PUSH2 0x6D1 JUMP JUMPDEST SWAP1 POP SWAP2 SWAP1 POP JUMP JUMPDEST PUSH1 0x0 DUP2 ISZERO ISZERO SWAP1 POP SWAP2 SWAP1 POP JUMP JUMPDEST PUSH1 0x0 PUSH20 0xFFFFFFFFFFFFFFFFFFFFFFFFFFFFFFFFFFFFFFFF DUP3 AND SWAP1 POP SWAP2 SWAP1 POP JUMP JUMPDEST PUSH1 0x0 DUP2 SWAP1 POP SWAP2 SWAP1 POP JUMP JUMPDEST DUP3 DUP2 DUP4 CALLDATACOPY PUSH1 0x0 DUP4 DUP4 ADD MSTORE POP POP POP JUMP JUMPDEST PUSH1 0x0 JUMPDEST DUP4 DUP2 LT ISZERO PUSH2 0x728 JUMPI DUP1 DUP3 ADD MLOAD DUP2 DUP5 ADD MSTORE PUSH1 0x20 DUP2 ADD SWAP1 POP PUSH2 0x70D JUMP JUMPDEST DUP4 DUP2 GT ISZERO PUSH2 0x737 JUMPI PUSH1 0x0 DUP5 DUP5 ADD MSTORE JUMPDEST POP POP POP POP JUMP JUMPDEST PUSH1 0x0 PUSH1 0x2 DUP3 DIV SWAP1 POP PUSH1 0x1 DUP3 AND DUP1 PUSH2 0x755 JUMPI PUSH1 0x7F DUP3 AND SWAP2 POP JUMPDEST PUSH1 0x20 DUP3 LT DUP2 EQ ISZERO PUSH2 0x769 JUMPI PUSH2 0x768 PUSH2 0x7A0 JUMP JUMPDEST JUMPDEST POP SWAP2 SWAP1 POP JUMP JUMPDEST PUSH2 0x778 DUP3 PUSH2 0x812 JUMP JUMPDEST DUP2 ADD DUP2 DUP2 LT PUSH8 0xFFFFFFFFFFFFFFFF DUP3 GT OR ISZERO PUSH2 0x797 JUMPI PUSH2 0x796 PUSH2 0x7CF JUMP JUMPDEST JUMPDEST DUP1 PUSH1 0x40 MSTORE POP POP POP JUMP JUMPDEST PUSH32 0x4E487B7100000000000000000000000000000000000000000000000000000000 PUSH1 0x0 MSTORE PUSH1 0x22 PUSH1 0x4 MSTORE PUSH1 0x24 PUSH1 0x0 REVERT JUMPDEST PUSH32 0x4E487B7100000000000000000000000000000000000000000000000000000000 PUSH1 0x0 MSTORE PUSH1 0x41 PUSH1 0x4 MSTORE PUSH1 0x24 PUSH1 0x0 REVERT JUMPDEST PUSH1 0x0 DUP1 REVERT JUMPDEST PUSH1 0x0 DUP1 REVERT JUMPDEST PUSH1 0x0 DUP1 REVERT JUMPDEST PUSH1 0x0 DUP1 REVERT JUMPDEST PUSH1 0x0 PUSH1 0x1F NOT PUSH1 0x1F DUP4 ADD AND SWAP1 POP SWAP2 SWAP1 POP JUMP JUMPDEST PUSH2 0x82C DUP2 PUSH2 0x6B3 JUMP JUMPDEST DUP2 EQ PUSH2 0x837 JUMPI PUSH1 0x0 DUP1 REVERT JUMPDEST POP JUMP JUMPDEST PUSH2 0x843 DUP2 PUSH2 0x6F1 JUMP JUMPDEST DUP2 EQ PUSH2 0x84E JUMPI PUSH1 0x0 DUP1 REVERT JUMPDEST POP JUMP INVALID LOG2 PUSH5 0x6970667358 0x22 SLT KECCAK256 EXTCODEHASH CALLER STOP DIV 0xCD 0xCC 0xFB SELFBALANCE 0xE8 SWAP15 DUP14 0xC1 0x4C 0xB2 0x4F LOG2 MULMOD 0xD6 SHR SWAP15 0x2D EXTCODECOPY CREATE2 DUP5 0xC4 LOG3 0xDF 0xA8 0x2F SWAP5 0xC2 0xCE PUSH5 0x736F6C6343 STOP ADDMOD SMOD STOP CALLER "
				},
				"gasEstimates": {
					"creation": {
						"codeDepositCost": "436600",
						"executionCost": "474",
						"totalCost": "437074"
					},
					"external": {
						"candidates(uint256)": "infinite",
						"electionName()": "infinite",
						"owner()": "2555",
						"startElection(string)": "infinite",
						"totalVotes()": "2407",
						"voters(address)": "infinite"
					}
				},
				"methodIdentifiers": {
					"candidates(uint256)": "3477ee2e",
					"electionName()": "85e8e7a7",
					"owner()": "8da5cb5b",
					"startElection(string)": "f544bed8",
					"totalVotes()": "0d15fd77",
					"voters(address)": "a3ec138d"
				}
			},
			"storageLayout": {
				"storage": [
					{
						"astId": 17,
						"contract": "Election.sol:Election",
						"label": "owner",
						"offset": 0,
						"slot": "0",
						"type": "t_address"
					},
					{
						"astId": 19,
						"contract": "Election.sol:Election",
						"label": "electionName",
						"offset": 0,
						"slot": "1",
						"type": "t_string_storage"
					},
					{
						"astId": 24,
						"contract": "Election.sol:Election",
						"label": "voters",
						"offset": 0,
						"slot": "2",
						"type": "t_mapping(t_address,t_struct(Voter)15_storage)"
					},
					{
						"astId": 28,
						"contract": "Election.sol:Election",
						"label": "candidates",
						"offset": 0,
						"slot": "3",
						"type": "t_array(t_struct(Candidate)6_storage)dyn_storage"
					},
					{
						"astId": 30,
						"contract": "Election.sol:Election",
						"label": "totalVotes",
						"offset": 0,
						"slot": "4",
						"type": "t_uint256"
					}
				],
				"types": {
					"t_address": {
						"encoding": "inplace",
						"label": "address",
						"numberOfBytes": "20"
					},
					"t_array(t_struct(Candidate)6_storage)dyn_storage": {
						"base": "t_struct(Candidate)6_storage",
						"encoding": "dynamic_array",
						"label": "struct Election.Candidate[]",
						"numberOfBytes": "32"
					},
					"t_bool": {
						"encoding": "inplace",
						"label": "bool",
						"numberOfBytes": "1"
					},
					"t_mapping(t_address,t_struct(Voter)15_storage)": {
						"encoding": "mapping",
						"key": "t_address",
						"label": "mapping(address => struct Election.Voter)",
						"numberOfBytes": "32",
						"value": "t_struct(Voter)15_storage"
					},
					"t_string_storage": {
						"encoding": "bytes",
						"label": "string",
						"numberOfBytes": "32"
					},
					"t_struct(Candidate)6_storage": {
						"encoding": "inplace",
						"label": "struct Election.Candidate",
						"members": [
							{
								"astId": 3,
								"contract": "Election.sol:Election",
								"label": "name",
								"offset": 0,
								"slot": "0",
								"type": "t_string_storage"
							},
							{
								"astId": 5,
								"contract": "Election.sol:Election",
								"label": "numVotes",
								"offset": 0,
								"slot": "1",
								"type": "t_uint256"
							}
						],
						"numberOfBytes": "64"
					},
					"t_struct(Voter)15_storage": {
						"encoding": "inplace",
						"label": "struct Election.Voter",
						"members": [
							{
								"astId": 8,
								"contract": "Election.sol:Election",
								"label": "name",
								"offset": 0,
								"slot": "0",
								"type": "t_string_storage"
							},
							{
								"astId": 10,
								"contract": "Election.sol:Election",
								"label": "authorised",
								"offset": 0,
								"slot": "1",
								"type": "t_bool"
							},
							{
								"astId": 12,
								"contract": "Election.sol:Election",
								"label": "whom",
								"offset": 0,
								"slot": "2",
								"type": "t_uint256"
							},
							{
								"astId": 14,
								"contract": "Election.sol:Election",
								"label": "voted",
								"offset": 0,
								"slot": "3",
								"type": "t_bool"
							}
						],
						"numberOfBytes": "128"
					},
					"t_uint256": {
						"encoding": "inplace",
						"label": "uint256",
						"numberOfBytes": "32"
					}
				}
			},
			"userdoc": {
				"kind": "user",
				"methods": {},
				"version": 1
			}
		}
	}
}